{
  "transactions": [
    {
      "hash": "0x772821ea48d13cf7fc4c0427ca60442e9c4187e608acc3a1cafbf35eeae8102c",
      "transactionType": "CALL",
      "contractName": "TokenManager",
      "contractAddress": "0xd2e5c49f1A6EdD686E44A189dbB239a82CBc37eA",
      "function": "transferReward(address,uint256)",
      "arguments": [
        "0xF8f8269488f73fab3935555FCDdD6035699deE25",
        "10000000000000000000"
      ],
      "transaction": {
        "type": "0x02",
        "from": "0xf8f8269488f73fab3935555fcddd6035699dee25",
        "to": "0xd2e5c49f1a6edd686e44a189dbb239a82cbc37ea",
        "gas": "0xcd0f",
        "value": "0x0",
        "data": "0x15490ebb000000000000000000000000f8f8269488f73fab3935555fcddd6035699dee250000000000000000000000000000000000000000000000008ac7230489e80000",
        "nonce": "0x62",
        "accessList": []
      },
      "additionalContracts": [],
      "isFixedGasLimit": false
    }
  ],
  "receipts": [
    {
      "transactionHash": "0x772821ea48d13cf7fc4c0427ca60442e9c4187e608acc3a1cafbf35eeae8102c",
      "transactionIndex": "0x2",
      "blockHash": "0x39c6c3f259f62f9a968fd20b5bb977f7505660730411d45f0a66ad2948aaa999",
      "blockNumber": "0x10148c7",
      "from": "0xF8f8269488f73fab3935555FCDdD6035699deE25",
      "to": "0xd2e5c49f1A6EdD686E44A189dbB239a82CBc37eA",
      "cumulativeGasUsed": "0x1533b",
      "gasUsed": "0x9d47",
      "contractAddress": null,
      "logs": [
        {
          "address": "0x8893A280da45Cb5E9C6d74FCB00DfA389D0B92Ec",
          "topics": [
            "0xddf252ad1be2c89b69c2b068fc378daa952ba7f163c4a11628f55a4df523b3ef",
            "0x000000000000000000000000d2e5c49f1a6edd686e44a189dbb239a82cbc37ea",
            "0x000000000000000000000000f8f8269488f73fab3935555fcddd6035699dee25"
          ],
          "data": "0x0000000000000000000000000000000000000000000000008ac7230489e80000",
          "blockHash": "0x39c6c3f259f62f9a968fd20b5bb977f7505660730411d45f0a66ad2948aaa999",
          "blockNumber": "0x10148c7",
          "transactionHash": "0x772821ea48d13cf7fc4c0427ca60442e9c4187e608acc3a1cafbf35eeae8102c",
          "transactionIndex": "0x2",
          "logIndex": "0x1",
          "removed": false
        }
      ],
      "status": "0x1",
      "logsBloom": "0x00000000000000000000000000000000000000000000000000000000000002000000000000000000000000000000000000000000000000000000000000000000000000000000080000000008000000000000040000000200000000000000000010000000000000000000000000000000000000000000000000000010000000000000000000000000000000000000000000020000000000080000000000000000000000040000800000000000000000000000000000000000000000000000000000000002000000000000000000000000000000000000000000000000000000000000000000000000000000000000000000000000000000000000000000000000",
      "type": "0x2",
      "effectiveGasPrice": "0x5f5e100"
    }
  ],
  "libraries": [],
  "pending": [],
  "returns": {},
  "timestamp": 1708700785,
  "chain": 421614,
  "multi": false,
  "commit": "efc0274"
}