{
  "transactions": [
    {
      "hash": "0x7443c566465bc24101c6a31ed11cac02e6d8372e765c94a89eff313a3d6b53c4",
      "transactionType": "CALL",
      "contractName": "TokenManager",
      "contractAddress": "0xd2e5c49f1A6EdD686E44A189dbB239a82CBc37eA",
      "function": "transferReward(address,uint256)",
      "arguments": [
        "0xF8f8269488f73fab3935555FCDdD6035699deE25",
        "10"
      ],
      "transaction": {
        "type": "0x02",
        "from": "0xf8f8269488f73fab3935555fcddd6035699dee25",
        "to": "0xd2e5c49f1a6edd686e44a189dbb239a82cbc37ea",
        "gas": "0x124f8",
        "value": "0x0",
        "data": "0x15490ebb000000000000000000000000f8f8269488f73fab3935555fcddd6035699dee25000000000000000000000000000000000000000000000000000000000000000a",
        "nonce": "0x61",
        "accessList": []
      },
      "additionalContracts": [],
      "isFixedGasLimit": false
    }
  ],
  "receipts": [
    {
      "transactionHash": "0x7443c566465bc24101c6a31ed11cac02e6d8372e765c94a89eff313a3d6b53c4",
      "transactionIndex": "0x2",
      "blockHash": "0xd6e44d5e610990f3a585c940317e77c4aede61592ea80309cee3ebb6b52571c1",
      "blockNumber": "0x1014791",
      "from": "0xF8f8269488f73fab3935555FCDdD6035699deE25",
      "to": "0xd2e5c49f1A6EdD686E44A189dbB239a82CBc37eA",
      "cumulativeGasUsed": "0x1fc4f",
      "gasUsed": "0xdfd7",
      "contractAddress": null,
      "logs": [
        {
          "address": "0x8893A280da45Cb5E9C6d74FCB00DfA389D0B92Ec",
          "topics": [
            "0xddf252ad1be2c89b69c2b068fc378daa952ba7f163c4a11628f55a4df523b3ef",
            "0x000000000000000000000000d2e5c49f1a6edd686e44a189dbb239a82cbc37ea",
            "0x000000000000000000000000f8f8269488f73fab3935555fcddd6035699dee25"
          ],
          "data": "0x000000000000000000000000000000000000000000000000000000000000000a",
          "blockHash": "0xd6e44d5e610990f3a585c940317e77c4aede61592ea80309cee3ebb6b52571c1",
          "blockNumber": "0x1014791",
          "transactionHash": "0x7443c566465bc24101c6a31ed11cac02e6d8372e765c94a89eff313a3d6b53c4",
          "transactionIndex": "0x2",
          "logIndex": "0x1",
          "removed": false
        }
      ],
      "status": "0x1",
      "logsBloom": "0x00000000000000000000000000000000000000000000000000000000000002000000000000000000000000000000000000000000000000000000000000000000000000000000080000000008000000000000040000000200000000000000000010000000000000000000000000000000000000000000000000000010000000000000000000000000000000000000000000020000000000080000000000000000000000040000800000000000000000000000000000000000000000000000000000000002000000000000000000000000000000000000000000000000000000000000000000000000000000000000000000000000000000000000000000000000",
      "type": "0x2",
      "effectiveGasPrice": "0x5f5e100"
    }
  ],
  "libraries": [],
  "pending": [],
  "returns": {},
  "timestamp": 1708700706,
  "chain": 421614,
  "multi": false,
  "commit": "efc0274"
}