{
  "transactions": [
    {
      "hash": "0xdecd2b733eb1144efb565c46cdcd8da4b8e097dd83c59e7a04e3ba2fd0145733",
      "transactionType": "CALL",
      "contractName": null,
      "contractAddress": "0x67fae43194fbddbb79d396bd7813ca1d7478d6eb",
      "function": "approve(address,uint256)",
      "arguments": [
        "0xF8f8269488f73fab3935555FCDdD6035699deE25",
        "40000000000000000000"
      ],
      "transaction": {
        "from": "0xf8f8269488f73fab3935555fcddd6035699dee25",
        "to": "0x67fae43194fbddbb79d396bd7813ca1d7478d6eb",
        "gas": "0xfa41",
        "value": "0x0",
        "input": "0x095ea7b3000000000000000000000000f8f8269488f73fab3935555fcddd6035699dee250000000000000000000000000000000000000000000000022b1c8c1227a00000",
        "nonce": "0x6be",
        "chainId": "0xaa36a7"
      },
      "additionalContracts": [],
      "isFixedGasLimit": false
    }
  ],
  "receipts": [
    {
      "status": "0x1",
      "cumulativeGasUsed": "0x451eea",
      "logs": [
        {
          "address": "0x67fae43194fbddbb79d396bd7813ca1d7478d6eb",
          "topics": [
            "0x8c5be1e5ebec7d5bd14f71427d1e84f3dd0314c0f7b2291e5b200ac8c7c3b925",
            "0x000000000000000000000000f8f8269488f73fab3935555fcddd6035699dee25",
            "0x000000000000000000000000f8f8269488f73fab3935555fcddd6035699dee25"
          ],
          "data": "0x0000000000000000000000000000000000000000000000022b1c8c1227a00000",
          "blockHash": "0x308897ba0dcddea6c96d30ee91f1e76582e29e24abfefa7a8c85ac2a25b2f91d",
          "blockNumber": "0x6ea636",
          "transactionHash": "0xdecd2b733eb1144efb565c46cdcd8da4b8e097dd83c59e7a04e3ba2fd0145733",
          "transactionIndex": "0x25",
          "logIndex": "0x7d",
          "removed": false
        }
      ],
      "logsBloom": "0x00000000000000000000000000000000000000000000000000000000000000000000000000000000000000000000000000000000000000000000000000200000000000000000080000000000100000000000040000000000000000000000000010000000000000000000000000000000000000000000000000000000000000000020000000000000000000000000000000000000000000000000000000000000020000000000000000000000000000000000000000000000000000000000000000000000000000000000000000000000000000000000000000000000000000000010000000000000000000000000000000000000000000000002000000000000",
      "type": "0x0",
      "transactionHash": "0xdecd2b733eb1144efb565c46cdcd8da4b8e097dd83c59e7a04e3ba2fd0145733",
      "transactionIndex": "0x25",
      "blockHash": "0x308897ba0dcddea6c96d30ee91f1e76582e29e24abfefa7a8c85ac2a25b2f91d",
      "blockNumber": "0x6ea636",
      "gasUsed": "0xb52f",
      "effectiveGasPrice": "0x12c8d614ed",
      "from": "0xf8f8269488f73fab3935555fcddd6035699dee25",
      "to": "0x67fae43194fbddbb79d396bd7813ca1d7478d6eb",
      "contractAddress": null
    }
  ],
  "libraries": [],
  "pending": [],
  "returns": {},
  "timestamp": 1733849965,
  "chain": 11155111,
  "commit": "bcb028c"
}