{
  "transactions": [
    {
      "hash": "0x223d3d1746000efdd0f371d22c41eafe4b780214ade883677db5035ade48cbdc",
      "transactionType": "CALL",
      "contractName": null,
      "contractAddress": "0x2421836f9a34d67ec2e593c4c93432becd638ced",
      "function": "balanceOf(address)",
      "arguments": [
        "0xF8f8269488f73fab3935555FCDdD6035699deE25"
      ],
      "transaction": {
        "from": "0xf8f8269488f73fab3935555fcddd6035699dee25",
        "to": "0x2421836f9a34d67ec2e593c4c93432becd638ced",
        "gas": "0xa459",
        "value": "0x0",
        "input": "0x70a08231000000000000000000000000f8f8269488f73fab3935555fcddd6035699dee25",
        "nonce": "0x65f",
        "chainId": "0xaa36a7"
      },
      "additionalContracts": [],
      "isFixedGasLimit": false
    }
  ],
  "receipts": [
    {
      "status": "0x1",
      "cumulativeGasUsed": "0x4c9d4e",
      "logs": [
        {
          "address": "0x2421836f9a34d67ec2e593c4c93432becd638ced",
          "topics": [
            "0xb3283e62da596472bfaced2b06c099416a162887a48327e0ffbcb4e682064600"
          ],
          "data": "0x00000000000000000000000000000000000000000000000176b344f2a78c0000",
          "blockHash": "0x991000b3df7515c4ec80dd3b8d2d968379548e245cd9eee6524e37248c34b744",
          "blockNumber": "0x674b0b",
          "transactionHash": "0x223d3d1746000efdd0f371d22c41eafe4b780214ade883677db5035ade48cbdc",
          "transactionIndex": "0x2d",
          "logIndex": "0x7c",
          "removed": false
        }
      ],
      "logsBloom": "0x00000000000000000000020000000000000000000000000000000000000000000000000000000000000000000000000000000000000000000000000000000000000000000000000000000000000000000000000000000000000000000000000000000000000000000000000010000000000000000000000000000000000000000000000000000000000000000000004000000000000000000000000000000000000000000000000000000000000002000000000000000000000000000000000000000000000000000000000200000000000000000000000100000000000000000000000000000000000000000000000000000000000000000000000000000000",
      "type": "0x0",
      "transactionHash": "0x223d3d1746000efdd0f371d22c41eafe4b780214ade883677db5035ade48cbdc",
      "transactionIndex": "0x2d",
      "blockHash": "0x991000b3df7515c4ec80dd3b8d2d968379548e245cd9eee6524e37248c34b744",
      "blockNumber": "0x674b0b",
      "gasUsed": "0x76fd",
      "effectiveGasPrice": "0x252ec19aed",
      "from": "0xf8f8269488f73fab3935555fcddd6035699dee25",
      "to": "0x2421836f9a34d67ec2e593c4c93432becd638ced",
      "contractAddress": null
    }
  ],
  "libraries": [],
  "pending": [],
  "returns": {},
  "timestamp": 1727445481,
  "chain": 11155111,
  "commit": "48b2bab"
}