{
  "transactions": [
    {
      "hash": "0x3ac69270e5a7f5b39dae5ffe0aa8e684ec62388966fd2a6af73b31653da225fc",
      "transactionType": "CALL",
      "contractName": "TokenManager",
      "contractAddress": "0x48eae783a2afbf868362d8deb6329745b11730c7",
      "function": "approve(address,uint256)",
      "arguments": [
        "0x48eaE783A2aFBf868362d8deb6329745B11730c7",
        "17000000000000000000"
      ],
      "transaction": {
        "from": "0xf8f8269488f73fab3935555fcddd6035699dee25",
        "to": "0x48eae783a2afbf868362d8deb6329745b11730c7",
        "gas": "0xbda1",
        "value": "0x0",
        "input": "0x095ea7b300000000000000000000000048eae783a2afbf868362d8deb6329745b11730c7000000000000000000000000000000000000000000000000ebec21ee1da40000",
        "nonce": "0x669",
        "chainId": "0xaa36a7"
      },
      "additionalContracts": [],
      "isFixedGasLimit": false
    }
  ],
  "receipts": [
    {
      "status": "0x1",
      "cumulativeGasUsed": "0xab366c",
      "logs": [
        {
          "address": "0xc38b87672eeac39fee0d439a71b4a43efd3651eb",
          "topics": [
            "0x8c5be1e5ebec7d5bd14f71427d1e84f3dd0314c0f7b2291e5b200ac8c7c3b925",
            "0x00000000000000000000000048eae783a2afbf868362d8deb6329745b11730c7",
            "0x00000000000000000000000048eae783a2afbf868362d8deb6329745b11730c7"
          ],
          "data": "0x000000000000000000000000000000000000000000000000ebec21ee1da40000",
          "blockHash": "0x7d16f959ef98a2904e85455c29b9388ebbfafa75a09ac39078d46a58c68c374b",
          "blockNumber": "0x678f25",
          "transactionHash": "0x3ac69270e5a7f5b39dae5ffe0aa8e684ec62388966fd2a6af73b31653da225fc",
          "transactionIndex": "0x57",
          "logIndex": "0x61",
          "removed": false
        },
        {
          "address": "0x48eae783a2afbf868362d8deb6329745b11730c7",
          "topics": [
            "0x5ce43afe232e63de92204e26c39b9939659c93e7f377506a7a6699b204be8ac7"
          ],
          "data": "0x00000000000000000000000048eae783a2afbf868362d8deb6329745b11730c7000000000000000000000000000000000000000000000000ebec21ee1da40000",
          "blockHash": "0x7d16f959ef98a2904e85455c29b9388ebbfafa75a09ac39078d46a58c68c374b",
          "blockNumber": "0x678f25",
          "transactionHash": "0x3ac69270e5a7f5b39dae5ffe0aa8e684ec62388966fd2a6af73b31653da225fc",
          "transactionIndex": "0x57",
          "logIndex": "0x62",
          "removed": false
        }
      ],
      "logsBloom": "0x00000000000000000000000000000004000000000000000000020000000200000000000200000000000000000000000000000000000000000000008000200000000000000000000000000000000000000000000000000000000000000000000040000000000000000000000000000000000400000000000000000000000000000000000000000000000000000000000000000000000800000000000000000000020000000000000000000040000000000000000000000000000000000000000001000000000000000004000000000000000000000000000000020000000000000010000000000000000000000000000000000000000000000000000000000000",
      "type": "0x0",
      "transactionHash": "0x3ac69270e5a7f5b39dae5ffe0aa8e684ec62388966fd2a6af73b31653da225fc",
      "transactionIndex": "0x57",
      "blockHash": "0x7d16f959ef98a2904e85455c29b9388ebbfafa75a09ac39078d46a58c68c374b",
      "blockNumber": "0x678f25",
      "gasUsed": "0x81aa",
      "effectiveGasPrice": "0x49db983cfb",
      "from": "0xf8f8269488f73fab3935555fcddd6035699dee25",
      "to": "0x48eae783a2afbf868362d8deb6329745b11730c7",
      "contractAddress": null
    }
  ],
  "libraries": [],
  "pending": [],
  "returns": {},
  "timestamp": 1727687010,
  "chain": 11155111,
  "commit": "48b2bab"
}