{
  "transactions": [
    {
      "hash": "0x2831c772fc01284daddd167a334ee1699d0f985a15908724a813988f144197c3",
      "transactionType": "CALL",
      "contractName": null,
      "contractAddress": "0x2421836f9a34d67ec2e593c4c93432becd638ced",
      "function": "balanceOf(address)",
      "arguments": [
        "0xF8f8269488f73fab3935555FCDdD6035699deE25"
      ],
      "transaction": {
        "from": "0xf8f8269488f73fab3935555fcddd6035699dee25",
        "to": "0x2421836f9a34d67ec2e593c4c93432becd638ced",
        "gas": "0xa459",
        "value": "0x0",
        "input": "0x70a08231000000000000000000000000f8f8269488f73fab3935555fcddd6035699dee25",
        "nonce": "0x65d",
        "chainId": "0xaa36a7"
      },
      "additionalContracts": [],
      "isFixedGasLimit": false
    }
  ],
  "receipts": [
    {
      "status": "0x1",
      "cumulativeGasUsed": "0x1663c0",
      "logs": [
        {
          "address": "0x2421836f9a34d67ec2e593c4c93432becd638ced",
          "topics": [
            "0xb3283e62da596472bfaced2b06c099416a162887a48327e0ffbcb4e682064600"
          ],
          "data": "0x0000000000000000000000000000000000000000000000000000000000000000",
          "blockHash": "0xd3218f3d1fbe17480393cbb7935553c29d767e57ee7bfde48c57c90178fe96b3",
          "blockNumber": "0x674af6",
          "transactionHash": "0x2831c772fc01284daddd167a334ee1699d0f985a15908724a813988f144197c3",
          "transactionIndex": "0x10",
          "logIndex": "0x1c",
          "removed": false
        }
      ],
      "logsBloom": "0x00000000000000000000020000000000000000000000000000000000000000000000000000000000000000000000000000000000000000000000000000000000000000000000000000000000000000000000000000000000000000000000000000000000000000000000000010000000000000000000000000000000000000000000000000000000000000000000004000000000000000000000000000000000000000000000000000000000000002000000000000000000000000000000000000000000000000000000000200000000000000000000000100000000000000000000000000000000000000000000000000000000000000000000000000000000",
      "type": "0x0",
      "transactionHash": "0x2831c772fc01284daddd167a334ee1699d0f985a15908724a813988f144197c3",
      "transactionIndex": "0x10",
      "blockHash": "0xd3218f3d1fbe17480393cbb7935553c29d767e57ee7bfde48c57c90178fe96b3",
      "blockNumber": "0x674af6",
      "gasUsed": "0x76fd",
      "effectiveGasPrice": "0x296a161e72",
      "from": "0xf8f8269488f73fab3935555fcddd6035699dee25",
      "to": "0x2421836f9a34d67ec2e593c4c93432becd638ced",
      "contractAddress": null
    }
  ],
  "libraries": [],
  "pending": [],
  "returns": {},
  "timestamp": 1727445194,
  "chain": 11155111,
  "commit": "48b2bab"
}