{
  "transactions": [
    {
      "hash": "0x6d23f0249bf35bd4e713575da950014f8ea9e8b60ac1a964be919806f7aef4be",
      "transactionType": "CALL",
      "contractName": null,
      "contractAddress": "0xefe03178b22029695b16133c5620d1441cfa561d",
      "function": "setRewardTokenAddress(address)",
      "arguments": [
        "0xfb185B3703D73bf0FE0970B42CBE80609141edab"
      ],
      "transaction": {
        "from": "0xf8f8269488f73fab3935555fcddd6035699dee25",
        "to": "0xefe03178b22029695b16133c5620d1441cfa561d",
        "gas": "0x10729",
        "value": "0x0",
        "input": "0x9a6acf20000000000000000000000000fb185b3703d73bf0fe0970b42cbe80609141edab",
        "nonce": "0x628",
        "chainId": "0xaa36a7"
      },
      "additionalContracts": [],
      "isFixedGasLimit": false
    }
  ],
  "receipts": [
    {
      "status": "0x1",
      "cumulativeGasUsed": "0x551202",
      "logs": [],
      "logsBloom": "0x00000000000000000000000000000000000000000000000000000000000000000000000000000000000000000000000000000000000000000000000000000000000000000000000000000000000000000000000000000000000000000000000000000000000000000000000000000000000000000000000000000000000000000000000000000000000000000000000000000000000000000000000000000000000000000000000000000000000000000000000000000000000000000000000000000000000000000000000000000000000000000000000000000000000000000000000000000000000000000000000000000000000000000000000000000000",
      "type": "0x0",
      "transactionHash": "0x6d23f0249bf35bd4e713575da950014f8ea9e8b60ac1a964be919806f7aef4be",
      "transactionIndex": "0x1d",
      "blockHash": "0x24491e0d0235a9eacc4b0ce974e03cf7e40e873f888681c206311abb5b771263",
      "blockNumber": "0x66ef7e",
      "gasUsed": "0xb3f1",
      "effectiveGasPrice": "0x6b4dfea43",
      "from": "0xf8f8269488f73fab3935555fcddd6035699dee25",
      "to": "0xefe03178b22029695b16133c5620d1441cfa561d",
      "contractAddress": null
    }
  ],
  "libraries": [],
  "pending": [],
  "returns": {},
  "timestamp": 1727107068,
  "chain": 11155111,
  "commit": "bf3ceb3"
}