{
  "transactions": [
    {
      "hash": "0xa9813e91edca34e0d10e07149eac7a3fe8a1b82be302cd065ba6e09238e8edbd",
      "transactionType": "CALL",
      "contractName": null,
      "contractAddress": "0x5271c1e08066ef0714bb05026ea7658348976d6c",
      "function": "transferFTN(address,uint256)",
      "arguments": [
        "0xF8f8269488f73fab3935555FCDdD6035699deE25",
        "100000000000000000000"
      ],
      "transaction": {
        "from": "0xf8f8269488f73fab3935555fcddd6035699dee25",
        "to": "0x5271c1e08066ef0714bb05026ea7658348976d6c",
        "gas": "0x13f63",
        "value": "0x0",
        "input": "0x2bf72e45000000000000000000000000f8f8269488f73fab3935555fcddd6035699dee250000000000000000000000000000000000000000000000056bc75e2d63100000",
        "nonce": "0x6ba",
        "chainId": "0xaa36a7"
      },
      "additionalContracts": [],
      "isFixedGasLimit": false
    }
  ],
  "receipts": [
    {
      "status": "0x1",
      "cumulativeGasUsed": "0x578780",
      "logs": [
        {
          "address": "0x67fae43194fbddbb79d396bd7813ca1d7478d6eb",
          "topics": [
            "0xddf252ad1be2c89b69c2b068fc378daa952ba7f163c4a11628f55a4df523b3ef",
            "0x0000000000000000000000005271c1e08066ef0714bb05026ea7658348976d6c",
            "0x000000000000000000000000f8f8269488f73fab3935555fcddd6035699dee25"
          ],
          "data": "0x0000000000000000000000000000000000000000000000056bc75e2d63100000",
          "blockHash": "0x914d0ffcd284cf0e6d3e565574cd6e8ff354f9033252d1f88e8db625c3cc618b",
          "blockNumber": "0x6ea5ff",
          "transactionHash": "0xa9813e91edca34e0d10e07149eac7a3fe8a1b82be302cd065ba6e09238e8edbd",
          "transactionIndex": "0x15",
          "logIndex": "0xcb",
          "removed": false
        }
      ],
      "logsBloom": "0x00000000000000000000000000000000000000000000000000001000000000000000000000000000000000000000000000000000000000000000000000000000000000000000080000000008100000000000040000000000000000000000000010000000000000000000000000000000000000000000000000000010000000000020000000000000000000000000000000000000000000000000000000000020000000000000000000000000000000000000000000000000000000000000000000000002000000000000000000000000000000000000000000000000000000000000000000080000000000000000000000000000000000000002000000000000",
      "type": "0x0",
      "transactionHash": "0xa9813e91edca34e0d10e07149eac7a3fe8a1b82be302cd065ba6e09238e8edbd",
      "transactionIndex": "0x15",
      "blockHash": "0x914d0ffcd284cf0e6d3e565574cd6e8ff354f9033252d1f88e8db625c3cc618b",
      "blockNumber": "0x6ea5ff",
      "gasUsed": "0xe73c",
      "effectiveGasPrice": "0x1b31ce968d",
      "from": "0xf8f8269488f73fab3935555fcddd6035699dee25",
      "to": "0x5271c1e08066ef0714bb05026ea7658348976d6c",
      "contractAddress": null
    }
  ],
  "libraries": [],
  "pending": [],
  "returns": {},
  "timestamp": 1733849213,
  "chain": 11155111,
  "commit": "bcb028c"
}