{
  "transactions": [
    {
      "hash": "0x7acf1eabc816ea0b3c5ec7600e145a00e277d579d56f132134906bebeb5e9d2a",
      "transactionType": "CALL",
      "contractName": null,
      "contractAddress": "0x2421836f9a34d67ec2e593c4c93432becd638ced",
      "function": "approve(address,uint256)",
      "arguments": [
        "0x2421836F9a34D67eC2E593C4C93432BECd638Ced",
        "27000000000000000000"
      ],
      "transaction": {
        "from": "0xf8f8269488f73fab3935555fcddd6035699dee25",
        "to": "0x2421836f9a34d67ec2e593c4c93432becd638ced",
        "gas": "0x11ea6",
        "value": "0x0",
        "input": "0x095ea7b30000000000000000000000002421836f9a34d67ec2e593c4c93432becd638ced00000000000000000000000000000000000000000000000176b344f2a78c0000",
        "nonce": "0x661",
        "chainId": "0xaa36a7"
      },
      "additionalContracts": [],
      "isFixedGasLimit": false
    }
  ],
  "receipts": [
    {
      "status": "0x1",
      "cumulativeGasUsed": "0x958d5",
      "logs": [
        {
          "address": "0x34fe24b11aa190a501a055d873b3cfb42918e2d1",
          "topics": [
            "0x8c5be1e5ebec7d5bd14f71427d1e84f3dd0314c0f7b2291e5b200ac8c7c3b925",
            "0x0000000000000000000000002421836f9a34d67ec2e593c4c93432becd638ced",
            "0x0000000000000000000000002421836f9a34d67ec2e593c4c93432becd638ced"
          ],
          "data": "0x00000000000000000000000000000000000000000000000176b344f2a78c0000",
          "blockHash": "0x5b418f738b24c4135d9576131e3a167b10410aa51b41f16ed330c81ef8a71890",
          "blockNumber": "0x674b32",
          "transactionHash": "0x7acf1eabc816ea0b3c5ec7600e145a00e277d579d56f132134906bebeb5e9d2a",
          "transactionIndex": "0xa",
          "logIndex": "0xa",
          "removed": false
        },
        {
          "address": "0x2421836f9a34d67ec2e593c4c93432becd638ced",
          "topics": [
            "0x5ce43afe232e63de92204e26c39b9939659c93e7f377506a7a6699b204be8ac7"
          ],
          "data": "0x0000000000000000000000002421836f9a34d67ec2e593c4c93432becd638ced00000000000000000000000000000000000000000000000176b344f2a78c0000",
          "blockHash": "0x5b418f738b24c4135d9576131e3a167b10410aa51b41f16ed330c81ef8a71890",
          "blockNumber": "0x674b32",
          "transactionHash": "0x7acf1eabc816ea0b3c5ec7600e145a00e277d579d56f132134906bebeb5e9d2a",
          "transactionIndex": "0xa",
          "logIndex": "0xb",
          "removed": false
        }
      ],
      "logsBloom": "0x00000000000000000000020000000000000000000000000000020100000000000000000000000000000000000000000000000000000040000000000000200000000000000000000000000000000000000000000000000000000000000000000000000000000000000000000004000000000400004000000000000000000000000002000000000000000000000000000000000000000000000000000000000000020000000000000000000040000000000000000000000000000000000000000000000000000000000000000200000000000000002000000100000000000000000010000000000000000000000000000000000000000000000000000000000000",
      "type": "0x0",
      "transactionHash": "0x7acf1eabc816ea0b3c5ec7600e145a00e277d579d56f132134906bebeb5e9d2a",
      "transactionIndex": "0xa",
      "blockHash": "0x5b418f738b24c4135d9576131e3a167b10410aa51b41f16ed330c81ef8a71890",
      "blockNumber": "0x674b32",
      "gasUsed": "0xcf88",
      "effectiveGasPrice": "0x3b34213865",
      "from": "0xf8f8269488f73fab3935555fcddd6035699dee25",
      "to": "0x2421836f9a34d67ec2e593c4c93432becd638ced",
      "contractAddress": null
    }
  ],
  "libraries": [],
  "pending": [],
  "returns": {},
  "timestamp": 1727446094,
  "chain": 11155111,
  "commit": "48b2bab"
}