{
  "transactions": [
    {
      "hash": "0xea9d5f6df56a1d307eb2ae0fad988f1d9b2329c6a724bdfa712a3683b52ce239",
      "transactionType": "CALL",
      "contractName": null,
      "contractAddress": "0xcc49b1ed8753163def2820ed935817db489d7e8f",
      "function": "setRewardTokenAddress(address)",
      "arguments": [
        "0x5C4665bfcF57aA5EfA7541f311797c3F87E845FC"
      ],
      "transaction": {
        "from": "0xf8f8269488f73fab3935555fcddd6035699dee25",
        "to": "0xcc49b1ed8753163def2820ed935817db489d7e8f",
        "gas": "0x959a",
        "value": "0x0",
        "input": "0x9a6acf200000000000000000000000005c4665bfcf57aa5efa7541f311797c3f87e845fc",
        "nonce": "0x60c",
        "chainId": "0xaa36a7"
      },
      "additionalContracts": [],
      "isFixedGasLimit": false
    }
  ],
  "receipts": [
    {
      "status": "0x1",
      "cumulativeGasUsed": "0x552de8",
      "logs": [],
      "logsBloom": "0x00000000000000000000000000000000000000000000000000000000000000000000000000000000000000000000000000000000000000000000000000000000000000000000000000000000000000000000000000000000000000000000000000000000000000000000000000000000000000000000000000000000000000000000000000000000000000000000000000000000000000000000000000000000000000000000000000000000000000000000000000000000000000000000000000000000000000000000000000000000000000000000000000000000000000000000000000000000000000000000000000000000000000000000000000000000",
      "type": "0x0",
      "transactionHash": "0xea9d5f6df56a1d307eb2ae0fad988f1d9b2329c6a724bdfa712a3683b52ce239",
      "transactionIndex": "0xc",
      "blockHash": "0x714630e6e7499f62834e9a1ade0221481116437306e26fb66e13ebfc4f9f78c4",
      "blockNumber": "0x665c38",
      "gasUsed": "0x664b",
      "effectiveGasPrice": "0x4d178fba6",
      "from": "0xf8f8269488f73fab3935555fcddd6035699dee25",
      "to": "0xcc49b1ed8753163def2820ed935817db489d7e8f",
      "contractAddress": null
    }
  ],
  "libraries": [],
  "pending": [],
  "returns": {},
  "timestamp": 1726564717,
  "chain": 11155111,
  "commit": "8ae1c48"
}