{
  "transactions": [
    {
      "hash": "0x3a74098fffd096b6f0a92941508fd33c461e10184fdb7717b2766e29726678ce",
      "transactionType": "CALL",
      "contractName": null,
      "contractAddress": "0x8823a76de8387f84fa0cf4da2d180d52b36c9f62",
      "function": "setRewardTokenAddress(address)",
      "arguments": [
        "0x5ECFAd467F0D15fdc266772546D1770Ff5b300C3"
      ],
      "transaction": {
        "from": "0xf8f8269488f73fab3935555fcddd6035699dee25",
        "to": "0x8823a76de8387f84fa0cf4da2d180d52b36c9f62",
        "gas": "0x10738",
        "value": "0x0",
        "input": "0x9a6acf200000000000000000000000005ecfad467f0d15fdc266772546d1770ff5b300c3",
        "nonce": "0x615",
        "chainId": "0xaa36a7"
      },
      "additionalContracts": [],
      "isFixedGasLimit": false
    }
  ],
  "receipts": [
    {
      "status": "0x1",
      "cumulativeGasUsed": "0x98ae16",
      "logs": [],
      "logsBloom": "0x00000000000000000000000000000000000000000000000000000000000000000000000000000000000000000000000000000000000000000000000000000000000000000000000000000000000000000000000000000000000000000000000000000000000000000000000000000000000000000000000000000000000000000000000000000000000000000000000000000000000000000000000000000000000000000000000000000000000000000000000000000000000000000000000000000000000000000000000000000000000000000000000000000000000000000000000000000000000000000000000000000000000000000000000000000000",
      "type": "0x2",
      "transactionHash": "0x3a74098fffd096b6f0a92941508fd33c461e10184fdb7717b2766e29726678ce",
      "transactionIndex": "0x7d",
      "blockHash": "0x1465c1107755d63182a325113542fb52a4f09af9da372960f33244d9b378d90a",
      "blockNumber": "0x668b95",
      "gasUsed": "0xb3fb",
      "effectiveGasPrice": "0x579630325",
      "from": "0xf8f8269488f73fab3935555fcddd6035699dee25",
      "to": "0x8823a76de8387f84fa0cf4da2d180d52b36c9f62",
      "contractAddress": null
    }
  ],
  "libraries": [],
  "pending": [],
  "returns": {},
  "timestamp": 1726737687,
  "chain": 11155111,
  "commit": "8ae1c48"
}