{
  "transactions": [
    {
      "hash": "0x6825adfe76ed28f0b10113b4af368ae06125c93a285035d4fa1beafb2e83793c",
      "transactionType": "CALL",
      "contractName": null,
      "contractAddress": "0xe654d6b50fce1f4f056e4cc298f93930f60bdb50",
      "function": "transferFTN(address,uint256)",
      "arguments": [
        "0xF8f8269488f73fab3935555FCDdD6035699deE25",
        "23000000000000000000"
      ],
      "transaction": {
        "from": "0xf8f8269488f73fab3935555fcddd6035699dee25",
        "to": "0xe654d6b50fce1f4f056e4cc298f93930f60bdb50",
        "gas": "0x13f63",
        "value": "0x0",
        "input": "0x2bf72e45000000000000000000000000f8f8269488f73fab3935555fcddd6035699dee250000000000000000000000000000000000000000000000013f306a2409fc0000",
        "nonce": "0x6a3",
        "chainId": "0xaa36a7"
      },
      "additionalContracts": [],
      "isFixedGasLimit": false
    }
  ],
  "receipts": [
    {
      "status": "0x1",
      "cumulativeGasUsed": "0xe1a837",
      "logs": [
        {
          "address": "0x0d78a1b7f5da7838016f595d31c79b0b5d3cf7aa",
          "topics": [
            "0xddf252ad1be2c89b69c2b068fc378daa952ba7f163c4a11628f55a4df523b3ef",
            "0x000000000000000000000000e654d6b50fce1f4f056e4cc298f93930f60bdb50",
            "0x000000000000000000000000f8f8269488f73fab3935555fcddd6035699dee25"
          ],
          "data": "0x0000000000000000000000000000000000000000000000013f306a2409fc0000",
          "blockHash": "0x8cae44ccddadd29d2eae5dd73b1bd1a61b2de957ef8d7880d77a20738322d140",
          "blockNumber": "0x6e8be9",
          "transactionHash": "0x6825adfe76ed28f0b10113b4af368ae06125c93a285035d4fa1beafb2e83793c",
          "transactionIndex": "0x56",
          "logIndex": "0xb4",
          "removed": false
        }
      ],
      "logsBloom": "0x00000000000000000000000000000000000000000000000000000000000000000000000000000000000000000000000000000000000000000000000000000000080000000000080000000008000000000000040040000000000000000000000010000000000000000000000000000000000000000000000000000010000000000000000000000002100000000000000000000000000000000000000000000000000002000000000000000000000000000000000000000000000000000000000000000002000000000000000000000000000000000000000000000000000000000000000000000000000000000000000000000100000000000000000000000000",
      "type": "0x0",
      "transactionHash": "0x6825adfe76ed28f0b10113b4af368ae06125c93a285035d4fa1beafb2e83793c",
      "transactionIndex": "0x56",
      "blockHash": "0x8cae44ccddadd29d2eae5dd73b1bd1a61b2de957ef8d7880d77a20738322d140",
      "blockNumber": "0x6e8be9",
      "gasUsed": "0xe73c",
      "effectiveGasPrice": "0xe1b1887c3",
      "from": "0xf8f8269488f73fab3935555fcddd6035699dee25",
      "to": "0xe654d6b50fce1f4f056e4cc298f93930f60bdb50",
      "contractAddress": null
    }
  ],
  "libraries": [],
  "pending": [],
  "returns": {},
  "timestamp": 1733763710,
  "chain": 11155111,
  "commit": "bcb028c"
}