{
  "transactions": [
    {
      "hash": "0x5a4c3f242da3c1594e1ba6f275712dd155813af644918aa9ff2a968c71d51c99",
      "transactionType": "CALL",
      "contractName": null,
      "contractAddress": "0xa177b1be699bd5d28e2adfe88e439f7f899bf9af",
      "function": "deposit(uint256)",
      "arguments": [
        "40000000000000000000"
      ],
      "transaction": {
        "from": "0xf8f8269488f73fab3935555fcddd6035699dee25",
        "to": "0xa177b1be699bd5d28e2adfe88e439f7f899bf9af",
        "gas": "0x23c4c",
        "value": "0x0",
        "input": "0xb6b55f250000000000000000000000000000000000000000000000022b1c8c1227a00000",
        "nonce": "0x6c3",
        "chainId": "0xaa36a7"
      },
      "additionalContracts": [],
      "isFixedGasLimit": false
    }
  ],
  "receipts": [
    {
      "status": "0x1",
      "cumulativeGasUsed": "0x3e0d99",
      "logs": [
        {
          "address": "0x67fae43194fbddbb79d396bd7813ca1d7478d6eb",
          "topics": [
            "0xddf252ad1be2c89b69c2b068fc378daa952ba7f163c4a11628f55a4df523b3ef",
            "0x000000000000000000000000f8f8269488f73fab3935555fcddd6035699dee25",
            "0x000000000000000000000000a177b1be699bd5d28e2adfe88e439f7f899bf9af"
          ],
          "data": "0x0000000000000000000000000000000000000000000000022b1c8c1227a00000",
          "blockHash": "0xaf0fcf97621178b3f3a9c939befc9910bc91f1b2b124a60da4f04c2abe17dde5",
          "blockNumber": "0x6ea6b1",
          "transactionHash": "0x5a4c3f242da3c1594e1ba6f275712dd155813af644918aa9ff2a968c71d51c99",
          "transactionIndex": "0x25",
          "logIndex": "0x82",
          "removed": false
        },
        {
          "address": "0xa177b1be699bd5d28e2adfe88e439f7f899bf9af",
          "topics": [
            "0xa91e0c3165215fe453f5bf3de083d5fd6c4e62c491849155a042a647588c53a0",
            "0x000000000000000000000000f8f8269488f73fab3935555fcddd6035699dee25"
          ],
          "data": "0x0000000000000000000000000000000000000000000000022b1c8c1227a0000000000000000000000000000000000000000000000000000000000000006ea6b1",
          "blockHash": "0xaf0fcf97621178b3f3a9c939befc9910bc91f1b2b124a60da4f04c2abe17dde5",
          "blockNumber": "0x6ea6b1",
          "transactionHash": "0x5a4c3f242da3c1594e1ba6f275712dd155813af644918aa9ff2a968c71d51c99",
          "transactionIndex": "0x25",
          "logIndex": "0x83",
          "removed": false
        }
      ],
      "logsBloom": "0x80000000000000000000000000000000000000040000000000000000000000000000000000000000000000000000000000000000000000000000000000000000000000000000080000000008100000000000040000000000000000000000000010000000000040000000000000000000020000000000000000000010000000000020000000000000000000000140000000000000000000000000000000000000000000000000000000000000000000000000000000000000200000000000000000000002000000000000000000000000000000000004000000000000000000000000000000000000000000000000000000000000000000000002000080000000",
      "type": "0x0",
      "transactionHash": "0x5a4c3f242da3c1594e1ba6f275712dd155813af644918aa9ff2a968c71d51c99",
      "transactionIndex": "0x25",
      "blockHash": "0xaf0fcf97621178b3f3a9c939befc9910bc91f1b2b124a60da4f04c2abe17dde5",
      "blockNumber": "0x6ea6b1",
      "gasUsed": "0x19e56",
      "effectiveGasPrice": "0x708a69cf8",
      "from": "0xf8f8269488f73fab3935555fcddd6035699dee25",
      "to": "0xa177b1be699bd5d28e2adfe88e439f7f899bf9af",
      "contractAddress": null
    }
  ],
  "libraries": [],
  "pending": [],
  "returns": {},
  "timestamp": 1733851481,
  "chain": 11155111,
  "commit": "bcb028c"
}