{
  "transactions": [
    {
      "hash": "0x47850b5916f2587a6405223516bab24556a7966e07563de180fd870da98f1bd6",
      "transactionType": "CALL",
      "contractName": null,
      "contractAddress": "0x1476f48415c317f83e102e1915324510cef2b252",
      "function": "setRewardTokenAddress(address)",
      "arguments": [
        "0x2CAcE9EB7e30f596546c6C5E6b4bca0489d02a89"
      ],
      "transaction": {
        "from": "0xf8f8269488f73fab3935555fcddd6035699dee25",
        "to": "0x1476f48415c317f83e102e1915324510cef2b252",
        "gas": "0xf8a9",
        "value": "0x0",
        "input": "0x9a6acf200000000000000000000000002cace9eb7e30f596546c6c5e6b4bca0489d02a89",
        "nonce": "0x648",
        "chainId": "0xaa36a7"
      },
      "additionalContracts": [],
      "isFixedGasLimit": false
    }
  ],
  "receipts": [
    {
      "status": "0x1",
      "cumulativeGasUsed": "0xcde35",
      "logs": [],
      "logsBloom": "0x00000000000000000000000000000000000000000000000000000000000000000000000000000000000000000000000000000000000000000000000000000000000000000000000000000000000000000000000000000000000000000000000000000000000000000000000000000000000000000000000000000000000000000000000000000000000000000000000000000000000000000000000000000000000000000000000000000000000000000000000000000000000000000000000000000000000000000000000000000000000000000000000000000000000000000000000000000000000000000000000000000000000000000000000000000000",
      "type": "0x0",
      "transactionHash": "0x47850b5916f2587a6405223516bab24556a7966e07563de180fd870da98f1bd6",
      "transactionIndex": "0x6",
      "blockHash": "0xe17592dfde7bae63a44df7469a2937c4a9c98c3f6e8105720de6a9ea08389fbb",
      "blockNumber": "0x6716ef",
      "gasUsed": "0xb407",
      "effectiveGasPrice": "0x609be3f9c8",
      "from": "0xf8f8269488f73fab3935555fcddd6035699dee25",
      "to": "0x1476f48415c317f83e102e1915324510cef2b252",
      "contractAddress": null
    }
  ],
  "libraries": [],
  "pending": [],
  "returns": {},
  "timestamp": 1727253928,
  "chain": 11155111,
  "commit": "bf3ceb3"
}