{
  "transactions": [
    {
      "hash": "0x25add3457450238adb2acd3f146387679b0f2d2f56a49087bf3e43229d1f9f80",
      "transactionType": "CALL",
      "contractName": null,
      "contractAddress": "0x1738d721389777450987d158ab96b269c6aab335",
      "function": "approve(address,uint256)",
      "arguments": [
        "0x6662eFaE873731318c595536096336c8cDDF32eb",
        "100000000000000000000"
      ],
      "transaction": {
        "from": "0xf8f8269488f73fab3935555fcddd6035699dee25",
        "to": "0x1738d721389777450987d158ab96b269c6aab335",
        "gas": "0xfa41",
        "value": "0x0",
        "input": "0x095ea7b30000000000000000000000006662efae873731318c595536096336c8cddf32eb0000000000000000000000000000000000000000000000056bc75e2d63100000",
        "nonce": "0x6b2",
        "chainId": "0xaa36a7"
      },
      "additionalContracts": [],
      "isFixedGasLimit": false
    }
  ],
  "receipts": [
    {
      "status": "0x1",
      "cumulativeGasUsed": "0x4bae85",
      "logs": [
        {
          "address": "0x1738d721389777450987d158ab96b269c6aab335",
          "topics": [
            "0x8c5be1e5ebec7d5bd14f71427d1e84f3dd0314c0f7b2291e5b200ac8c7c3b925",
            "0x000000000000000000000000f8f8269488f73fab3935555fcddd6035699dee25",
            "0x0000000000000000000000006662efae873731318c595536096336c8cddf32eb"
          ],
          "data": "0x0000000000000000000000000000000000000000000000056bc75e2d63100000",
          "blockHash": "0x9ee3ca5ed81b0db160dbebe611613def09605fabae1506d32d6bf0327f200157",
          "blockNumber": "0x6ea2c3",
          "transactionHash": "0x25add3457450238adb2acd3f146387679b0f2d2f56a49087bf3e43229d1f9f80",
          "transactionIndex": "0x3a",
          "logIndex": "0x72",
          "removed": false
        }
      ],
      "logsBloom": "0x00000000000000000000000000000000000000000000000000000000000000000000000000008000000000000000000000000000000000000000000000200000000000000000080000000000000000000000040000000000000000000000000010000000000000000000000000000000000000000000000000000000200000000000000000000000000000000000000000000000000000000000000000000000020000000000000000800000000000000000000000000008000000000000000000000000000000000000000000080000000000000000000000000000000000000010000000000000000000000000000000800000000000000000000000000000",
      "type": "0x0",
      "transactionHash": "0x25add3457450238adb2acd3f146387679b0f2d2f56a49087bf3e43229d1f9f80",
      "transactionIndex": "0x3a",
      "blockHash": "0x9ee3ca5ed81b0db160dbebe611613def09605fabae1506d32d6bf0327f200157",
      "blockNumber": "0x6ea2c3",
      "gasUsed": "0xb52f",
      "effectiveGasPrice": "0x195fa4d4c8",
      "from": "0xf8f8269488f73fab3935555fcddd6035699dee25",
      "to": "0x1738d721389777450987d158ab96b269c6aab335",
      "contractAddress": null
    }
  ],
  "libraries": [],
  "pending": [],
  "returns": {},
  "timestamp": 1733838644,
  "chain": 11155111,
  "commit": "bcb028c"
}