{
  "transactions": [
    {
      "hash": "0x2f234fa2e60233ca9bdddf60f02d7ddd14dd8d590d6d6d2891686b57af83c761",
      "transactionType": "CALL",
      "contractName": null,
      "contractAddress": "0xda121f1efb5398799d9ddeeddd6d45f8d58f04cd",
      "function": "setRewardTokenAddress(address)",
      "arguments": [
        "0xC15D2A1Fab7A49750f592e88928d60a8Fc49512b"
      ],
      "transaction": {
        "from": "0xf8f8269488f73fab3935555fcddd6035699dee25",
        "to": "0xda121f1efb5398799d9ddeeddd6d45f8d58f04cd",
        "gas": "0xf8a9",
        "value": "0x0",
        "input": "0x9a6acf20000000000000000000000000c15d2a1fab7a49750f592e88928d60a8fc49512b",
        "nonce": "0x604",
        "chainId": "0xaa36a7"
      },
      "additionalContracts": [],
      "isFixedGasLimit": false
    }
  ],
  "receipts": [
    {
      "status": "0x1",
      "cumulativeGasUsed": "0xa023e0",
      "logs": [],
      "logsBloom": "0x00000000000000000000000000000000000000000000000000000000000000000000000000000000000000000000000000000000000000000000000000000000000000000000000000000000000000000000000000000000000000000000000000000000000000000000000000000000000000000000000000000000000000000000000000000000000000000000000000000000000000000000000000000000000000000000000000000000000000000000000000000000000000000000000000000000000000000000000000000000000000000000000000000000000000000000000000000000000000000000000000000000000000000000000000000000",
      "type": "0x0",
      "transactionHash": "0x2f234fa2e60233ca9bdddf60f02d7ddd14dd8d590d6d6d2891686b57af83c761",
      "transactionIndex": "0x65",
      "blockHash": "0xc9bb792c1936e67a9ea78c336182172270ebebc6727950815ecf31f350d83c59",
      "blockNumber": "0x664b47",
      "gasUsed": "0xb407",
      "effectiveGasPrice": "0x13082129b",
      "from": "0xf8f8269488f73fab3935555fcddd6035699dee25",
      "to": "0xda121f1efb5398799d9ddeeddd6d45f8d58f04cd",
      "contractAddress": null
    }
  ],
  "libraries": [],
  "pending": [],
  "returns": {},
  "timestamp": 1726505681,
  "chain": 11155111,
  "commit": "8ae1c48"
}