{
  "transactions": [
    {
      "hash": "0xfccb8c5c58c86669ba91b95866471628bd049570e5dad23b6a33c453b564ee57",
      "transactionType": "CALL",
      "contractName": "TokenManager",
      "contractAddress": "0x16850367598abc5cba08f131a5427cde6e9c57af",
      "function": "totalSupply()",
      "arguments": [],
      "transaction": {
        "from": "0xf8f8269488f73fab3935555fcddd6035699dee25",
        "to": "0x16850367598abc5cba08f131a5427cde6e9c57af",
        "gas": "0xa9e3",
        "value": "0x0",
        "input": "0x18160ddd",
        "nonce": "0x692",
        "chainId": "0xaa36a7"
      },
      "additionalContracts": [],
      "isFixedGasLimit": false
    },
    {
      "hash": "0x62345abc8a560ae946b6919b77c1b9de2e27d51175f1affe842a4e4e3cbe2f7e",
      "transactionType": "CALL",
      "contractName": "TokenManager",
      "contractAddress": "0x16850367598abc5cba08f131a5427cde6e9c57af",
      "function": "balanceOf(address)",
      "arguments": [
        "0xF8f8269488f73fab3935555FCDdD6035699deE25"
      ],
      "transaction": {
        "from": "0xf8f8269488f73fab3935555fcddd6035699dee25",
        "to": "0x16850367598abc5cba08f131a5427cde6e9c57af",
        "gas": "0xadc4",
        "value": "0x0",
        "input": "0x70a08231000000000000000000000000f8f8269488f73fab3935555fcddd6035699dee25",
        "nonce": "0x693",
        "chainId": "0xaa36a7"
      },
      "additionalContracts": [],
      "isFixedGasLimit": false
    }
  ],
  "receipts": [
    {
      "status": "0x1",
      "cumulativeGasUsed": "0x5745a9",
      "logs": [
        {
          "address": "0x16850367598abc5cba08f131a5427cde6e9c57af",
          "topics": [
            "0x91cf34a58a9ed220d9b072639106d1d07251e1791426d2560ab2d6c4ca19a183"
          ],
          "data": "0x00000000000000000000000000000000000000000000d3c21bcecceda1000000",
          "blockHash": "0xcfad974d11b9ba4a868e4f8f9876da1771b6b22fa21314e78f20a52c145fbea4",
          "blockNumber": "0x6d9ff9",
          "transactionHash": "0xfccb8c5c58c86669ba91b95866471628bd049570e5dad23b6a33c453b564ee57",
          "transactionIndex": "0x3d",
          "logIndex": "0x5d",
          "removed": false
        }
      ],
      "logsBloom": "0x00000000000000800000002080000000000000000000000000000000000000000000000000000000000000000000000000000000000000000000000000000000000000000000000000000000000000000000008000000000000000000000000000000000000000000000000000000000000000000000000000000000000000000000000000000000000000000000000000000000000000000000000100000000000000000000000000000000001000000000000000000000000000000000000000000000000000000000000000000000000000000000000000000000000000000000000000000000000000000000000000000000000000000000000000000000",
      "type": "0x0",
      "transactionHash": "0xfccb8c5c58c86669ba91b95866471628bd049570e5dad23b6a33c453b564ee57",
      "transactionIndex": "0x3d",
      "blockHash": "0xcfad974d11b9ba4a868e4f8f9876da1771b6b22fa21314e78f20a52c145fbea4",
      "blockNumber": "0x6d9ff9",
      "gasUsed": "0x742a",
      "effectiveGasPrice": "0x28c973e06",
      "from": "0xf8f8269488f73fab3935555fcddd6035699dee25",
      "to": "0x16850367598abc5cba08f131a5427cde6e9c57af",
      "contractAddress": null
    },
    {
      "status": "0x1",
      "cumulativeGasUsed": "0x57bc7a",
      "logs": [
        {
          "address": "0x16850367598abc5cba08f131a5427cde6e9c57af",
          "topics": [
            "0xb3283e62da596472bfaced2b06c099416a162887a48327e0ffbcb4e682064600"
          ],
          "data": "0x0000000000000000000000000000000000000000000000056bc75e2d63100000",
          "blockHash": "0xcfad974d11b9ba4a868e4f8f9876da1771b6b22fa21314e78f20a52c145fbea4",
          "blockNumber": "0x6d9ff9",
          "transactionHash": "0x62345abc8a560ae946b6919b77c1b9de2e27d51175f1affe842a4e4e3cbe2f7e",
          "transactionIndex": "0x3e",
          "logIndex": "0x5e",
          "removed": false
        }
      ],
      "logsBloom": "0x00000000000000800000002080000000000000000000000000000000000000000000000000000000000000000000000000000000000000000000000000000000000000000000000000000000000000000000000000000000000000000000000000000000000000000000000010000000000000000000000000000000000000000000000000000000000000000000004000000000000000000000000000000000000000000000000000000000000002000000000000000000000000000000000000000000000000000000000000000000000000000000000000000000000000000000000000000000000000000000000000000000000000000000000000000000",
      "type": "0x0",
      "transactionHash": "0x62345abc8a560ae946b6919b77c1b9de2e27d51175f1affe842a4e4e3cbe2f7e",
      "transactionIndex": "0x3e",
      "blockHash": "0xcfad974d11b9ba4a868e4f8f9876da1771b6b22fa21314e78f20a52c145fbea4",
      "blockNumber": "0x6d9ff9",
      "gasUsed": "0x76d1",
      "effectiveGasPrice": "0x28c973e06",
      "from": "0xf8f8269488f73fab3935555fcddd6035699dee25",
      "to": "0x16850367598abc5cba08f131a5427cde6e9c57af",
      "contractAddress": null
    }
  ],
  "libraries": [],
  "pending": [],
  "returns": {},
  "timestamp": 1732984792,
  "chain": 11155111,
  "commit": "bcb028c"
}