{
  "transactions": [
    {
      "hash": "0x7fa0c7918b613d7e29fa09b8750d04e94d2d7cacd1ebe6d53dbe9e548c481d38",
      "transactionType": "CALL",
      "contractName": null,
      "contractAddress": "0x1f6690cc19dfc22ccff08837ff385c976a005bb8",
      "function": "transferFTN(address,uint256)",
      "arguments": [
        "0xF8f8269488f73fab3935555FCDdD6035699deE25",
        "100000000000000000000"
      ],
      "transaction": {
        "from": "0xf8f8269488f73fab3935555fcddd6035699dee25",
        "to": "0x1f6690cc19dfc22ccff08837ff385c976a005bb8",
        "gas": "0x13f63",
        "value": "0x0",
        "input": "0x2bf72e45000000000000000000000000f8f8269488f73fab3935555fcddd6035699dee250000000000000000000000000000000000000000000000056bc75e2d63100000",
        "nonce": "0x6b1",
        "chainId": "0xaa36a7"
      },
      "additionalContracts": [],
      "isFixedGasLimit": false
    }
  ],
  "receipts": [
    {
      "status": "0x1",
      "cumulativeGasUsed": "0x292129",
      "logs": [
        {
          "address": "0x1738d721389777450987d158ab96b269c6aab335",
          "topics": [
            "0xddf252ad1be2c89b69c2b068fc378daa952ba7f163c4a11628f55a4df523b3ef",
            "0x0000000000000000000000001f6690cc19dfc22ccff08837ff385c976a005bb8",
            "0x000000000000000000000000f8f8269488f73fab3935555fcddd6035699dee25"
          ],
          "data": "0x0000000000000000000000000000000000000000000000056bc75e2d63100000",
          "blockHash": "0x11ce7e21b7db2c0d2715f3a832256783a0b5fa5c04bfb37f8f2ad2b71b984d69",
          "blockNumber": "0x6ea2ba",
          "transactionHash": "0x7fa0c7918b613d7e29fa09b8750d04e94d2d7cacd1ebe6d53dbe9e548c481d38",
          "transactionIndex": "0x27",
          "logIndex": "0x50",
          "removed": false
        }
      ],
      "logsBloom": "0x00000000000000000000000000000000000040000000000000000000000000000000000000008000000000000000000000000000000000000000000000000000000000000400080000000008000000000000040000000000000000000000000010000000000000000000000800000000000000000000000000000010200000000000000000000000000000000000000000000000000000000000000000000000000000000000000000000000000000000000000000000008000000000000000000000002000000000000000000000000000000000000000000000000000000000000000000000000000000000000000000000000000000000000000000000000",
      "type": "0x0",
      "transactionHash": "0x7fa0c7918b613d7e29fa09b8750d04e94d2d7cacd1ebe6d53dbe9e548c481d38",
      "transactionIndex": "0x27",
      "blockHash": "0x11ce7e21b7db2c0d2715f3a832256783a0b5fa5c04bfb37f8f2ad2b71b984d69",
      "blockNumber": "0x6ea2ba",
      "gasUsed": "0xe73c",
      "effectiveGasPrice": "0x1afb33c90c",
      "from": "0xf8f8269488f73fab3935555fcddd6035699dee25",
      "to": "0x1f6690cc19dfc22ccff08837ff385c976a005bb8",
      "contractAddress": null
    }
  ],
  "libraries": [],
  "pending": [],
  "returns": {},
  "timestamp": 1733838521,
  "chain": 11155111,
  "commit": "bcb028c"
}