{
  "transactions": [
    {
      "hash": "0x9871c3afab7c8e25ccc799e4c0414ddd8e103145b4a845247381ee99850f8858",
      "transactionType": "CALL",
      "contractName": null,
      "contractAddress": "0xefe03178b22029695b16133c5620d1441cfa561d",
      "function": "setRewardTokenAddress(address)",
      "arguments": [
        "0xfb185B3703D73bf0FE0970B42CBE80609141edab"
      ],
      "transaction": {
        "from": "0xf8f8269488f73fab3935555fcddd6035699dee25",
        "to": "0xefe03178b22029695b16133c5620d1441cfa561d",
        "gas": "0x8d2c",
        "value": "0x0",
        "input": "0x9a6acf20000000000000000000000000fb185b3703d73bf0fe0970b42cbe80609141edab",
        "nonce": "0x62b",
        "chainId": "0xaa36a7"
      },
      "additionalContracts": [],
      "isFixedGasLimit": false
    }
  ],
  "receipts": [
    {
      "status": "0x1",
      "cumulativeGasUsed": "0x2bc471",
      "logs": [],
      "logsBloom": "0x00000000000000000000000000000000000000000000000000000000000000000000000000000000000000000000000000000000000000000000000000000000000000000000000000000000000000000000000000000000000000000000000000000000000000000000000000000000000000000000000000000000000000000000000000000000000000000000000000000000000000000000000000000000000000000000000000000000000000000000000000000000000000000000000000000000000000000000000000000000000000000000000000000000000000000000000000000000000000000000000000000000000000000000000000000000",
      "type": "0x0",
      "transactionHash": "0x9871c3afab7c8e25ccc799e4c0414ddd8e103145b4a845247381ee99850f8858",
      "transactionIndex": "0xa",
      "blockHash": "0xe9019ad72d9d2a8216f15c33e2dbb4af9e62ecf9939e60a4b6670dba7c90510b",
      "blockNumber": "0x66ef9b",
      "gasUsed": "0x6635",
      "effectiveGasPrice": "0x57b3b6d76",
      "from": "0xf8f8269488f73fab3935555fcddd6035699dee25",
      "to": "0xefe03178b22029695b16133c5620d1441cfa561d",
      "contractAddress": null
    }
  ],
  "libraries": [],
  "pending": [],
  "returns": {},
  "timestamp": 1727107517,
  "chain": 11155111,
  "commit": "bf3ceb3"
}