{
  "transactions": [
    {
      "hash": "0x5a372121109616ffa97122d76265fbd234df0f6129740283f80d498a93b1b8ed",
      "transactionType": "CALL",
      "contractName": null,
      "contractAddress": "0x5271c1e08066ef0714bb05026ea7658348976d6c",
      "function": "setLockDropAddress(address)",
      "arguments": [
        "0xA177B1BE699bD5D28e2ADFe88e439F7f899bF9af"
      ],
      "transaction": {
        "from": "0xf8f8269488f73fab3935555fcddd6035699dee25",
        "to": "0x5271c1e08066ef0714bb05026ea7658348976d6c",
        "gas": "0xa5b9",
        "value": "0x0",
        "input": "0xb6e7377d000000000000000000000000a177b1be699bd5d28e2adfe88e439f7f899bf9af",
        "nonce": "0x6c0",
        "chainId": "0xaa36a7"
      },
      "additionalContracts": [],
      "isFixedGasLimit": false
    },
    {
      "hash": "0x6f32f7b652eee063d3c9710ec401a2270ad003afed7d476415f1876d420cea5b",
      "transactionType": "CALL",
      "contractName": null,
      "contractAddress": "0x5271c1e08066ef0714bb05026ea7658348976d6c",
      "function": "setRewardTokenAddress(address)",
      "arguments": [
        "0x67fAe43194FBDDBB79d396Bd7813cA1d7478d6Eb"
      ],
      "transaction": {
        "from": "0xf8f8269488f73fab3935555fcddd6035699dee25",
        "to": "0x5271c1e08066ef0714bb05026ea7658348976d6c",
        "gas": "0x959a",
        "value": "0x0",
        "input": "0x9a6acf2000000000000000000000000067fae43194fbddbb79d396bd7813ca1d7478d6eb",
        "nonce": "0x6c1",
        "chainId": "0xaa36a7"
      },
      "additionalContracts": [],
      "isFixedGasLimit": false
    }
  ],
  "receipts": [
    {
      "status": "0x1",
      "cumulativeGasUsed": "0x3f9b2a",
      "logs": [],
      "logsBloom": "0x00000000000000000000000000000000000000000000000000000000000000000000000000000000000000000000000000000000000000000000000000000000000000000000000000000000000000000000000000000000000000000000000000000000000000000000000000000000000000000000000000000000000000000000000000000000000000000000000000000000000000000000000000000000000000000000000000000000000000000000000000000000000000000000000000000000000000000000000000000000000000000000000000000000000000000000000000000000000000000000000000000000000000000000000000000000",
      "type": "0x0",
      "transactionHash": "0x5a372121109616ffa97122d76265fbd234df0f6129740283f80d498a93b1b8ed",
      "transactionIndex": "0xe",
      "blockHash": "0xc479ea85b964705c147f37ff84db12f6cdf8d12c0a486afe29c90a2de5bc17f8",
      "blockNumber": "0x6ea682",
      "gasUsed": "0x7151",
      "effectiveGasPrice": "0xe542f7ad4",
      "from": "0xf8f8269488f73fab3935555fcddd6035699dee25",
      "to": "0x5271c1e08066ef0714bb05026ea7658348976d6c",
      "contractAddress": null
    },
    {
      "status": "0x1",
      "cumulativeGasUsed": "0x400175",
      "logs": [],
      "logsBloom": "0x00000000000000000000000000000000000000000000000000000000000000000000000000000000000000000000000000000000000000000000000000000000000000000000000000000000000000000000000000000000000000000000000000000000000000000000000000000000000000000000000000000000000000000000000000000000000000000000000000000000000000000000000000000000000000000000000000000000000000000000000000000000000000000000000000000000000000000000000000000000000000000000000000000000000000000000000000000000000000000000000000000000000000000000000000000000",
      "type": "0x0",
      "transactionHash": "0x6f32f7b652eee063d3c9710ec401a2270ad003afed7d476415f1876d420cea5b",
      "transactionIndex": "0xf",
      "blockHash": "0xc479ea85b964705c147f37ff84db12f6cdf8d12c0a486afe29c90a2de5bc17f8",
      "blockNumber": "0x6ea682",
      "gasUsed": "0x664b",
      "effectiveGasPrice": "0xe542f7ad4",
      "from": "0xf8f8269488f73fab3935555fcddd6035699dee25",
      "to": "0x5271c1e08066ef0714bb05026ea7658348976d6c",
      "contractAddress": null
    }
  ],
  "libraries": [],
  "pending": [],
  "returns": {},
  "timestamp": 1733850881,
  "chain": 11155111,
  "commit": "bcb028c"
}