{
  "transactions": [
    {
      "hash": "0x74a92e6623c222d17d1a576ff9d27f02ce4f6db0e7abe27be5bacb0002eca85f",
      "transactionType": "CALL",
      "contractName": null,
      "contractAddress": "0x2421836f9a34d67ec2e593c4c93432becd638ced",
      "function": "setRewardTokenAddress(address)",
      "arguments": [
        "0x34Fe24b11AA190A501a055D873b3CfB42918e2d1"
      ],
      "transaction": {
        "from": "0xf8f8269488f73fab3935555fcddd6035699dee25",
        "to": "0x2421836f9a34d67ec2e593c4c93432becd638ced",
        "gas": "0x1078a",
        "value": "0x0",
        "input": "0x9a6acf2000000000000000000000000034fe24b11aa190a501a055d873b3cfb42918e2d1",
        "nonce": "0x65b",
        "chainId": "0xaa36a7"
      },
      "additionalContracts": [],
      "isFixedGasLimit": false
    }
  ],
  "receipts": [
    {
      "status": "0x1",
      "cumulativeGasUsed": "0x36539a",
      "logs": [],
      "logsBloom": "0x00000000000000000000000000000000000000000000000000000000000000000000000000000000000000000000000000000000000000000000000000000000000000000000000000000000000000000000000000000000000000000000000000000000000000000000000000000000000000000000000000000000000000000000000000000000000000000000000000000000000000000000000000000000000000000000000000000000000000000000000000000000000000000000000000000000000000000000000000000000000000000000000000000000000000000000000000000000000000000000000000000000000000000000000000000000",
      "type": "0x0",
      "transactionHash": "0x74a92e6623c222d17d1a576ff9d27f02ce4f6db0e7abe27be5bacb0002eca85f",
      "transactionIndex": "0xb",
      "blockHash": "0x9e9f87ff836d3b71b94abfe77ec60847b0aa4ba13fe6aa78473bc9c94055e7fa",
      "blockNumber": "0x674acc",
      "gasUsed": "0xb433",
      "effectiveGasPrice": "0x280b4542c9",
      "from": "0xf8f8269488f73fab3935555fcddd6035699dee25",
      "to": "0x2421836f9a34d67ec2e593c4c93432becd638ced",
      "contractAddress": null
    }
  ],
  "libraries": [],
  "pending": [],
  "returns": {},
  "timestamp": 1727444632,
  "chain": 11155111,
  "commit": "48b2bab"
}