{
  "transactions": [
    {
      "hash": "0xc6927c0516a56d285242cfac2615b533bcd47d3ce9626bf8c4785c25ace64df0",
      "transactionType": "CALL",
      "contractName": null,
      "contractAddress": "0x16850367598abc5cba08f131a5427cde6e9c57af",
      "function": "setRewardTokenAddress(address)",
      "arguments": [
        "0xF3C6eA5f089d2B8853BE82a27C82D13bf48FcEBE"
      ],
      "transaction": {
        "from": "0xf8f8269488f73fab3935555fcddd6035699dee25",
        "to": "0x16850367598abc5cba08f131a5427cde6e9c57af",
        "gas": "0xf8a9",
        "value": "0x0",
        "input": "0x9a6acf20000000000000000000000000f3c6ea5f089d2b8853be82a27c82d13bf48fcebe",
        "nonce": "0x68b",
        "chainId": "0xaa36a7"
      },
      "additionalContracts": [],
      "isFixedGasLimit": false
    }
  ],
  "receipts": [
    {
      "status": "0x1",
      "cumulativeGasUsed": "0x4fb6ee",
      "logs": [],
      "logsBloom": "0x00000000000000000000000000000000000000000000000000000000000000000000000000000000000000000000000000000000000000000000000000000000000000000000000000000000000000000000000000000000000000000000000000000000000000000000000000000000000000000000000000000000000000000000000000000000000000000000000000000000000000000000000000000000000000000000000000000000000000000000000000000000000000000000000000000000000000000000000000000000000000000000000000000000000000000000000000000000000000000000000000000000000000000000000000000000",
      "type": "0x0",
      "transactionHash": "0xc6927c0516a56d285242cfac2615b533bcd47d3ce9626bf8c4785c25ace64df0",
      "transactionIndex": "0x3f",
      "blockHash": "0x51e9151536ba66c5743d934edbee26d9bbcfa4de58e04b6e7d924caf8c3c28ef",
      "blockNumber": "0x6d8485",
      "gasUsed": "0xb407",
      "effectiveGasPrice": "0x330856176",
      "from": "0xf8f8269488f73fab3935555fcddd6035699dee25",
      "to": "0x16850367598abc5cba08f131a5427cde6e9c57af",
      "contractAddress": null
    }
  ],
  "libraries": [],
  "pending": [],
  "returns": {},
  "timestamp": 1732890655,
  "chain": 11155111,
  "commit": "bcb028c"
}