{
  "transactions": [
    {
      "hash": "0xf0652745d06c614478951ec1319e1a01da19e0263a7e265e7adba2887df7472e",
      "transactionType": "CALL",
      "contractName": "TokenManager",
      "contractAddress": "0x48eae783a2afbf868362d8deb6329745b11730c7",
      "function": "transfer(address,uint256)",
      "arguments": [
        "0xF8f8269488f73fab3935555FCDdD6035699deE25",
        "17000000000000000000"
      ],
      "transaction": {
        "from": "0xf8f8269488f73fab3935555fcddd6035699dee25",
        "to": "0x48eae783a2afbf868362d8deb6329745b11730c7",
        "gas": "0xf08a",
        "value": "0x0",
        "input": "0xa9059cbb000000000000000000000000f8f8269488f73fab3935555fcddd6035699dee25000000000000000000000000000000000000000000000000ebec21ee1da40000",
        "nonce": "0x66d",
        "chainId": "0xaa36a7"
      },
      "additionalContracts": [],
      "isFixedGasLimit": false
    }
  ],
  "receipts": [
    {
      "status": "0x1",
      "cumulativeGasUsed": "0x185038",
      "logs": [
        {
          "address": "0xc38b87672eeac39fee0d439a71b4a43efd3651eb",
          "topics": [
            "0xddf252ad1be2c89b69c2b068fc378daa952ba7f163c4a11628f55a4df523b3ef",
            "0x00000000000000000000000048eae783a2afbf868362d8deb6329745b11730c7",
            "0x000000000000000000000000f8f8269488f73fab3935555fcddd6035699dee25"
          ],
          "data": "0x000000000000000000000000000000000000000000000000ebec21ee1da40000",
          "blockHash": "0x45238153c9451b7c8bccf9437dc554044a25bfc865cd4fc08bc88fbe46bde824",
          "blockNumber": "0x6793a0",
          "transactionHash": "0xf0652745d06c614478951ec1319e1a01da19e0263a7e265e7adba2887df7472e",
          "transactionIndex": "0x1f",
          "logIndex": "0x12",
          "removed": false
        }
      ],
      "logsBloom": "0x00000000000000000000000000000000000000000000000000000000000200000000000200000000000000000000000000000000000000000000008000000000000000000000080000000008000000000000040000000000000000000000000010000000000000000000000000000000000000000000000000000010000000000000000000000000000000000000000000000000000800000000000000000000000000000000000000000000000000000000000000000000000000000000000001000002000000000000000000000000000000000000000000020000000000000000000000000000000000000000000000000000000000000000000000000000",
      "type": "0x0",
      "transactionHash": "0xf0652745d06c614478951ec1319e1a01da19e0263a7e265e7adba2887df7472e",
      "transactionIndex": "0x1f",
      "blockHash": "0x45238153c9451b7c8bccf9437dc554044a25bfc865cd4fc08bc88fbe46bde824",
      "blockNumber": "0x6793a0",
      "gasUsed": "0xa479",
      "effectiveGasPrice": "0x354645b3d6",
      "from": "0xf8f8269488f73fab3935555fcddd6035699dee25",
      "to": "0x48eae783a2afbf868362d8deb6329745b11730c7",
      "contractAddress": null
    }
  ],
  "libraries": [],
  "pending": [],
  "returns": {},
  "timestamp": 1727702346,
  "chain": 11155111,
  "commit": "48b2bab"
}