{
  "transactions": [
    {
      "hash": "0xe95a98ebb0d5fb576846769448cbf9a3c68fc68c854732c261ca049c17e20f4d",
      "transactionType": "CALL",
      "contractName": null,
      "contractAddress": "0x2421836f9a34d67ec2e593c4c93432becd638ced",
      "function": "transfer(uint256)",
      "arguments": [
        "27000000000000000000"
      ],
      "transaction": {
        "from": "0xf8f8269488f73fab3935555fcddd6035699dee25",
        "to": "0x2421836f9a34d67ec2e593c4c93432becd638ced",
        "gas": "0x13ccd",
        "value": "0x0",
        "input": "0x12514bba00000000000000000000000000000000000000000000000176b344f2a78c0000",
        "nonce": "0x65e",
        "chainId": "0xaa36a7"
      },
      "additionalContracts": [],
      "isFixedGasLimit": false
    }
  ],
  "receipts": [
    {
      "status": "0x1",
      "cumulativeGasUsed": "0x8e641",
      "logs": [
        {
          "address": "0x34fe24b11aa190a501a055d873b3cfb42918e2d1",
          "topics": [
            "0xddf252ad1be2c89b69c2b068fc378daa952ba7f163c4a11628f55a4df523b3ef",
            "0x0000000000000000000000002421836f9a34d67ec2e593c4c93432becd638ced",
            "0x000000000000000000000000f8f8269488f73fab3935555fcddd6035699dee25"
          ],
          "data": "0x00000000000000000000000000000000000000000000000176b344f2a78c0000",
          "blockHash": "0xd60c56d9a91a6cabab64d11f1d287505f05491096c8015003c330ce53297ca8b",
          "blockNumber": "0x674b05",
          "transactionHash": "0xe95a98ebb0d5fb576846769448cbf9a3c68fc68c854732c261ca049c17e20f4d",
          "transactionIndex": "0x7",
          "logIndex": "0xa",
          "removed": false
        }
      ],
      "logsBloom": "0x00000000000000000000000000000000000000000000000000000100000000000000000000000000000000000000000000000000000040000000000000000000000000000000080000000008000000000000040000000000000000000000000010000000000000000000000004000000000000004000000000000010000000000002000000000000000000000000000000000000000000000000000000000000000000000000000000000000000000000000000000000000000000000000000000000002000000000000000000000000000000002000000000000000000000000000000000000000000000000000000000000000000000000000000000000000",
      "type": "0x0",
      "transactionHash": "0xe95a98ebb0d5fb576846769448cbf9a3c68fc68c854732c261ca049c17e20f4d",
      "transactionIndex": "0x7",
      "blockHash": "0xd60c56d9a91a6cabab64d11f1d287505f05491096c8015003c330ce53297ca8b",
      "blockNumber": "0x674b05",
      "gasUsed": "0xe55d",
      "effectiveGasPrice": "0x2cfb9f10c2",
      "from": "0xf8f8269488f73fab3935555fcddd6035699dee25",
      "to": "0x2421836f9a34d67ec2e593c4c93432becd638ced",
      "contractAddress": null
    }
  ],
  "libraries": [],
  "pending": [],
  "returns": {},
  "timestamp": 1727445397,
  "chain": 11155111,
  "commit": "48b2bab"
}