{
  "transactions": [
    {
      "hash": "0xb7527856f25033a6db37bf0dfb826ef90088d05978044cb931b99a21fdffaa7c",
      "transactionType": "CALL",
      "contractName": null,
      "contractAddress": "0x48eae783a2afbf868362d8deb6329745b11730c7",
      "function": "allowance(address,address)",
      "arguments": [
        "0xF8f8269488f73fab3935555FCDdD6035699deE25",
        "0x48eaE783A2aFBf868362d8deb6329745B11730c7"
      ],
      "transaction": {
        "from": "0xf8f8269488f73fab3935555fcddd6035699dee25",
        "to": "0x48eae783a2afbf868362d8deb6329745b11730c7",
        "gas": "0xabc7",
        "value": "0x0",
        "input": "0xdd62ed3e000000000000000000000000f8f8269488f73fab3935555fcddd6035699dee2500000000000000000000000048eae783a2afbf868362d8deb6329745b11730c7",
        "nonce": "0x667",
        "chainId": "0xaa36a7"
      },
      "additionalContracts": [],
      "isFixedGasLimit": false
    }
  ],
  "receipts": [
    {
      "status": "0x1",
      "cumulativeGasUsed": "0x4b1016",
      "logs": [
        {
          "address": "0x48eae783a2afbf868362d8deb6329745b11730c7",
          "topics": [
            "0xf0c939eb6a826391911442cba6d5a67238ac3d6ef13e3398f5def320a9629c50"
          ],
          "data": "0x000000000000000000000000f8f8269488f73fab3935555fcddd6035699dee2500000000000000000000000048eae783a2afbf868362d8deb6329745b11730c70000000000000000000000000000000000000000000000000000000000000000",
          "blockHash": "0xad2d79885187a3d7106abf82c8c68c9224d4a4ce13212f56ac702076f3d83121",
          "blockNumber": "0x674cbe",
          "transactionHash": "0xb7527856f25033a6db37bf0dfb826ef90088d05978044cb931b99a21fdffaa7c",
          "transactionIndex": "0x9",
          "logIndex": "0x3",
          "removed": false
        }
      ],
      "logsBloom": "0x00000000000000000000000000000004000000000000000000000000000000000000000000000000000000000000000000000000000000000000000000000000000000000000000000000000000000000000000000000004000000000000000040000000000000000000000000000000000002000000000000000000000000000000000000000000000000000040000000000000000000000000000000000000000000000000000000000000000000000000000000000000000000000000000000000000000000000004000000000000000000000000000000000000000000000000000000000000000000000000000000000000000000000000000000000000",
      "type": "0x0",
      "transactionHash": "0xb7527856f25033a6db37bf0dfb826ef90088d05978044cb931b99a21fdffaa7c",
      "transactionIndex": "0x9",
      "blockHash": "0xad2d79885187a3d7106abf82c8c68c9224d4a4ce13212f56ac702076f3d83121",
      "blockNumber": "0x674cbe",
      "gasUsed": "0x7c5e",
      "effectiveGasPrice": "0x3a21796b8f",
      "from": "0xf8f8269488f73fab3935555fcddd6035699dee25",
      "to": "0x48eae783a2afbf868362d8deb6329745b11730c7",
      "contractAddress": null
    }
  ],
  "libraries": [],
  "pending": [],
  "returns": {},
  "timestamp": 1727452003,
  "chain": 11155111,
  "commit": "48b2bab"
}