{
  "transactions": [
    {
      "hash": "0x21f3254250668fd17bb23f806e5f03e470e8ada1252d9e8df7f89ddad39e676f",
      "transactionType": "CALL",
      "contractName": null,
      "contractAddress": "0x149bda9c8d49d5756dbee78ebbc7f9a14f227d2d",
      "function": "setRewardTokenAddress(address)",
      "arguments": [
        "0x03Af5d2755E8120dAcc8f8599285d769E1Fff673"
      ],
      "transaction": {
        "from": "0xf8f8269488f73fab3935555fcddd6035699dee25",
        "to": "0x149bda9c8d49d5756dbee78ebbc7f9a14f227d2d",
        "gas": "0xf8a9",
        "value": "0x0",
        "input": "0x9a6acf2000000000000000000000000003af5d2755e8120dacc8f8599285d769e1fff673",
        "nonce": "0x642",
        "chainId": "0xaa36a7"
      },
      "additionalContracts": [],
      "isFixedGasLimit": false
    }
  ],
  "receipts": [
    {
      "status": "0x1",
      "cumulativeGasUsed": "0x16508f",
      "logs": [],
      "logsBloom": "0x00000000000000000000000000000000000000000000000000000000000000000000000000000000000000000000000000000000000000000000000000000000000000000000000000000000000000000000000000000000000000000000000000000000000000000000000000000000000000000000000000000000000000000000000000000000000000000000000000000000000000000000000000000000000000000000000000000000000000000000000000000000000000000000000000000000000000000000000000000000000000000000000000000000000000000000000000000000000000000000000000000000000000000000000000000000",
      "type": "0x0",
      "transactionHash": "0x21f3254250668fd17bb23f806e5f03e470e8ada1252d9e8df7f89ddad39e676f",
      "transactionIndex": "0xd",
      "blockHash": "0x4fb0eb3ddc02fb3e7f9e4097d051c84a4fb195f897459a03c9753324dbe0be71",
      "blockNumber": "0x670778",
      "gasUsed": "0xb407",
      "effectiveGasPrice": "0x2b1d469fa8",
      "from": "0xf8f8269488f73fab3935555fcddd6035699dee25",
      "to": "0x149bda9c8d49d5756dbee78ebbc7f9a14f227d2d",
      "contractAddress": null
    }
  ],
  "libraries": [],
  "pending": [],
  "returns": {},
  "timestamp": 1727196096,
  "chain": 11155111,
  "commit": "bf3ceb3"
}