{
  "transactions": [
    {
      "hash": "0x14dc6adaccb19a2082d8959bc10adf357a842bbd6112b73a9c6580efb640d0fd",
      "transactionType": "CALL",
      "contractName": null,
      "contractAddress": "0x5271c1e08066ef0714bb05026ea7658348976d6c",
      "function": "setLockDropAddress(address)",
      "arguments": [
        "0x4ddAfD15B5404e6dB94ACB34A4993F5Bd7316D86"
      ],
      "transaction": {
        "from": "0xf8f8269488f73fab3935555fcddd6035699dee25",
        "to": "0x5271c1e08066ef0714bb05026ea7658348976d6c",
        "gas": "0xf8c7",
        "value": "0x0",
        "input": "0xb6e7377d0000000000000000000000004ddafd15b5404e6db94acb34a4993f5bd7316d86",
        "nonce": "0x6b8",
        "chainId": "0xaa36a7"
      },
      "additionalContracts": [],
      "isFixedGasLimit": false
    },
    {
      "hash": "0xd363744cb0fc6dff5feae02cfed09841af9e3f29e92468fd4e04ae8a8bff1a79",
      "transactionType": "CALL",
      "contractName": null,
      "contractAddress": "0x5271c1e08066ef0714bb05026ea7658348976d6c",
      "function": "setRewardTokenAddress(address)",
      "arguments": [
        "0x67fAe43194FBDDBB79d396Bd7813cA1d7478d6Eb"
      ],
      "transaction": {
        "from": "0xf8f8269488f73fab3935555fcddd6035699dee25",
        "to": "0x5271c1e08066ef0714bb05026ea7658348976d6c",
        "gas": "0xf8a9",
        "value": "0x0",
        "input": "0x9a6acf2000000000000000000000000067fae43194fbddbb79d396bd7813ca1d7478d6eb",
        "nonce": "0x6b9",
        "chainId": "0xaa36a7"
      },
      "additionalContracts": [],
      "isFixedGasLimit": false
    }
  ],
  "receipts": [
    {
      "status": "0x1",
      "cumulativeGasUsed": "0x800893",
      "logs": [],
      "logsBloom": "0x00000000000000000000000000000000000000000000000000000000000000000000000000000000000000000000000000000000000000000000000000000000000000000000000000000000000000000000000000000000000000000000000000000000000000000000000000000000000000000000000000000000000000000000000000000000000000000000000000000000000000000000000000000000000000000000000000000000000000000000000000000000000000000000000000000000000000000000000000000000000000000000000000000000000000000000000000000000000000000000000000000000000000000000000000000000",
      "type": "0x0",
      "transactionHash": "0x14dc6adaccb19a2082d8959bc10adf357a842bbd6112b73a9c6580efb640d0fd",
      "transactionIndex": "0x22",
      "blockHash": "0x7c08dba3bf07dd2029186903640b014017a0802541d9d5c38574642a4482fbca",
      "blockNumber": "0x6ea5a4",
      "gasUsed": "0xb41d",
      "effectiveGasPrice": "0x2276ce6504",
      "from": "0xf8f8269488f73fab3935555fcddd6035699dee25",
      "to": "0x5271c1e08066ef0714bb05026ea7658348976d6c",
      "contractAddress": null
    },
    {
      "status": "0x1",
      "cumulativeGasUsed": "0x8171e0",
      "logs": [],
      "logsBloom": "0x00000000000000000000000000000000000000000000000000000000000000000000000000000000000000000000000000000000000000000000000000000000000000000000000000000000000000000000000000000000000000000000000000000000000000000000000000000000000000000000000000000000000000000000000000000000000000000000000000000000000000000000000000000000000000000000000000000000000000000000000000000000000000000000000000000000000000000000000000000000000000000000000000000000000000000000000000000000000000000000000000000000000000000000000000000000",
      "type": "0x0",
      "transactionHash": "0xd363744cb0fc6dff5feae02cfed09841af9e3f29e92468fd4e04ae8a8bff1a79",
      "transactionIndex": "0x24",
      "blockHash": "0x7c08dba3bf07dd2029186903640b014017a0802541d9d5c38574642a4482fbca",
      "blockNumber": "0x6ea5a4",
      "gasUsed": "0xb407",
      "effectiveGasPrice": "0x2276ce6504",
      "from": "0xf8f8269488f73fab3935555fcddd6035699dee25",
      "to": "0x5271c1e08066ef0714bb05026ea7658348976d6c",
      "contractAddress": null
    }
  ],
  "libraries": [],
  "pending": [],
  "returns": {},
  "timestamp": 1733848092,
  "chain": 11155111,
  "commit": "bcb028c"
}