{
  "transactions": [
    {
      "hash": "0x535821ac5cd67790bfa20573b43b5e06849a285944014a0ba9459ac3babac84c",
      "transactionType": "CALL",
      "contractName": null,
      "contractAddress": "0x48eae783a2afbf868362d8deb6329745b11730c7",
      "function": "approve(address,uint256)",
      "arguments": [
        "0x48eaE783A2aFBf868362d8deb6329745B11730c7",
        "17000000000000000000"
      ],
      "transaction": {
        "from": "0xf8f8269488f73fab3935555fcddd6035699dee25",
        "to": "0x48eae783a2afbf868362d8deb6329745b11730c7",
        "gas": "0x11e77",
        "value": "0x0",
        "input": "0x095ea7b300000000000000000000000048eae783a2afbf868362d8deb6329745b11730c7000000000000000000000000000000000000000000000000ebec21ee1da40000",
        "nonce": "0x666",
        "chainId": "0xaa36a7"
      },
      "additionalContracts": [],
      "isFixedGasLimit": false
    }
  ],
  "receipts": [
    {
      "status": "0x1",
      "cumulativeGasUsed": "0x684ac9",
      "logs": [
        {
          "address": "0xc38b87672eeac39fee0d439a71b4a43efd3651eb",
          "topics": [
            "0x8c5be1e5ebec7d5bd14f71427d1e84f3dd0314c0f7b2291e5b200ac8c7c3b925",
            "0x00000000000000000000000048eae783a2afbf868362d8deb6329745b11730c7",
            "0x00000000000000000000000048eae783a2afbf868362d8deb6329745b11730c7"
          ],
          "data": "0x000000000000000000000000000000000000000000000000ebec21ee1da40000",
          "blockHash": "0x0793df2aa4cab5c2c68255db374c3334446e41c5bc354c7cd3266e56f35c560f",
          "blockNumber": "0x674cb3",
          "transactionHash": "0x535821ac5cd67790bfa20573b43b5e06849a285944014a0ba9459ac3babac84c",
          "transactionIndex": "0x19",
          "logIndex": "0x29",
          "removed": false
        },
        {
          "address": "0x48eae783a2afbf868362d8deb6329745b11730c7",
          "topics": [
            "0x5ce43afe232e63de92204e26c39b9939659c93e7f377506a7a6699b204be8ac7"
          ],
          "data": "0x00000000000000000000000048eae783a2afbf868362d8deb6329745b11730c7000000000000000000000000000000000000000000000000ebec21ee1da40000",
          "blockHash": "0x0793df2aa4cab5c2c68255db374c3334446e41c5bc354c7cd3266e56f35c560f",
          "blockNumber": "0x674cb3",
          "transactionHash": "0x535821ac5cd67790bfa20573b43b5e06849a285944014a0ba9459ac3babac84c",
          "transactionIndex": "0x19",
          "logIndex": "0x2a",
          "removed": false
        }
      ],
      "logsBloom": "0x00000000000000000000000000000004000000000000000000020000000200000000000200000000000000000000000000000000000000000000008000200000000000000000000000000000000000000000000000000000000000000000000040000000000000000000000000000000000400000000000000000000000000000000000000000000000000000000000000000000000800000000000000000000020000000000000000000040000000000000000000000000000000000000000001000000000000000004000000000000000000000000000000020000000000000010000000000000000000000000000000000000000000000000000000000000",
      "type": "0x0",
      "transactionHash": "0x535821ac5cd67790bfa20573b43b5e06849a285944014a0ba9459ac3babac84c",
      "transactionIndex": "0x19",
      "blockHash": "0x0793df2aa4cab5c2c68255db374c3334446e41c5bc354c7cd3266e56f35c560f",
      "blockNumber": "0x674cb3",
      "gasUsed": "0xcf66",
      "effectiveGasPrice": "0x3edfab69dc",
      "from": "0xf8f8269488f73fab3935555fcddd6035699dee25",
      "to": "0x48eae783a2afbf868362d8deb6329745b11730c7",
      "contractAddress": null
    }
  ],
  "libraries": [],
  "pending": [],
  "returns": {},
  "timestamp": 1727451846,
  "chain": 11155111,
  "commit": "48b2bab"
}