{
  "transactions": [
    {
      "hash": "0x670778fde78812e5bb87443486f2c32c75b9d6ce8a9d99e5d3fc79542a9dacc5",
      "transactionType": "CALL",
      "contractName": null,
      "contractAddress": "0xb2e381f5f4763fb7cabe730277411c39a1c0c112",
      "function": "setRewardTokenAddress(address)",
      "arguments": [
        "0x2CAcE9EB7e30f596546c6C5E6b4bca0489d02a89"
      ],
      "transaction": {
        "from": "0xf8f8269488f73fab3935555fcddd6035699dee25",
        "to": "0xb2e381f5f4763fb7cabe730277411c39a1c0c112",
        "gas": "0xf8a9",
        "value": "0x0",
        "input": "0x9a6acf200000000000000000000000002cace9eb7e30f596546c6c5e6b4bca0489d02a89",
        "nonce": "0x64e",
        "chainId": "0xaa36a7"
      },
      "additionalContracts": [],
      "isFixedGasLimit": false
    }
  ],
  "receipts": [
    {
      "status": "0x1",
      "cumulativeGasUsed": "0x82c9e4",
      "logs": [],
      "logsBloom": "0x00000000000000000000000000000000000000000000000000000000000000000000000000000000000000000000000000000000000000000000000000000000000000000000000000000000000000000000000000000000000000000000000000000000000000000000000000000000000000000000000000000000000000000000000000000000000000000000000000000000000000000000000000000000000000000000000000000000000000000000000000000000000000000000000000000000000000000000000000000000000000000000000000000000000000000000000000000000000000000000000000000000000000000000000000000000",
      "type": "0x0",
      "transactionHash": "0x670778fde78812e5bb87443486f2c32c75b9d6ce8a9d99e5d3fc79542a9dacc5",
      "transactionIndex": "0x14",
      "blockHash": "0xa2ab82e9e7a3565253e5936e01ebd85a68fab9e01afc1f147b52b4f2cc030389",
      "blockNumber": "0x671ad4",
      "gasUsed": "0xb407",
      "effectiveGasPrice": "0x6a2c05601e",
      "from": "0xf8f8269488f73fab3935555fcddd6035699dee25",
      "to": "0xb2e381f5f4763fb7cabe730277411c39a1c0c112",
      "contractAddress": null
    }
  ],
  "libraries": [],
  "pending": [],
  "returns": {},
  "timestamp": 1727268276,
  "chain": 11155111,
  "commit": "bf3ceb3"
}