{
  "transactions": [
    {
      "hash": "0x4d775e755d5e1dc7bbd3a80edd7ff997e48cc057d3483fd5dc6dc1ae586c26f6",
      "transactionType": "CALL",
      "contractName": null,
      "contractAddress": "0x67fae43194fbddbb79d396bd7813ca1d7478d6eb",
      "function": "approve(address,uint256)",
      "arguments": [
        "0x4ddAfD15B5404e6dB94ACB34A4993F5Bd7316D86",
        "40000000000000000000"
      ],
      "transaction": {
        "from": "0xf8f8269488f73fab3935555fcddd6035699dee25",
        "to": "0x67fae43194fbddbb79d396bd7813ca1d7478d6eb",
        "gas": "0xfa41",
        "value": "0x0",
        "input": "0x095ea7b30000000000000000000000004ddafd15b5404e6db94acb34a4993f5bd7316d860000000000000000000000000000000000000000000000022b1c8c1227a00000",
        "nonce": "0x6bd",
        "chainId": "0xaa36a7"
      },
      "additionalContracts": [],
      "isFixedGasLimit": false
    }
  ],
  "receipts": [
    {
      "status": "0x1",
      "cumulativeGasUsed": "0x43ebe9",
      "logs": [
        {
          "address": "0x67fae43194fbddbb79d396bd7813ca1d7478d6eb",
          "topics": [
            "0x8c5be1e5ebec7d5bd14f71427d1e84f3dd0314c0f7b2291e5b200ac8c7c3b925",
            "0x000000000000000000000000f8f8269488f73fab3935555fcddd6035699dee25",
            "0x0000000000000000000000004ddafd15b5404e6db94acb34a4993f5bd7316d86"
          ],
          "data": "0x0000000000000000000000000000000000000000000000022b1c8c1227a00000",
          "blockHash": "0x1a54aaa30a78be23c167cd5e78722d01c0f53bf05c95b017a4967475c155dace",
          "blockNumber": "0x6ea623",
          "transactionHash": "0x4d775e755d5e1dc7bbd3a80edd7ff997e48cc057d3483fd5dc6dc1ae586c26f6",
          "transactionIndex": "0x17",
          "logIndex": "0x58",
          "removed": false
        }
      ],
      "logsBloom": "0x10000000000000000000000000200000000000000000000000000000000000000000000000000000000000000000000000000000000000000000000400200000000000000000080000000000100000000000040000000000000000000000000010000000000000000000000000000000000000000000000000000000000000000020000000000000000000000000000000000000000000000000000000000000020000000000000000000000000000000000000000000000000000000000000000000000000000000000000000000000000000000000000000000000000000000010000000000000000000000000000000000000000000000002000000000000",
      "type": "0x0",
      "transactionHash": "0x4d775e755d5e1dc7bbd3a80edd7ff997e48cc057d3483fd5dc6dc1ae586c26f6",
      "transactionIndex": "0x17",
      "blockHash": "0x1a54aaa30a78be23c167cd5e78722d01c0f53bf05c95b017a4967475c155dace",
      "blockNumber": "0x6ea623",
      "gasUsed": "0xb52f",
      "effectiveGasPrice": "0x1acfd6278d",
      "from": "0xf8f8269488f73fab3935555fcddd6035699dee25",
      "to": "0x67fae43194fbddbb79d396bd7813ca1d7478d6eb",
      "contractAddress": null
    }
  ],
  "libraries": [],
  "pending": [],
  "returns": {},
  "timestamp": 1733849743,
  "chain": 11155111,
  "commit": "bcb028c"
}