{
  "transactions": [
    {
      "hash": "0x6dfe00c9635fa61f35a6d9993eceba9c0289ca053fac3096f39d1704da54762e",
      "transactionType": "CALL",
      "contractName": null,
      "contractAddress": "0xf1a792ca5bd4d60585c8e46b41f22d1b03dcbe30",
      "function": "setRewardTokenAddress(address)",
      "arguments": [
        "0x72BCa724F188c4840001dc392aB018016b6DB428"
      ],
      "transaction": {
        "from": "0xf8f8269488f73fab3935555fcddd6035699dee25",
        "to": "0xf1a792ca5bd4d60585c8e46b41f22d1b03dcbe30",
        "gas": "0x10738",
        "value": "0x0",
        "input": "0x9a6acf2000000000000000000000000072bca724f188c4840001dc392ab018016b6db428",
        "nonce": "0x62f",
        "chainId": "0xaa36a7"
      },
      "additionalContracts": [],
      "isFixedGasLimit": false
    }
  ],
  "receipts": [
    {
      "status": "0x1",
      "cumulativeGasUsed": "0xbf1211",
      "logs": [],
      "logsBloom": "0x00000000000000000000000000000000000000000000000000000000000000000000000000000000000000000000000000000000000000000000000000000000000000000000000000000000000000000000000000000000000000000000000000000000000000000000000000000000000000000000000000000000000000000000000000000000000000000000000000000000000000000000000000000000000000000000000000000000000000000000000000000000000000000000000000000000000000000000000000000000000000000000000000000000000000000000000000000000000000000000000000000000000000000000000000000000",
      "type": "0x0",
      "transactionHash": "0x6dfe00c9635fa61f35a6d9993eceba9c0289ca053fac3096f39d1704da54762e",
      "transactionIndex": "0x3d",
      "blockHash": "0xb5a7540501a289f526a672dd28551b288383af61da3b070f88d29a07b3501ad1",
      "blockNumber": "0x670111",
      "gasUsed": "0xb3fb",
      "effectiveGasPrice": "0x4d9810a1d",
      "from": "0xf8f8269488f73fab3935555fcddd6035699dee25",
      "to": "0xf1a792ca5bd4d60585c8e46b41f22d1b03dcbe30",
      "contractAddress": null
    }
  ],
  "libraries": [],
  "pending": [],
  "returns": {},
  "timestamp": 1727172712,
  "chain": 11155111,
  "commit": "bf3ceb3"
}