{
  "transactions": [
    {
      "hash": "0xe0f01e2b8cf8bc7b41da7f13e2c0e1b0916d47bf5ed3da110fe3bc33f0c26a4a",
      "transactionType": "CALL",
      "contractName": "Reward",
      "contractAddress": "0xc38b87672eeac39fee0d439a71b4a43efd3651eb",
      "function": "transfer(address,uint256)",
      "arguments": [
        "0xF8f8269488f73fab3935555FCDdD6035699deE25",
        "17000000000000000000"
      ],
      "transaction": {
        "from": "0xf8f8269488f73fab3935555fcddd6035699dee25",
        "to": "0xc38b87672eeac39fee0d439a71b4a43efd3651eb",
        "gas": "0x913e",
        "value": "0x0",
        "input": "0xa9059cbb000000000000000000000000f8f8269488f73fab3935555fcddd6035699dee25000000000000000000000000000000000000000000000000ebec21ee1da40000",
        "nonce": "0x668",
        "chainId": "0xaa36a7"
      },
      "additionalContracts": [],
      "isFixedGasLimit": false
    }
  ],
  "receipts": [
    {
      "status": "0x1",
      "cumulativeGasUsed": "0x9652d",
      "logs": [
        {
          "address": "0xc38b87672eeac39fee0d439a71b4a43efd3651eb",
          "topics": [
            "0xddf252ad1be2c89b69c2b068fc378daa952ba7f163c4a11628f55a4df523b3ef",
            "0x000000000000000000000000f8f8269488f73fab3935555fcddd6035699dee25",
            "0x000000000000000000000000f8f8269488f73fab3935555fcddd6035699dee25"
          ],
          "data": "0x000000000000000000000000000000000000000000000000ebec21ee1da40000",
          "blockHash": "0xc6c77c82f985c838a0875f4a23fa20ed72d7cc1da4008aa564b381d773377fb1",
          "blockNumber": "0x67796f",
          "transactionHash": "0xe0f01e2b8cf8bc7b41da7f13e2c0e1b0916d47bf5ed3da110fe3bc33f0c26a4a",
          "transactionIndex": "0x5",
          "logIndex": "0x9",
          "removed": false
        }
      ],
      "logsBloom": "0x00000000000000000000000000000000000000000000000000000000000200000000000000000000000000000000000000000000000000000000008000000000000000000000080000000008000000000000040000000000000000000000000010000000000000000000000000000000000000000000000000000010000000000000000000000000000000000000000000000000000000000000000000000000000000000000000000000000000000000000000000000000000000000000000001000002000000000000000000000000000000000000000000000000000000000000000000000000000000000000000000000000000000000000000000000000",
      "type": "0x0",
      "transactionHash": "0xe0f01e2b8cf8bc7b41da7f13e2c0e1b0916d47bf5ed3da110fe3bc33f0c26a4a",
      "transactionIndex": "0x5",
      "blockHash": "0xc6c77c82f985c838a0875f4a23fa20ed72d7cc1da4008aa564b381d773377fb1",
      "blockNumber": "0x67796f",
      "gasUsed": "0x6928",
      "effectiveGasPrice": "0x2b371bc6c3",
      "from": "0xf8f8269488f73fab3935555fcddd6035699dee25",
      "to": "0xc38b87672eeac39fee0d439a71b4a43efd3651eb",
      "contractAddress": null
    }
  ],
  "libraries": [],
  "pending": [],
  "returns": {},
  "timestamp": 1727611601,
  "chain": 11155111,
  "commit": "48b2bab"
}