{
  "transactions": [
    {
      "hash": "0xa6ccca9d74ca88a695dd5f0a61ffa9ec1c8c44b708925a0c219c782dec34333b",
      "transactionType": "CALL",
      "contractName": null,
      "contractAddress": "0x1476f48415c317f83e102e1915324510cef2b252",
      "function": "setRewardTokenAddress(address)",
      "arguments": [
        "0x2CAcE9EB7e30f596546c6C5E6b4bca0489d02a89"
      ],
      "transaction": {
        "from": "0xf8f8269488f73fab3935555fcddd6035699dee25",
        "to": "0x1476f48415c317f83e102e1915324510cef2b252",
        "gas": "0x959a",
        "value": "0x0",
        "input": "0x9a6acf200000000000000000000000002cace9eb7e30f596546c6c5e6b4bca0489d02a89",
        "nonce": "0x64d",
        "chainId": "0xaa36a7"
      },
      "additionalContracts": [],
      "isFixedGasLimit": false
    }
  ],
  "receipts": [
    {
      "status": "0x1",
      "cumulativeGasUsed": "0x10a5b",
      "logs": [],
      "logsBloom": "0x00000000000000000000000000000000000000000000000000000000000000000000000000000000000000000000000000000000000000000000000000000000000000000000000000000000000000000000000000000000000000000000000000000000000000000000000000000000000000000000000000000000000000000000000000000000000000000000000000000000000000000000000000000000000000000000000000000000000000000000000000000000000000000000000000000000000000000000000000000000000000000000000000000000000000000000000000000000000000000000000000000000000000000000000000000000",
      "type": "0x0",
      "transactionHash": "0xa6ccca9d74ca88a695dd5f0a61ffa9ec1c8c44b708925a0c219c782dec34333b",
      "transactionIndex": "0x2",
      "blockHash": "0x7a4390e3e6c616d28ad625de18479673a620175011b7311238528813803493ad",
      "blockNumber": "0x671ab1",
      "gasUsed": "0x664b",
      "effectiveGasPrice": "0x8be174734d",
      "from": "0xf8f8269488f73fab3935555fcddd6035699dee25",
      "to": "0x1476f48415c317f83e102e1915324510cef2b252",
      "contractAddress": null
    }
  ],
  "libraries": [],
  "pending": [],
  "returns": {},
  "timestamp": 1727267796,
  "chain": 11155111,
  "commit": "bf3ceb3"
}