{
  "transactions": [
    {
      "hash": "0x67dd6a8308040246f192b4235623fe2726389bf750908f29307e3f7cff20585a",
      "transactionType": "CALL",
      "contractName": null,
      "contractAddress": "0x311cf9ede117cddebbb5ef3b9b9a03c5d3652d1b",
      "function": "setRewardTokenAddress(address)",
      "arguments": [
        "0xA58889F7C6fc8D407F6B69e15E23fCf194b05Bce"
      ],
      "transaction": {
        "from": "0xf8f8269488f73fab3935555fcddd6035699dee25",
        "to": "0x311cf9ede117cddebbb5ef3b9b9a03c5d3652d1b",
        "gas": "0xf8a9",
        "value": "0x0",
        "input": "0x9a6acf20000000000000000000000000a58889f7c6fc8d407f6b69e15e23fcf194b05bce",
        "nonce": "0x4f2",
        "chainId": "0xaa36a7"
      },
      "additionalContracts": [],
      "isFixedGasLimit": false
    }
  ],
  "receipts": [
    {
      "status": "0x1",
      "cumulativeGasUsed": "0x10a764",
      "logs": [],
      "logsBloom": "0x00000000000000000000000000000000000000000000000000000000000000000000000000000000000000000000000000000000000000000000000000000000000000000000000000000000000000000000000000000000000000000000000000000000000000000000000000000000000000000000000000000000000000000000000000000000000000000000000000000000000000000000000000000000000000000000000000000000000000000000000000000000000000000000000000000000000000000000000000000000000000000000000000000000000000000000000000000000000000000000000000000000000000000000000000000000",
      "type": "0x0",
      "transactionHash": "0x67dd6a8308040246f192b4235623fe2726389bf750908f29307e3f7cff20585a",
      "transactionIndex": "0x6",
      "blockHash": "0x03207611f8b2e33e9ee7b98483caa07c6813b135eaeb7fbe112fcdd8408eefbc",
      "blockNumber": "0x5fe145",
      "gasUsed": "0xb407",
      "effectiveGasPrice": "0x29f7eab98f",
      "from": "0xf8f8269488f73fab3935555fcddd6035699dee25",
      "to": "0x311cf9ede117cddebbb5ef3b9b9a03c5d3652d1b",
      "contractAddress": null
    }
  ],
  "libraries": [],
  "pending": [],
  "returns": {},
  "timestamp": 1720620688,
  "chain": 11155111,
  "commit": "8109f16"
}