{
  "transactions": [
    {
      "hash": "0x588418c38ee3367c3ff128e1bc067aab7d38cc0619f6fcab56c8434575340707",
      "transactionType": "CALL",
      "contractName": null,
      "contractAddress": "0x803c2ee5618fadb163d85c74990e98d11a7827f8",
      "function": "setRewardTokenAddress(address)",
      "arguments": [
        "0x6f75964b49776731D86ca81c4E8C363B30Af87F1"
      ],
      "transaction": {
        "from": "0xf8f8269488f73fab3935555fcddd6035699dee25",
        "to": "0x803c2ee5618fadb163d85c74990e98d11a7827f8",
        "gas": "0x10729",
        "value": "0x0",
        "input": "0x9a6acf200000000000000000000000006f75964b49776731d86ca81c4e8c363b30af87f1",
        "nonce": "0x5ab",
        "chainId": "0xaa36a7"
      },
      "additionalContracts": [],
      "isFixedGasLimit": false
    }
  ],
  "receipts": [
    {
      "status": "0x1",
      "cumulativeGasUsed": "0x12af44e",
      "logs": [],
      "logsBloom": "0x00000000000000000000000000000000000000000000000000000000000000000000000000000000000000000000000000000000000000000000000000000000000000000000000000000000000000000000000000000000000000000000000000000000000000000000000000000000000000000000000000000000000000000000000000000000000000000000000000000000000000000000000000000000000000000000000000000000000000000000000000000000000000000000000000000000000000000000000000000000000000000000000000000000000000000000000000000000000000000000000000000000000000000000000000000000",
      "type": "0x0",
      "transactionHash": "0x588418c38ee3367c3ff128e1bc067aab7d38cc0619f6fcab56c8434575340707",
      "transactionIndex": "0x69",
      "blockHash": "0x558b18ef69fe4427cd214895bb496ad4bf0129281bcc1c796818de54b2d039b1",
      "blockNumber": "0x620726",
      "gasUsed": "0xb3f1",
      "effectiveGasPrice": "0x6b5ca0ac",
      "from": "0xf8f8269488f73fab3935555fcddd6035699dee25",
      "to": "0x803c2ee5618fadb163d85c74990e98d11a7827f8",
      "contractAddress": null
    }
  ],
  "libraries": [],
  "pending": [],
  "returns": {},
  "timestamp": 1722625121,
  "chain": 11155111,
  "commit": "4a3e77f"
}