{
  "transactions": [
    {
      "hash": "0x777f077636252a0fe480e2b0dd1c7601ad355d47e4175bbaf1801fb792904e72",
      "transactionType": "CALL",
      "contractName": null,
      "contractAddress": "0x3fd6ce0ab34ba3304cf5e871eaed0ce34918f7eb",
      "function": "setRewardTokenAddress(address)",
      "arguments": [
        "0xb09E9B3f727e0B25dDAd7f9D6143AFe84507c5F1"
      ],
      "transaction": {
        "from": "0xf8f8269488f73fab3935555fcddd6035699dee25",
        "to": "0x3fd6ce0ab34ba3304cf5e871eaed0ce34918f7eb",
        "gas": "0xf8a9",
        "value": "0x0",
        "input": "0x9a6acf20000000000000000000000000b09e9b3f727e0b25ddad7f9d6143afe84507c5f1",
        "nonce": "0x53e",
        "chainId": "0xaa36a7"
      },
      "additionalContracts": [],
      "isFixedGasLimit": false
    }
  ],
  "receipts": [
    {
      "status": "0x1",
      "cumulativeGasUsed": "0xf1cb2b",
      "logs": [],
      "logsBloom": "0x00000000000000000000000000000000000000000000000000000000000000000000000000000000000000000000000000000000000000000000000000000000000000000000000000000000000000000000000000000000000000000000000000000000000000000000000000000000000000000000000000000000000000000000000000000000000000000000000000000000000000000000000000000000000000000000000000000000000000000000000000000000000000000000000000000000000000000000000000000000000000000000000000000000000000000000000000000000000000000000000000000000000000000000000000000000",
      "type": "0x0",
      "transactionHash": "0x777f077636252a0fe480e2b0dd1c7601ad355d47e4175bbaf1801fb792904e72",
      "transactionIndex": "0x7d",
      "blockHash": "0xf991d630927c9ea4a08536f9ec11d11837fb5f2665ba9b4830e81136bfde071d",
      "blockNumber": "0x608eaa",
      "gasUsed": "0xb407",
      "effectiveGasPrice": "0x35b7a0458",
      "from": "0xf8f8269488f73fab3935555fcddd6035699dee25",
      "to": "0x3fd6ce0ab34ba3304cf5e871eaed0ce34918f7eb",
      "contractAddress": null
    }
  ],
  "libraries": [],
  "pending": [],
  "returns": {},
  "timestamp": 1721228140,
  "chain": 11155111,
  "commit": "3b366c0"
}