{
  "transactions": [
    {
      "hash": "0xad39c828b0d90143cfb017da533ef42fd99d1e49c2c5873786d5898abaf2d139",
      "transactionType": "CALL",
      "contractName": null,
      "contractAddress": "0xdba2bd59a00539cde35045b5562c58041c508df7",
      "function": "setRewardTokenAddress(address)",
      "arguments": [
        "0x1d1fd58953560c14d2a9A5De467Ab4577f35F9Eb"
      ],
      "transaction": {
        "from": "0xf8f8269488f73fab3935555fcddd6035699dee25",
        "to": "0xdba2bd59a00539cde35045b5562c58041c508df7",
        "gas": "0x10729",
        "value": "0x0",
        "input": "0x9a6acf200000000000000000000000001d1fd58953560c14d2a9a5de467ab4577f35f9eb",
        "nonce": "0x55a",
        "chainId": "0xaa36a7"
      },
      "additionalContracts": [],
      "isFixedGasLimit": false
    }
  ],
  "receipts": [
    {
      "status": "0x1",
      "cumulativeGasUsed": "0xe62768",
      "logs": [],
      "logsBloom": "0x00000000000000000000000000000000000000000000000000000000000000000000000000000000000000000000000000000000000000000000000000000000000000000000000000000000000000000000000000000000000000000000000000000000000000000000000000000000000000000000000000000000000000000000000000000000000000000000000000000000000000000000000000000000000000000000000000000000000000000000000000000000000000000000000000000000000000000000000000000000000000000000000000000000000000000000000000000000000000000000000000000000000000000000000000000000",
      "type": "0x0",
      "transactionHash": "0xad39c828b0d90143cfb017da533ef42fd99d1e49c2c5873786d5898abaf2d139",
      "transactionIndex": "0x47",
      "blockHash": "0x25a422460d993d46237b3f9fc439545bb8fbcb834b3aa8c6f95b7c9db6023abc",
      "blockNumber": "0x60a30a",
      "gasUsed": "0xb3f1",
      "effectiveGasPrice": "0x1bff330e1",
      "from": "0xf8f8269488f73fab3935555fcddd6035699dee25",
      "to": "0xdba2bd59a00539cde35045b5562c58041c508df7",
      "contractAddress": null
    }
  ],
  "libraries": [],
  "pending": [],
  "returns": {},
  "timestamp": 1721305446,
  "chain": 11155111,
  "commit": "3b366c0"
}