{
  "transactions": [
    {
      "hash": "0xdf502d3564af43a7746ed3117dbe0b78ce2ed404f2de1321b05749115f066155",
      "transactionType": "CALL",
      "contractName": null,
      "contractAddress": "0xab9afa1cdd3bf03a724694296cee2975fbf2c2a9",
      "function": "setRewardTokenAddress(address)",
      "arguments": [
        "0x6A9E0F05585647eff858E8680e41069bF87Ab1Ed"
      ],
      "transaction": {
        "from": "0xf8f8269488f73fab3935555fcddd6035699dee25",
        "to": "0xab9afa1cdd3bf03a724694296cee2975fbf2c2a9",
        "gas": "0x10729",
        "value": "0x0",
        "input": "0x9a6acf200000000000000000000000006a9e0f05585647eff858e8680e41069bf87ab1ed",
        "nonce": "0x5a1",
        "chainId": "0xaa36a7"
      },
      "additionalContracts": [],
      "isFixedGasLimit": false
    }
  ],
  "receipts": [
    {
      "status": "0x1",
      "cumulativeGasUsed": "0x1810a5c",
      "logs": [],
      "logsBloom": "0x00000000000000000000000000000000000000000000000000000000000000000000000000000000000000000000000000000000000000000000000000000000000000000000000000000000000000000000000000000000000000000000000000000000000000000000000000000000000000000000000000000000000000000000000000000000000000000000000000000000000000000000000000000000000000000000000000000000000000000000000000000000000000000000000000000000000000000000000000000000000000000000000000000000000000000000000000000000000000000000000000000000000000000000000000000000",
      "type": "0x0",
      "transactionHash": "0xdf502d3564af43a7746ed3117dbe0b78ce2ed404f2de1321b05749115f066155",
      "transactionIndex": "0x7d",
      "blockHash": "0xa77148c39330922fba7507c57a0103b21e484172ab433ce91835561947d78f52",
      "blockNumber": "0x62068e",
      "gasUsed": "0xb3f1",
      "effectiveGasPrice": "0x49d987c3",
      "from": "0xf8f8269488f73fab3935555fcddd6035699dee25",
      "to": "0xab9afa1cdd3bf03a724694296cee2975fbf2c2a9",
      "contractAddress": null
    }
  ],
  "libraries": [],
  "pending": [],
  "returns": {},
  "timestamp": 1722623007,
  "chain": 11155111,
  "commit": "4a3e77f"
}