{
  "transactions": [
    {
      "hash": "0x99da2ce671b825034482dc02b09bbebc6ef4178193c3702dd4199f67b2d95020",
      "transactionType": "CALL",
      "contractName": "TokenManager",
      "contractAddress": "0x311cf9ede117cddebbb5ef3b9b9a03c5d3652d1b",
      "function": "setRewardTokenAddress(address)",
      "arguments": [
        "0x89Af2fc384D9ecC8Ac6efa8F79CAc33837F78588"
      ],
      "transaction": {
        "from": "0xf8f8269488f73fab3935555fcddd6035699dee25",
        "to": "0x311cf9ede117cddebbb5ef3b9b9a03c5d3652d1b",
        "gas": "0xa599",
        "value": "0x0",
        "input": "0x9a6acf2000000000000000000000000089af2fc384d9ecc8ac6efa8f79cac33837f78588",
        "nonce": "0x4fa",
        "chainId": "0xaa36a7"
      },
      "additionalContracts": [],
      "isFixedGasLimit": false
    }
  ],
  "receipts": [
    {
      "status": "0x1",
      "cumulativeGasUsed": "0xba779c",
      "logs": [],
      "logsBloom": "0x00000000000000000000000000000000000000000000000000000000000000000000000000000000000000000000000000000000000000000000000000000000000000000000000000000000000000000000000000000000000000000000000000000000000000000000000000000000000000000000000000000000000000000000000000000000000000000000000000000000000000000000000000000000000000000000000000000000000000000000000000000000000000000000000000000000000000000000000000000000000000000000000000000000000000000000000000000000000000000000000000000000000000000000000000000000",
      "type": "0x0",
      "transactionHash": "0x99da2ce671b825034482dc02b09bbebc6ef4178193c3702dd4199f67b2d95020",
      "transactionIndex": "0x60",
      "blockHash": "0x3c26b3c80887002a903b5472c43349f649e21960e17cadc3d4183459ce3a8a37",
      "blockNumber": "0x605d34",
      "gasUsed": "0x713b",
      "effectiveGasPrice": "0x4cb41c143",
      "from": "0xf8f8269488f73fab3935555fcddd6035699dee25",
      "to": "0x311cf9ede117cddebbb5ef3b9b9a03c5d3652d1b",
      "contractAddress": null
    }
  ],
  "libraries": [],
  "pending": [],
  "returns": {},
  "timestamp": 1721050921,
  "chain": 11155111,
  "commit": "9a2ebcc"
}