{
  "transactions": [
    {
      "hash": "0x7ce3bfe08d0452cd128d08415fe1e0e76091125d5272f33238a198fcc1695b36",
      "transactionType": "CALL",
      "contractName": null,
      "contractAddress": "0x19c68c600cb47b53e9609de123bccc2e40a9b880",
      "function": "setRewardTokenAddress(address)",
      "arguments": [
        "0x65855ADFE6a56f168D431157e1659eBb95E63fdb"
      ],
      "transaction": {
        "from": "0xf8f8269488f73fab3935555fcddd6035699dee25",
        "to": "0x19c68c600cb47b53e9609de123bccc2e40a9b880",
        "gas": "0x10729",
        "value": "0x0",
        "input": "0x9a6acf2000000000000000000000000065855adfe6a56f168d431157e1659ebb95e63fdb",
        "nonce": "0x574",
        "chainId": "0xaa36a7"
      },
      "additionalContracts": [],
      "isFixedGasLimit": false
    }
  ],
  "receipts": [
    {
      "status": "0x1",
      "cumulativeGasUsed": "0x1f4133",
      "logs": [],
      "logsBloom": "0x00000000000000000000000000000000000000000000000000000000000000000000000000000000000000000000000000000000000000000000000000000000000000000000000000000000000000000000000000000000000000000000000000000000000000000000000000000000000000000000000000000000000000000000000000000000000000000000000000000000000000000000000000000000000000000000000000000000000000000000000000000000000000000000000000000000000000000000000000000000000000000000000000000000000000000000000000000000000000000000000000000000000000000000000000000000",
      "type": "0x0",
      "transactionHash": "0x7ce3bfe08d0452cd128d08415fe1e0e76091125d5272f33238a198fcc1695b36",
      "transactionIndex": "0x23",
      "blockHash": "0x40e183f9ec481080bc056154e5ae124044d3837918f56c27d376c0a2275963cc",
      "blockNumber": "0x614217",
      "gasUsed": "0xb3f1",
      "effectiveGasPrice": "0x7ef4beaed",
      "from": "0xf8f8269488f73fab3935555fcddd6035699dee25",
      "to": "0x19c68c600cb47b53e9609de123bccc2e40a9b880",
      "contractAddress": null
    }
  ],
  "libraries": [],
  "pending": [],
  "returns": {},
  "timestamp": 1721919504,
  "chain": 11155111,
  "commit": "3b366c0"
}