{
  "transactions": [
    {
      "hash": "0x41218a052c5e5e8f7dade0cf65ee96d543349cd1e5aa3b29174c4907277694ff",
      "transactionType": "CALL",
      "contractName": "VRFv2Consumer",
      "contractAddress": "0x137Dc38755134374d14afDb0AB0c04335F499362",
      "function": "setLotteryContract(address)",
      "arguments": [
        "0x0818477A1FBC549f449605F627971B87b599AE28"
      ],
      "transaction": {
        "type": "0x02",
        "from": "0xf8f8269488f73fab3935555fcddd6035699dee25",
        "to": "0x137dc38755134374d14afdb0ab0c04335f499362",
        "gas": "0x9c14",
        "value": "0x0",
        "data": "0x1590a04f0000000000000000000000000818477a1fbc549f449605f627971b87b599ae28",
        "nonce": "0x4a2",
        "accessList": []
      },
      "additionalContracts": [],
      "isFixedGasLimit": false
    }
  ],
  "receipts": [
    {
      "transactionHash": "0x41218a052c5e5e8f7dade0cf65ee96d543349cd1e5aa3b29174c4907277694ff",
      "transactionIndex": "0x9",
      "blockHash": "0x700c0b1327886c8f2585842ce1d7380a61561b8526f85c8c09da43ee0ea7e5d2",
      "blockNumber": "0x59f5e0",
      "from": "0xF8f8269488f73fab3935555FCDdD6035699deE25",
      "to": "0x137Dc38755134374d14afDb0AB0c04335F499362",
      "cumulativeGasUsed": "0x840a1",
      "gasUsed": "0x7100",
      "contractAddress": null,
      "logs": [],
      "status": "0x1",
      "logsBloom": "0x00000000000000000000000000000000000000000000000000000000000000000000000000000000000000000000000000000000000000000000000000000000000000000000000000000000000000000000000000000000000000000000000000000000000000000000000000000000000000000000000000000000000000000000000000000000000000000000000000000000000000000000000000000000000000000000000000000000000000000000000000000000000000000000000000000000000000000000000000000000000000000000000000000000000000000000000000000000000000000000000000000000000000000000000000000000",
      "type": "0x2",
      "effectiveGasPrice": "0x2fad6608bb"
    }
  ],
  "libraries": [],
  "pending": [],
  "returns": {},
  "timestamp": 1715619039,
  "chain": 11155111,
  "commit": "cfc1877"
}