{
  "transactions": [
    {
      "hash": "0x1ba167451634a887427618ce6c1ac7f21cab74100db39c2e6192f5d28ae442c0",
      "transactionType": "CALL",
      "contractName": "Lottery",
      "contractAddress": "0x3e07d0cf3ce90ff622d64b3f7d3343b8fc5e0776",
      "function": "selectWinner(uint256)",
      "arguments": [
        "105185158065300128016283508262665065006243813451627540226627447580356031914222"
      ],
      "transaction": {
        "from": "0xf8f8269488f73fab3935555fcddd6035699dee25",
        "to": "0x3e07d0cf3ce90ff622d64b3f7d3343b8fc5e0776",
        "gas": "0x215e8",
        "value": "0x0",
        "input": "0x4c524be4e88cb090918292ae8a2ca83cafb44744736b796305ef8b6be7a326b478e5a0ee",
        "nonce": "0x4d6",
        "chainId": "0xaa36a7"
      },
      "additionalContracts": [],
      "isFixedGasLimit": false
    }
  ],
  "receipts": [
    {
      "status": "0x1",
      "cumulativeGasUsed": "0x582867",
      "logs": [
        {
          "address": "0x3e07d0cf3ce90ff622d64b3f7d3343b8fc5e0776",
          "topics": [
            "0x5b690ec4a06fe979403046eaeea5b3ce38524683c3001f662c8b5a829632f7df",
            "0x000000000000000000000000c26741bac14a3ba52517d6fd825ef4513454178e"
          ],
          "data": "0x",
          "blockHash": "0x7793759a4d4bc18c555f2edf3b0b8aa7eac397076a0138080c76ade82e1a28f3",
          "blockNumber": "0x5a7802",
          "transactionHash": "0x1ba167451634a887427618ce6c1ac7f21cab74100db39c2e6192f5d28ae442c0",
          "transactionIndex": "0x33",
          "logIndex": "0x74",
          "removed": false
        },
        {
          "address": "0xf45f8cb5a4c2dc20d2865a1c6751407c4e097c67",
          "topics": [
            "0xddf252ad1be2c89b69c2b068fc378daa952ba7f163c4a11628f55a4df523b3ef",
            "0x00000000000000000000000050ef9e70da285ee6321f765997fcd294f0805d36",
            "0x000000000000000000000000c26741bac14a3ba52517d6fd825ef4513454178e"
          ],
          "data": "0x0000000000000000000000000000000000000000000000004563918244f40000",
          "blockHash": "0x7793759a4d4bc18c555f2edf3b0b8aa7eac397076a0138080c76ade82e1a28f3",
          "blockNumber": "0x5a7802",
          "transactionHash": "0x1ba167451634a887427618ce6c1ac7f21cab74100db39c2e6192f5d28ae442c0",
          "transactionIndex": "0x33",
          "logIndex": "0x75",
          "removed": false
        },
        {
          "address": "0x50ef9e70da285ee6321f765997fcd294f0805d36",
          "topics": [
            "0x9c944f9bf53dd7797190e4b01a2e438a604c4d8f33a684d386a7e93769296141",
            "0x0000000000000000000000003e07d0cf3ce90ff622d64b3f7d3343b8fc5e0776"
          ],
          "data": "0x0000000000000000000000000000000000000000000000004563918244f40000",
          "blockHash": "0x7793759a4d4bc18c555f2edf3b0b8aa7eac397076a0138080c76ade82e1a28f3",
          "blockNumber": "0x5a7802",
          "transactionHash": "0x1ba167451634a887427618ce6c1ac7f21cab74100db39c2e6192f5d28ae442c0",
          "transactionIndex": "0x33",
          "logIndex": "0x76",
          "removed": false
        }
      ],
      "logsBloom": "0x00000008040000000000000204000004000000000000000000000000000000010000200000000000000000000000000000000000000000000008080000000000000000000000000000000008000000000000000000000000000000000000800000000000000000000200000000000000000000000000000000000010000000000800000100004000000000020000000020000000000200104000000000000000020000000000000000000000000000000000000000000000000000000020000000000002000000000000000000200000000000000000000000000000000000000000000000000000000000000000082000000000000000000000000000000000",
      "type": "0x2",
      "transactionHash": "0x1ba167451634a887427618ce6c1ac7f21cab74100db39c2e6192f5d28ae442c0",
      "transactionIndex": "0x33",
      "blockHash": "0x7793759a4d4bc18c555f2edf3b0b8aa7eac397076a0138080c76ade82e1a28f3",
      "blockNumber": "0x5a7802",
      "gasUsed": "0x16d11",
      "effectiveGasPrice": "0xf5d07a081",
      "from": "0xf8f8269488f73fab3935555fcddd6035699dee25",
      "to": "0x3e07d0cf3ce90ff622d64b3f7d3343b8fc5e0776",
      "contractAddress": null
    }
  ],
  "libraries": [],
  "pending": [],
  "returns": {},
  "timestamp": 1716048852,
  "chain": 11155111,
  "commit": "5372283"
}