{
  "transactions": [
    {
      "hash": "0x3f44ae21cb23bae9cb23dad287e6b3891814590a1691397058c4ebe5e6237bc5",
      "transactionType": "CALL",
      "contractName": null,
      "contractAddress": "0x311cf9ede117cddebbb5ef3b9b9a03c5d3652d1b",
      "function": "setRewardTokenAddress(address)",
      "arguments": [
        "0x9226fe7f6e64E44a84b90cAC43562Fe0ad4A7Cf9"
      ],
      "transaction": {
        "from": "0xf8f8269488f73fab3935555fcddd6035699dee25",
        "to": "0x311cf9ede117cddebbb5ef3b9b9a03c5d3652d1b",
        "gas": "0xa599",
        "value": "0x0",
        "input": "0x9a6acf200000000000000000000000009226fe7f6e64e44a84b90cac43562fe0ad4a7cf9",
        "nonce": "0x4f5",
        "chainId": "0xaa36a7"
      },
      "additionalContracts": [],
      "isFixedGasLimit": false
    }
  ],
  "receipts": [
    {
      "status": "0x1",
      "cumulativeGasUsed": "0x6d0b95",
      "logs": [],
      "logsBloom": "0x00000000000000000000000000000000000000000000000000000000000000000000000000000000000000000000000000000000000000000000000000000000000000000000000000000000000000000000000000000000000000000000000000000000000000000000000000000000000000000000000000000000000000000000000000000000000000000000000000000000000000000000000000000000000000000000000000000000000000000000000000000000000000000000000000000000000000000000000000000000000000000000000000000000000000000000000000000000000000000000000000000000000000000000000000000000",
      "type": "0x0",
      "transactionHash": "0x3f44ae21cb23bae9cb23dad287e6b3891814590a1691397058c4ebe5e6237bc5",
      "transactionIndex": "0x56",
      "blockHash": "0xca36ce88253c729f08b261912f36cb3062f2c5d5e2875c8b100ae82a5d5afc6f",
      "blockNumber": "0x5ff1f9",
      "gasUsed": "0x713b",
      "effectiveGasPrice": "0x359bcd5b5",
      "from": "0xf8f8269488f73fab3935555fcddd6035699dee25",
      "to": "0x311cf9ede117cddebbb5ef3b9b9a03c5d3652d1b",
      "contractAddress": null
    }
  ],
  "libraries": [],
  "pending": [],
  "returns": {},
  "timestamp": 1720676992,
  "chain": 11155111,
  "commit": "8109f16"
}