{
  "transactions": [
    {
      "hash": "0xee20f6ec5ec52b2a203e12fed495384a092a2853f942748d1e6e7e7b9ae6d1e9",
      "transactionType": "CALL",
      "contractName": "VRFv2Consumer",
      "contractAddress": "0xB2ae8034Cc25B4Bc17E8b0044c19f7C427Ff96bC",
      "function": "setLotteryContract(address)",
      "arguments": [
        "0xB38F2B560546B9F122a5C98324efe9B6C121F004"
      ],
      "transaction": {
        "type": "0x02",
        "from": "0xf8f8269488f73fab3935555fcddd6035699dee25",
        "to": "0xb2ae8034cc25b4bc17e8b0044c19f7c427ff96bc",
        "gas": "0x9c14",
        "value": "0x0",
        "data": "0x1590a04f000000000000000000000000b38f2b560546b9f122a5c98324efe9b6c121f004",
        "nonce": "0x481",
        "accessList": []
      },
      "additionalContracts": [],
      "isFixedGasLimit": false
    }
  ],
  "receipts": [
    {
      "transactionHash": "0xee20f6ec5ec52b2a203e12fed495384a092a2853f942748d1e6e7e7b9ae6d1e9",
      "transactionIndex": "0x5",
      "blockHash": "0x4dfbaddf9f8613bac01af03805d441ac140f325ae9ed6505c73050540ca8de4c",
      "blockNumber": "0x59b70b",
      "from": "0xF8f8269488f73fab3935555FCDdD6035699deE25",
      "to": "0xB2ae8034Cc25B4Bc17E8b0044c19f7C427Ff96bC",
      "cumulativeGasUsed": "0x3256c",
      "gasUsed": "0x7100",
      "contractAddress": null,
      "logs": [],
      "status": "0x1",
      "logsBloom": "0x00000000000000000000000000000000000000000000000000000000000000000000000000000000000000000000000000000000000000000000000000000000000000000000000000000000000000000000000000000000000000000000000000000000000000000000000000000000000000000000000000000000000000000000000000000000000000000000000000000000000000000000000000000000000000000000000000000000000000000000000000000000000000000000000000000000000000000000000000000000000000000000000000000000000000000000000000000000000000000000000000000000000000000000000000000000",
      "type": "0x2",
      "effectiveGasPrice": "0xb2dac94a"
    }
  ],
  "libraries": [],
  "pending": [],
  "returns": {},
  "timestamp": 1715413756,
  "chain": 11155111,
  "commit": "f0357c2"
}