{
  "transactions": [
    {
      "hash": "0x36c15a162ba2cc42af10ea3ebe16e6882c58d08e6345160c650a50cf83e9de61",
      "transactionType": "CALL",
      "contractName": null,
      "contractAddress": "0xebd2ce933ea2acf319e0636a04736fa64449c3c8",
      "function": "setRewardTokenAddress(address)",
      "arguments": [
        "0x177FbC60A6163D7c0b549DeEb1CFcde3837867B8"
      ],
      "transaction": {
        "from": "0xf8f8269488f73fab3935555fcddd6035699dee25",
        "to": "0xebd2ce933ea2acf319e0636a04736fa64449c3c8",
        "gas": "0xf8a9",
        "value": "0x0",
        "input": "0x9a6acf20000000000000000000000000177fbc60a6163d7c0b549deeb1cfcde3837867b8",
        "nonce": "0x50e",
        "chainId": "0xaa36a7"
      },
      "additionalContracts": [],
      "isFixedGasLimit": false
    }
  ],
  "receipts": [
    {
      "status": "0x1",
      "cumulativeGasUsed": "0xb15a5e",
      "logs": [],
      "logsBloom": "0x00000000000000000000000000000000000000000000000000000000000000000000000000000000000000000000000000000000000000000000000000000000000000000000000000000000000000000000000000000000000000000000000000000000000000000000000000000000000000000000000000000000000000000000000000000000000000000000000000000000000000000000000000000000000000000000000000000000000000000000000000000000000000000000000000000000000000000000000000000000000000000000000000000000000000000000000000000000000000000000000000000000000000000000000000000000",
      "type": "0x0",
      "transactionHash": "0x36c15a162ba2cc42af10ea3ebe16e6882c58d08e6345160c650a50cf83e9de61",
      "transactionIndex": "0x67",
      "blockHash": "0x7158f062da8f0595a4790509205ae4da0b1599dde83692779e35e071e4be5b56",
      "blockNumber": "0x6075e8",
      "gasUsed": "0xb407",
      "effectiveGasPrice": "0x1fff96e9e",
      "from": "0xf8f8269488f73fab3935555fcddd6035699dee25",
      "to": "0xebd2ce933ea2acf319e0636a04736fa64449c3c8",
      "contractAddress": null
    }
  ],
  "libraries": [],
  "pending": [],
  "returns": {},
  "timestamp": 1721139413,
  "chain": 11155111,
  "commit": "2400cea"
}