{
  "transactions": [
    {
      "hash": "0x94379234c51701225043e27a36dc66adf26f249c0c7e224f8a25c7703c4db8a0",
      "transactionType": "CALL",
      "contractName": null,
      "contractAddress": "0x233c4e8f201dcc302446b6e67ab4d22f415ef81f",
      "function": "setRewardTokenAddress(address)",
      "arguments": [
        "0x3a1F194Bc27F4DCF9a57a15f0DF452BEFC6eA424"
      ],
      "transaction": {
        "from": "0xf8f8269488f73fab3935555fcddd6035699dee25",
        "to": "0x233c4e8f201dcc302446b6e67ab4d22f415ef81f",
        "gas": "0xf8a9",
        "value": "0x0",
        "input": "0x9a6acf200000000000000000000000003a1f194bc27f4dcf9a57a15f0df452befc6ea424",
        "nonce": "0x529",
        "chainId": "0xaa36a7"
      },
      "additionalContracts": [],
      "isFixedGasLimit": false
    }
  ],
  "receipts": [
    {
      "status": "0x1",
      "cumulativeGasUsed": "0xcca0bb",
      "logs": [],
      "logsBloom": "0x00000000000000000000000000000000000000000000000000000000000000000000000000000000000000000000000000000000000000000000000000000000000000000000000000000000000000000000000000000000000000000000000000000000000000000000000000000000000000000000000000000000000000000000000000000000000000000000000000000000000000000000000000000000000000000000000000000000000000000000000000000000000000000000000000000000000000000000000000000000000000000000000000000000000000000000000000000000000000000000000000000000000000000000000000000000",
      "type": "0x0",
      "transactionHash": "0x94379234c51701225043e27a36dc66adf26f249c0c7e224f8a25c7703c4db8a0",
      "transactionIndex": "0x6f",
      "blockHash": "0x49a33dbb1bea3f551ca006e2d17ee30254e5e4afca033f4ad2afe4b7ae8acf44",
      "blockNumber": "0x6089bc",
      "gasUsed": "0xb407",
      "effectiveGasPrice": "0x452d4c5ae",
      "from": "0xf8f8269488f73fab3935555fcddd6035699dee25",
      "to": "0x233c4e8f201dcc302446b6e67ab4d22f415ef81f",
      "contractAddress": null
    }
  ],
  "libraries": [],
  "pending": [],
  "returns": {},
  "timestamp": 1721210773,
  "chain": 11155111,
  "commit": "f50bb34"
}