{
  "transactions": [
    {
      "hash": "0xb4947c9f46b42c314e6b95727466c8f47e0e7a7677c56c332e018027a042f27b",
      "transactionType": "CALL",
      "contractName": "TokenManager",
      "contractAddress": "0x50ef9e70da285ee6321f765997fcd294f0805d36",
      "function": "setRewardTokenAddress(address)",
      "arguments": [
        "0xA58889F7C6fc8D407F6B69e15E23fCf194b05Bce"
      ],
      "transaction": {
        "from": "0xf8f8269488f73fab3935555fcddd6035699dee25",
        "to": "0x50ef9e70da285ee6321f765997fcd294f0805d36",
        "gas": "0xa599",
        "value": "0x0",
        "input": "0x9a6acf20000000000000000000000000a58889f7c6fc8d407f6b69e15e23fcf194b05bce",
        "nonce": "0x4e1",
        "chainId": "0xaa36a7"
      },
      "additionalContracts": [],
      "isFixedGasLimit": false
    },
    {
      "hash": "0x1f753acabd8c465448606b8c5a1e7369289d0b414403be9aadcae8e53ae5a30a",
      "transactionType": "CALL",
      "contractName": "Lottery",
      "contractAddress": "0x3e07d0cf3ce90ff622d64b3f7d3343b8fc5e0776",
      "function": "selectWinner(uint256)",
      "arguments": [
        "105185158065300128016283508262665065006243813451627540226627447580356031914222"
      ],
      "transaction": {
        "from": "0xf8f8269488f73fab3935555fcddd6035699dee25",
        "to": "0x3e07d0cf3ce90ff622d64b3f7d3343b8fc5e0776",
        "gas": "0x1b5e1",
        "value": "0x0",
        "input": "0x4c524be4e88cb090918292ae8a2ca83cafb44744736b796305ef8b6be7a326b478e5a0ee",
        "nonce": "0x4e2",
        "chainId": "0xaa36a7"
      },
      "additionalContracts": [],
      "isFixedGasLimit": false
    }
  ],
  "receipts": [
    {
      "status": "0x1",
      "cumulativeGasUsed": "0xfb1cdc",
      "logs": [],
      "logsBloom": "0x00000000000000000000000000000000000000000000000000000000000000000000000000000000000000000000000000000000000000000000000000000000000000000000000000000000000000000000000000000000000000000000000000000000000000000000000000000000000000000000000000000000000000000000000000000000000000000000000000000000000000000000000000000000000000000000000000000000000000000000000000000000000000000000000000000000000000000000000000000000000000000000000000000000000000000000000000000000000000000000000000000000000000000000000000000000",
      "type": "0x0",
      "transactionHash": "0xb4947c9f46b42c314e6b95727466c8f47e0e7a7677c56c332e018027a042f27b",
      "transactionIndex": "0x86",
      "blockHash": "0x9f6e9e684ddf9f4ee72cd551fa10e8ede44661f73c74568ce901d4f8f7f5dc56",
      "blockNumber": "0x5f67a4",
      "gasUsed": "0x713b",
      "effectiveGasPrice": "0x185598b18",
      "from": "0xf8f8269488f73fab3935555fcddd6035699dee25",
      "to": "0x50ef9e70da285ee6321f765997fcd294f0805d36",
      "contractAddress": null
    },
    {
      "status": "0x1",
      "cumulativeGasUsed": "0xfd7fbe",
      "logs": [
        {
          "address": "0x3e07d0cf3ce90ff622d64b3f7d3343b8fc5e0776",
          "topics": [
            "0x5b690ec4a06fe979403046eaeea5b3ce38524683c3001f662c8b5a829632f7df",
            "0x000000000000000000000000c26741bac14a3ba52517d6fd825ef4513454178e"
          ],
          "data": "0x",
          "blockHash": "0x9f6e9e684ddf9f4ee72cd551fa10e8ede44661f73c74568ce901d4f8f7f5dc56",
          "blockNumber": "0x5f67a4",
          "transactionHash": "0x1f753acabd8c465448606b8c5a1e7369289d0b414403be9aadcae8e53ae5a30a",
          "transactionIndex": "0x88",
          "logIndex": "0xbf",
          "removed": false
        },
        {
          "address": "0xa58889f7c6fc8d407f6b69e15e23fcf194b05bce",
          "topics": [
            "0xddf252ad1be2c89b69c2b068fc378daa952ba7f163c4a11628f55a4df523b3ef",
            "0x00000000000000000000000050ef9e70da285ee6321f765997fcd294f0805d36",
            "0x000000000000000000000000c26741bac14a3ba52517d6fd825ef4513454178e"
          ],
          "data": "0x0000000000000000000000000000000000000000000000004563918244f40000",
          "blockHash": "0x9f6e9e684ddf9f4ee72cd551fa10e8ede44661f73c74568ce901d4f8f7f5dc56",
          "blockNumber": "0x5f67a4",
          "transactionHash": "0x1f753acabd8c465448606b8c5a1e7369289d0b414403be9aadcae8e53ae5a30a",
          "transactionIndex": "0x88",
          "logIndex": "0xc0",
          "removed": false
        },
        {
          "address": "0x50ef9e70da285ee6321f765997fcd294f0805d36",
          "topics": [
            "0x9c944f9bf53dd7797190e4b01a2e438a604c4d8f33a684d386a7e93769296141",
            "0x0000000000000000000000003e07d0cf3ce90ff622d64b3f7d3343b8fc5e0776"
          ],
          "data": "0x0000000000000000000000000000000000000000000000004563918244f40000",
          "blockHash": "0x9f6e9e684ddf9f4ee72cd551fa10e8ede44661f73c74568ce901d4f8f7f5dc56",
          "blockNumber": "0x5f67a4",
          "transactionHash": "0x1f753acabd8c465448606b8c5a1e7369289d0b414403be9aadcae8e53ae5a30a",
          "transactionIndex": "0x88",
          "logIndex": "0xc1",
          "removed": false
        }
      ],
      "logsBloom": "0x00000008040000000000000204000004000000000000000000000000000000010000200000000008000000000000000000000000000000000008080000000000000000000000000000000008000000000000000000000000000000000000800000000000000000000200000000000000000000000000000000000010000000000800000000004000000000000000000020000000000200104000000000000000020000000000000000000000000000000000000000000000000000001020000000000002000000000000000000000000000000000000000000000000000000000000000000000000000000000008082000000000000000000000000000000000",
      "type": "0x0",
      "transactionHash": "0x1f753acabd8c465448606b8c5a1e7369289d0b414403be9aadcae8e53ae5a30a",
      "transactionIndex": "0x88",
      "blockHash": "0x9f6e9e684ddf9f4ee72cd551fa10e8ede44661f73c74568ce901d4f8f7f5dc56",
      "blockNumber": "0x5f67a4",
      "gasUsed": "0x13d05",
      "effectiveGasPrice": "0x185598b18",
      "from": "0xf8f8269488f73fab3935555fcddd6035699dee25",
      "to": "0x3e07d0cf3ce90ff622d64b3f7d3343b8fc5e0776",
      "contractAddress": null
    }
  ],
  "libraries": [],
  "pending": [],
  "returns": {},
  "timestamp": 1720204755,
  "chain": 11155111,
  "commit": "6a243e2"
}