{
  "transactions": [
    {
      "hash": "0xe3eda8e889124b9ee903acac620337f72fed06d2dc2485133cad751be127cbe2",
      "transactionType": "CALL",
      "contractName": null,
      "contractAddress": "0xab9afa1cdd3bf03a724694296cee2975fbf2c2a9",
      "function": "setRewardTokenAddress(address)",
      "arguments": [
        "0x6A9E0F05585647eff858E8680e41069bF87Ab1Ed"
      ],
      "transaction": {
        "from": "0xf8f8269488f73fab3935555fcddd6035699dee25",
        "to": "0xab9afa1cdd3bf03a724694296cee2975fbf2c2a9",
        "gas": "0x8d2c",
        "value": "0x0",
        "input": "0x9a6acf200000000000000000000000006a9e0f05585647eff858e8680e41069bf87ab1ed",
        "nonce": "0x5a8",
        "chainId": "0xaa36a7"
      },
      "additionalContracts": [],
      "isFixedGasLimit": false
    }
  ],
  "receipts": [
    {
      "status": "0x1",
      "cumulativeGasUsed": "0xfacee2",
      "logs": [],
      "logsBloom": "0x00000000000000000000000000000000000000000000000000000000000000000000000000000000000000000000000000000000000000000000000000000000000000000000000000000000000000000000000000000000000000000000000000000000000000000000000000000000000000000000000000000000000000000000000000000000000000000000000000000000000000000000000000000000000000000000000000000000000000000000000000000000000000000000000000000000000000000000000000000000000000000000000000000000000000000000000000000000000000000000000000000000000000000000000000000000",
      "type": "0x0",
      "transactionHash": "0xe3eda8e889124b9ee903acac620337f72fed06d2dc2485133cad751be127cbe2",
      "transactionIndex": "0x46",
      "blockHash": "0xa2ff348ce09d7882bda75672689d220e1e11e8cbb7f905781a25ce7d2db63f85",
      "blockNumber": "0x620706",
      "gasUsed": "0x6635",
      "effectiveGasPrice": "0x4fc5a021",
      "from": "0xf8f8269488f73fab3935555fcddd6035699dee25",
      "to": "0xab9afa1cdd3bf03a724694296cee2975fbf2c2a9",
      "contractAddress": null
    }
  ],
  "libraries": [],
  "pending": [],
  "returns": {},
  "timestamp": 1722624654,
  "chain": 11155111,
  "commit": "4a3e77f"
}