{
  "transactions": [
    {
      "hash": "0x290e89dfa66b11566752e5bafdb33b7d68748ba80c3b2e34c936e15ebbfba5c6",
      "transactionType": "CALL",
      "contractName": "Lottery",
      "contractAddress": "0xB38F2B560546B9F122a5C98324efe9B6C121F004",
      "function": "setTokenManager(address)",
      "arguments": [
        "0x50eF9E70dA285ee6321F765997FCd294f0805d36"
      ],
      "transaction": {
        "type": "0x02",
        "from": "0xf8f8269488f73fab3935555fcddd6035699dee25",
        "to": "0xb38f2b560546b9f122a5c98324efe9b6c121f004",
        "gas": "0xa597",
        "value": "0x0",
        "data": "0x7cb2b79c00000000000000000000000050ef9e70da285ee6321f765997fcd294f0805d36",
        "nonce": "0x482",
        "accessList": []
      },
      "additionalContracts": [],
      "isFixedGasLimit": false
    }
  ],
  "receipts": [
    {
      "transactionHash": "0x290e89dfa66b11566752e5bafdb33b7d68748ba80c3b2e34c936e15ebbfba5c6",
      "transactionIndex": "0xd",
      "blockHash": "0x3d782148daa3d763f17a4112932b29997a4e6954b7a4a5111e59b63bea70f702",
      "blockNumber": "0x59b72f",
      "from": "0xF8f8269488f73fab3935555FCDdD6035699deE25",
      "to": "0xB38F2B560546B9F122a5C98324efe9B6C121F004",
      "cumulativeGasUsed": "0x85a09",
      "gasUsed": "0x713a",
      "contractAddress": null,
      "logs": [],
      "status": "0x1",
      "logsBloom": "0x00000000000000000000000000000000000000000000000000000000000000000000000000000000000000000000000000000000000000000000000000000000000000000000000000000000000000000000000000000000000000000000000000000000000000000000000000000000000000000000000000000000000000000000000000000000000000000000000000000000000000000000000000000000000000000000000000000000000000000000000000000000000000000000000000000000000000000000000000000000000000000000000000000000000000000000000000000000000000000000000000000000000000000000000000000000",
      "type": "0x2",
      "effectiveGasPrice": "0xb2d87568"
    }
  ],
  "libraries": [],
  "pending": [],
  "returns": {},
  "timestamp": 1715414273,
  "chain": 11155111,
  "commit": "f0357c2"
}