{
  "transactions": [
    {
      "hash": "0xbe18876d7d79ddb0e5d7fb9211e2a7f6fd1c709272e26fe6abd3d011f633c333",
      "transactionType": "CALL",
      "contractName": "Lottery",
      "contractAddress": "0xB38F2B560546B9F122a5C98324efe9B6C121F004",
      "function": "setVrfConsumer(address)",
      "arguments": [
        "0xB2ae8034Cc25B4Bc17E8b0044c19f7C427Ff96bC"
      ],
      "transaction": {
        "type": "0x02",
        "from": "0xf8f8269488f73fab3935555fcddd6035699dee25",
        "to": "0xb38f2b560546b9f122a5c98324efe9b6c121f004",
        "gas": "0xf85b",
        "value": "0x0",
        "data": "0xa829326d000000000000000000000000b2ae8034cc25b4bc17e8b0044c19f7c427ff96bc",
        "nonce": "0x483",
        "accessList": []
      },
      "additionalContracts": [],
      "isFixedGasLimit": false
    }
  ],
  "receipts": [
    {
      "transactionHash": "0xbe18876d7d79ddb0e5d7fb9211e2a7f6fd1c709272e26fe6abd3d011f633c333",
      "transactionIndex": "0x3",
      "blockHash": "0x16de76c926e3e86b5aa61c2caac35401c8718e900225c5eaa10cfa4d25a0f83e",
      "blockNumber": "0x59b739",
      "from": "0xF8f8269488f73fab3935555FCDdD6035699deE25",
      "to": "0xB38F2B560546B9F122a5C98324efe9B6C121F004",
      "cumulativeGasUsed": "0x128172",
      "gasUsed": "0xb3cf",
      "contractAddress": null,
      "logs": [],
      "status": "0x1",
      "logsBloom": "0x00000000000000000000000000000000000000000000000000000000000000000000000000000000000000000000000000000000000000000000000000000000000000000000000000000000000000000000000000000000000000000000000000000000000000000000000000000000000000000000000000000000000000000000000000000000000000000000000000000000000000000000000000000000000000000000000000000000000000000000000000000000000000000000000000000000000000000000000000000000000000000000000000000000000000000000000000000000000000000000000000000000000000000000000000000000",
      "type": "0x2",
      "effectiveGasPrice": "0xb2d760e2"
    }
  ],
  "libraries": [],
  "pending": [],
  "returns": {},
  "timestamp": 1715414401,
  "chain": 11155111,
  "commit": "f0357c2"
}