{
  "transactions": [
    {
      "hash": "0x94dc739dfb9cf64eeee82b5989675981275b578d61b98ce565655e25dc68cf32",
      "transactionType": "CALL",
      "contractName": "TokenManager",
      "contractAddress": "0x50ef9e70da285ee6321f765997fcd294f0805d36",
      "function": "setRewardTokenAddress(address)",
      "arguments": [
        "0xA58889F7C6fc8D407F6B69e15E23fCf194b05Bce"
      ],
      "transaction": {
        "from": "0xf8f8269488f73fab3935555fcddd6035699dee25",
        "to": "0x50ef9e70da285ee6321f765997fcd294f0805d36",
        "gas": "0x959a",
        "value": "0x0",
        "input": "0x9a6acf20000000000000000000000000a58889f7c6fc8d407f6b69e15e23fcf194b05bce",
        "nonce": "0x4ed",
        "chainId": "0xaa36a7"
      },
      "additionalContracts": [],
      "isFixedGasLimit": false
    }
  ],
  "receipts": [
    {
      "status": "0x1",
      "cumulativeGasUsed": "0xc6485a",
      "logs": [],
      "logsBloom": "0x00000000000000000000000000000000000000000000000000000000000000000000000000000000000000000000000000000000000000000000000000000000000000000000000000000000000000000000000000000000000000000000000000000000000000000000000000000000000000000000000000000000000000000000000000000000000000000000000000000000000000000000000000000000000000000000000000000000000000000000000000000000000000000000000000000000000000000000000000000000000000000000000000000000000000000000000000000000000000000000000000000000000000000000000000000000",
      "type": "0x0",
      "transactionHash": "0x94dc739dfb9cf64eeee82b5989675981275b578d61b98ce565655e25dc68cf32",
      "transactionIndex": "0x4d",
      "blockHash": "0x995d7ed0061f8dc86b00364a0bd92bc5b4699ae5521abd8dcf737665ae7da27e",
      "blockNumber": "0x5fb1f0",
      "gasUsed": "0x664b",
      "effectiveGasPrice": "0xa57ccc97",
      "from": "0xf8f8269488f73fab3935555fcddd6035699dee25",
      "to": "0x50ef9e70da285ee6321f765997fcd294f0805d36",
      "contractAddress": null
    }
  ],
  "libraries": [],
  "pending": [],
  "returns": {},
  "timestamp": 1720460835,
  "chain": 11155111,
  "commit": "0de01bc"
}