{
  "transactions": [
    {
      "hash": "0xbc034a7ff788b2ebc2b63a9410a6232aaacf5bfa44fdcf3a23aa3442e7fc6a5b",
      "transactionType": "CALL",
      "contractName": "Lottery",
      "contractAddress": "0x0818477A1FBC549f449605F627971B87b599AE28",
      "function": "setVrfConsumer(address)",
      "arguments": [
        "0xB2ae8034Cc25B4Bc17E8b0044c19f7C427Ff96bC"
      ],
      "transaction": {
        "type": "0x02",
        "from": "0xf8f8269488f73fab3935555fcddd6035699dee25",
        "to": "0x0818477a1fbc549f449605f627971b87b599ae28",
        "gas": "0xf85b",
        "value": "0x0",
        "data": "0xa829326d000000000000000000000000b2ae8034cc25b4bc17e8b0044c19f7c427ff96bc",
        "nonce": "0x488",
        "accessList": []
      },
      "additionalContracts": [],
      "isFixedGasLimit": false
    }
  ],
  "receipts": [
    {
      "transactionHash": "0xbc034a7ff788b2ebc2b63a9410a6232aaacf5bfa44fdcf3a23aa3442e7fc6a5b",
      "transactionIndex": "0x9",
      "blockHash": "0x7225e747cedf32ab75be51f869ef47b3d4d047b4c939dbb227391f3cfeedb182",
      "blockNumber": "0x59d952",
      "from": "0xF8f8269488f73fab3935555FCDdD6035699deE25",
      "to": "0x0818477A1FBC549f449605F627971B87b599AE28",
      "cumulativeGasUsed": "0xf340f",
      "gasUsed": "0xb3cf",
      "contractAddress": null,
      "logs": [],
      "status": "0x1",
      "logsBloom": "0x00000000000000000000000000000000000000000000000000000000000000000000000000000000000000000000000000000000000000000000000000000000000000000000000000000000000000000000000000000000000000000000000000000000000000000000000000000000000000000000000000000000000000000000000000000000000000000000000000000000000000000000000000000000000000000000000000000000000000000000000000000000000000000000000000000000000000000000000000000000000000000000000000000000000000000000000000000000000000000000000000000000000000000000000000000000",
      "type": "0x2",
      "effectiveGasPrice": "0xc85f09ac"
    }
  ],
  "libraries": [],
  "pending": [],
  "returns": {},
  "timestamp": 1715526158,
  "chain": 11155111,
  "commit": "f0357c2"
}