{
  "transactions": [
    {
      "hash": "0x59c43c943791dd70a18dae9310519baa1077e11108c277441d2693842b5aae9c",
      "transactionType": "CALL",
      "contractName": null,
      "contractAddress": "0x777f2ff3419c22f55a76f8f98a14e3a0321a538e",
      "function": "setRewardTokenAddress(address)",
      "arguments": [
        "0xcA5d56424E9ee5369ce3E2EFC2f4B4E2E7AcAf95"
      ],
      "transaction": {
        "from": "0xf8f8269488f73fab3935555fcddd6035699dee25",
        "to": "0x777f2ff3419c22f55a76f8f98a14e3a0321a538e",
        "gas": "0x10729",
        "value": "0x0",
        "input": "0x9a6acf20000000000000000000000000ca5d56424e9ee5369ce3e2efc2f4b4e2e7acaf95",
        "nonce": "0x546",
        "chainId": "0xaa36a7"
      },
      "additionalContracts": [],
      "isFixedGasLimit": false
    }
  ],
  "receipts": [
    {
      "status": "0x1",
      "cumulativeGasUsed": "0x1c1a7c9",
      "logs": [],
      "logsBloom": "0x00000000000000000000000000000000000000000000000000000000000000000000000000000000000000000000000000000000000000000000000000000000000000000000000000000000000000000000000000000000000000000000000000000000000000000000000000000000000000000000000000000000000000000000000000000000000000000000000000000000000000000000000000000000000000000000000000000000000000000000000000000000000000000000000000000000000000000000000000000000000000000000000000000000000000000000000000000000000000000000000000000000000000000000000000000000",
      "type": "0x0",
      "transactionHash": "0x59c43c943791dd70a18dae9310519baa1077e11108c277441d2693842b5aae9c",
      "transactionIndex": "0x9b",
      "blockHash": "0x2bef2eafc83ea5886b4a8cdc3499a773d62ca95873a0317a58d8ebdafaf4efab",
      "blockNumber": "0x609d99",
      "gasUsed": "0xb3f1",
      "effectiveGasPrice": "0x26df4803",
      "from": "0xf8f8269488f73fab3935555fcddd6035699dee25",
      "to": "0x777f2ff3419c22f55a76f8f98a14e3a0321a538e",
      "contractAddress": null
    }
  ],
  "libraries": [],
  "pending": [],
  "returns": {},
  "timestamp": 1721285200,
  "chain": 11155111,
  "commit": "3b366c0"
}