{
  "transactions": [
    {
      "hash": "0x0388f7badc27641b9b79f82e5779e8c7c4696b223b82d12c216e3266024cbedc",
      "transactionType": "CALL",
      "contractName": null,
      "contractAddress": "0x19c68c600cb47b53e9609de123bccc2e40a9b880",
      "function": "setRewardTokenAddress(address)",
      "arguments": [
        "0x1645422d1f02fc09CcA7af48ea30cA2bF5F4F25E"
      ],
      "transaction": {
        "from": "0xf8f8269488f73fab3935555fcddd6035699dee25",
        "to": "0x19c68c600cb47b53e9609de123bccc2e40a9b880",
        "gas": "0x9c47",
        "value": "0x0",
        "input": "0x9a6acf200000000000000000000000001645422d1f02fc09cca7af48ea30ca2bf5f4f25e",
        "nonce": "0x579",
        "chainId": "0xaa36a7"
      },
      "additionalContracts": [],
      "isFixedGasLimit": false
    }
  ],
  "receipts": [
    {
      "status": "0x1",
      "cumulativeGasUsed": "0xaa044b",
      "logs": [],
      "logsBloom": "0x00000000000000000000000000000000000000000000000000000000000000000000000000000000000000000000000000000000000000000000000000000000000000000000000000000000000000000000000000000000000000000000000000000000000000000000000000000000000000000000000000000000000000000000000000000000000000000000000000000000000000000000000000000000000000000000000000000000000000000000000000000000000000000000000000000000000000000000000000000000000000000000000000000000000000000000000000000000000000000000000000000000000000000000000000000000",
      "type": "0x0",
      "transactionHash": "0x0388f7badc27641b9b79f82e5779e8c7c4696b223b82d12c216e3266024cbedc",
      "transactionIndex": "0x62",
      "blockHash": "0xd9e7664fa1c3ef01edb6311fca46f52df380d25e34ac64cb74d48c572e396bf1",
      "blockNumber": "0x614335",
      "gasUsed": "0x7125",
      "effectiveGasPrice": "0x8b696b0ad",
      "from": "0xf8f8269488f73fab3935555fcddd6035699dee25",
      "to": "0x19c68c600cb47b53e9609de123bccc2e40a9b880",
      "contractAddress": null
    }
  ],
  "libraries": [],
  "pending": [],
  "returns": {},
  "timestamp": 1721923777,
  "chain": 11155111,
  "commit": "3b366c0"
}