{
  "transactions": [
    {
      "hash": "0x8e61781462d85307ff814f8409affd14035402a2b34f680f997afe59d40499ce",
      "transactionType": "CALL",
      "contractName": "TokenManager",
      "contractAddress": "0x50ef9e70da285ee6321f765997fcd294f0805d36",
      "function": "setRewardTokenAddress(address)",
      "arguments": [
        "0xA58889F7C6fc8D407F6B69e15E23fCf194b05Bce"
      ],
      "transaction": {
        "from": "0xf8f8269488f73fab3935555fcddd6035699dee25",
        "to": "0x50ef9e70da285ee6321f765997fcd294f0805d36",
        "gas": "0x959a",
        "value": "0x0",
        "input": "0x9a6acf20000000000000000000000000a58889f7c6fc8d407f6b69e15e23fcf194b05bce",
        "nonce": "0x4e6",
        "chainId": "0xaa36a7"
      },
      "additionalContracts": [],
      "isFixedGasLimit": false
    }
  ],
  "receipts": [
    {
      "status": "0x1",
      "cumulativeGasUsed": "0xaa4767",
      "logs": [],
      "logsBloom": "0x00000000000000000000000000000000000000000000000000000000000000000000000000000000000000000000000000000000000000000000000000000000000000000000000000000000000000000000000000000000000000000000000000000000000000000000000000000000000000000000000000000000000000000000000000000000000000000000000000000000000000000000000000000000000000000000000000000000000000000000000000000000000000000000000000000000000000000000000000000000000000000000000000000000000000000000000000000000000000000000000000000000000000000000000000000000",
      "type": "0x0",
      "transactionHash": "0x8e61781462d85307ff814f8409affd14035402a2b34f680f997afe59d40499ce",
      "transactionIndex": "0x5d",
      "blockHash": "0x0f3c2b4f0c7acdbf2e635e7b5dddc5a89908a999fce9aa051e9f984c4e12a8f8",
      "blockNumber": "0x5f8128",
      "gasUsed": "0x664b",
      "effectiveGasPrice": "0xb766ea2b",
      "from": "0xf8f8269488f73fab3935555fcddd6035699dee25",
      "to": "0x50ef9e70da285ee6321f765997fcd294f0805d36",
      "contractAddress": null
    }
  ],
  "libraries": [],
  "pending": [],
  "returns": {},
  "timestamp": 1720292534,
  "chain": 11155111,
  "commit": "6a243e2"
}