{
  "transactions": [
    {
      "hash": "0x81fe27d2c60ff11432d630e7c85c7758b6b1f5ee10aca0f636c7c324cf64e98c",
      "transactionType": "CALL",
      "contractName": null,
      "contractAddress": "0xab9afa1cdd3bf03a724694296cee2975fbf2c2a9",
      "function": "setRewardTokenAddress(address)",
      "arguments": [
        "0x6A9E0F05585647eff858E8680e41069bF87Ab1Ed"
      ],
      "transaction": {
        "from": "0xf8f8269488f73fab3935555fcddd6035699dee25",
        "to": "0xab9afa1cdd3bf03a724694296cee2975fbf2c2a9",
        "gas": "0x8d2c",
        "value": "0x0",
        "input": "0x9a6acf200000000000000000000000006a9e0f05585647eff858e8680e41069bf87ab1ed",
        "nonce": "0x5a7",
        "chainId": "0xaa36a7"
      },
      "additionalContracts": [],
      "isFixedGasLimit": false
    }
  ],
  "receipts": [
    {
      "status": "0x1",
      "cumulativeGasUsed": "0xfc3131",
      "logs": [],
      "logsBloom": "0x00000000000000000000000000000000000000000000000000000000000000000000000000000000000000000000000000000000000000000000000000000000000000000000000000000000000000000000000000000000000000000000000000000000000000000000000000000000000000000000000000000000000000000000000000000000000000000000000000000000000000000000000000000000000000000000000000000000000000000000000000000000000000000000000000000000000000000000000000000000000000000000000000000000000000000000000000000000000000000000000000000000000000000000000000000000",
      "type": "0x0",
      "transactionHash": "0x81fe27d2c60ff11432d630e7c85c7758b6b1f5ee10aca0f636c7c324cf64e98c",
      "transactionIndex": "0x47",
      "blockHash": "0xb5b54687cc90ae4719e258156190839f6ed43c18b912044843fc4d93f11bb898",
      "blockNumber": "0x6206ff",
      "gasUsed": "0x6635",
      "effectiveGasPrice": "0x567b6ac1",
      "from": "0xf8f8269488f73fab3935555fcddd6035699dee25",
      "to": "0xab9afa1cdd3bf03a724694296cee2975fbf2c2a9",
      "contractAddress": null
    }
  ],
  "libraries": [],
  "pending": [],
  "returns": {},
  "timestamp": 1722624567,
  "chain": 11155111,
  "commit": "4a3e77f"
}