{
  "transactions": [
    {
      "hash": "0xf7c84486aa43b3ad114357e3fbd56d77dbd85ac369519ca70b4dca9a87f25095",
      "transactionType": "CALL",
      "contractName": "VRFv2Consumer",
      "contractAddress": "0x6d315be97bde09563779b4558cf2bb26f3fcdb66",
      "function": "setLotteryContract(address)",
      "arguments": [
        "0x3E07d0Cf3CE90FF622D64b3F7D3343b8fc5E0776"
      ],
      "transaction": {
        "from": "0xf8f8269488f73fab3935555fcddd6035699dee25",
        "to": "0x6d315be97bde09563779b4558cf2bb26f3fcdb66",
        "gas": "0x8cf9",
        "value": "0x0",
        "input": "0x1590a04f0000000000000000000000003e07d0cf3ce90ff622d64b3f7d3343b8fc5e0776",
        "nonce": "0x4e5",
        "chainId": "0xaa36a7"
      },
      "additionalContracts": [],
      "isFixedGasLimit": false
    }
  ],
  "receipts": [
    {
      "status": "0x1",
      "cumulativeGasUsed": "0xdfa78b",
      "logs": [],
      "logsBloom": "0x00000000000000000000000000000000000000000000000000000000000000000000000000000000000000000000000000000000000000000000000000000000000000000000000000000000000000000000000000000000000000000000000000000000000000000000000000000000000000000000000000000000000000000000000000000000000000000000000000000000000000000000000000000000000000000000000000000000000000000000000000000000000000000000000000000000000000000000000000000000000000000000000000000000000000000000000000000000000000000000000000000000000000000000000000000000",
      "type": "0x0",
      "transactionHash": "0xf7c84486aa43b3ad114357e3fbd56d77dbd85ac369519ca70b4dca9a87f25095",
      "transactionIndex": "0x6a",
      "blockHash": "0x9482c8bf6387afacbe10f0f6e3f15a251ee76f8a77c21a6368756c2f8d788c38",
      "blockNumber": "0x5f76f4",
      "gasUsed": "0x6610",
      "effectiveGasPrice": "0x36793d468",
      "from": "0xf8f8269488f73fab3935555fcddd6035699dee25",
      "to": "0x6d315be97bde09563779b4558cf2bb26f3fcdb66",
      "contractAddress": null
    }
  ],
  "libraries": [],
  "pending": [],
  "returns": {},
  "timestamp": 1720257402,
  "chain": 11155111,
  "commit": "6a243e2"
}