{
  "transactions": [
    {
      "hash": "0x4052be66daed06919e55ff35e948f95ce74b0fdc141a286519ab8f471b7b270c",
      "transactionType": "CALL",
      "contractName": null,
      "contractAddress": "0xafb04620b1bfac4a59d141fde8c79b3b075f79b0",
      "function": "setRewardTokenAddress(address)",
      "arguments": [
        "0x6B4127F62E5d15DbE754441bD4dF79c71273996a"
      ],
      "transaction": {
        "from": "0xf8f8269488f73fab3935555fcddd6035699dee25",
        "to": "0xafb04620b1bfac4a59d141fde8c79b3b075f79b0",
        "gas": "0x10729",
        "value": "0x0",
        "input": "0x9a6acf200000000000000000000000006b4127f62e5d15dbe754441bd4df79c71273996a",
        "nonce": "0x58d",
        "chainId": "0xaa36a7"
      },
      "additionalContracts": [],
      "isFixedGasLimit": false
    }
  ],
  "receipts": [
    {
      "status": "0x1",
      "cumulativeGasUsed": "0xdec734",
      "logs": [],
      "logsBloom": "0x00000000000000000000000000000000000000000000000000000000000000000000000000000000000000000000000000000000000000000000000000000000000000000000000000000000000000000000000000000000000000000000000000000000000000000000000000000000000000000000000000000000000000000000000000000000000000000000000000000000000000000000000000000000000000000000000000000000000000000000000000000000000000000000000000000000000000000000000000000000000000000000000000000000000000000000000000000000000000000000000000000000000000000000000000000000",
      "type": "0x0",
      "transactionHash": "0x4052be66daed06919e55ff35e948f95ce74b0fdc141a286519ab8f471b7b270c",
      "transactionIndex": "0x4d",
      "blockHash": "0x81a7083947c8f875eaee59a5967506182e7aeb126ea6af7262d83c4a53dad75a",
      "blockNumber": "0x616db6",
      "gasUsed": "0xb3f1",
      "effectiveGasPrice": "0x46f052d3",
      "from": "0xf8f8269488f73fab3935555fcddd6035699dee25",
      "to": "0xafb04620b1bfac4a59d141fde8c79b3b075f79b0",
      "contractAddress": null
    }
  ],
  "libraries": [],
  "pending": [],
  "returns": {},
  "timestamp": 1722083209,
  "chain": 11155111,
  "commit": "b95c596"
}