{
  "transactions": [
    {
      "hash": "0x227722ffed653add25a851367c707f9fcad37b577c68fe5035673a96536e8d90",
      "transactionType": "CALL",
      "contractName": "Lottery",
      "contractAddress": "0x0818477A1FBC549f449605F627971B87b599AE28",
      "function": "setTokenManager(address)",
      "arguments": [
        "0x50eF9E70dA285ee6321F765997FCd294f0805d36"
      ],
      "transaction": {
        "type": "0x02",
        "from": "0xf8f8269488f73fab3935555fcddd6035699dee25",
        "to": "0x0818477a1fbc549f449605f627971b87b599ae28",
        "gas": "0xa597",
        "value": "0x0",
        "data": "0x7cb2b79c00000000000000000000000050ef9e70da285ee6321f765997fcd294f0805d36",
        "nonce": "0x489",
        "accessList": []
      },
      "additionalContracts": [],
      "isFixedGasLimit": false
    }
  ],
  "receipts": [
    {
      "transactionHash": "0x227722ffed653add25a851367c707f9fcad37b577c68fe5035673a96536e8d90",
      "transactionIndex": "0x7",
      "blockHash": "0x672085b17e9a25fa34da0fb20332ad27f2921deeab3b5175184e3c08b8f818e3",
      "blockNumber": "0x59d96b",
      "from": "0xF8f8269488f73fab3935555FCDdD6035699deE25",
      "to": "0x0818477A1FBC549f449605F627971B87b599AE28",
      "cumulativeGasUsed": "0x6b26e",
      "gasUsed": "0x713a",
      "contractAddress": null,
      "logs": [],
      "status": "0x1",
      "logsBloom": "0x00000000000000000000000000000000000000000000000000000000000000000000000000000000000000000000000000000000000000000000000000000000000000000000000000000000000000000000000000000000000000000000000000000000000000000000000000000000000000000000000000000000000000000000000000000000000000000000000000000000000000000000000000000000000000000000000000000000000000000000000000000000000000000000000000000000000000000000000000000000000000000000000000000000000000000000000000000000000000000000000000000000000000000000000000000000",
      "type": "0x2",
      "effectiveGasPrice": "0xd2266c76"
    }
  ],
  "libraries": [],
  "pending": [],
  "returns": {},
  "timestamp": 1715526469,
  "chain": 11155111,
  "commit": "f0357c2"
}