{
  "transactions": [
    {
      "hash": "0x8d2a1bbfd22d9526ad3e8453d8036b3215acdec41c02f6a36a5a8fe395f51fb2",
      "transactionType": "CALL",
      "contractName": "Lottery",
      "contractAddress": "0x3e07d0cf3ce90ff622d64b3f7d3343b8fc5e0776",
      "function": "setTokenManager(address)",
      "arguments": [
        "0x50eF9E70dA285ee6321F765997FCd294f0805d36"
      ],
      "transaction": {
        "from": "0xf8f8269488f73fab3935555fcddd6035699dee25",
        "to": "0x3e07d0cf3ce90ff622d64b3f7d3343b8fc5e0776",
        "gas": "0x8d67",
        "value": "0x0",
        "input": "0x7cb2b79c00000000000000000000000050ef9e70da285ee6321f765997fcd294f0805d36",
        "nonce": "0x4e7",
        "chainId": "0xaa36a7"
      },
      "additionalContracts": [],
      "isFixedGasLimit": false
    }
  ],
  "receipts": [
    {
      "status": "0x1",
      "cumulativeGasUsed": "0x7e43d7",
      "logs": [],
      "logsBloom": "0x00000000000000000000000000000000000000000000000000000000000000000000000000000000000000000000000000000000000000000000000000000000000000000000000000000000000000000000000000000000000000000000000000000000000000000000000000000000000000000000000000000000000000000000000000000000000000000000000000000000000000000000000000000000000000000000000000000000000000000000000000000000000000000000000000000000000000000000000000000000000000000000000000000000000000000000000000000000000000000000000000000000000000000000000000000000",
      "type": "0x0",
      "transactionHash": "0x8d2a1bbfd22d9526ad3e8453d8036b3215acdec41c02f6a36a5a8fe395f51fb2",
      "transactionIndex": "0x37",
      "blockHash": "0x8c8e250d86aa16cb698558e60a42e9246c7c58d0da66384dd5c45f08caf15fc4",
      "blockNumber": "0x5f818a",
      "gasUsed": "0x6660",
      "effectiveGasPrice": "0x13081a035",
      "from": "0xf8f8269488f73fab3935555fcddd6035699dee25",
      "to": "0x3e07d0cf3ce90ff622d64b3f7d3343b8fc5e0776",
      "contractAddress": null
    }
  ],
  "libraries": [],
  "pending": [],
  "returns": {},
  "timestamp": 1720293855,
  "chain": 11155111,
  "commit": "6a243e2"
}