{
  "transactions": [
    {
      "hash": "0xef6337c47f7b443b9863d93ce528ef101fe6d83e566b4ecdaaa939347b478ed5",
      "transactionType": "CALL",
      "contractName": "Lottery",
      "contractAddress": "0x0818477A1FBC549f449605F627971B87b599AE28",
      "function": "setVrfConsumer(address)",
      "arguments": [
        "0x137Dc38755134374d14afDb0AB0c04335F499362"
      ],
      "transaction": {
        "type": "0x02",
        "from": "0xf8f8269488f73fab3935555fcddd6035699dee25",
        "to": "0x0818477a1fbc549f449605f627971b87b599ae28",
        "gas": "0xa547",
        "value": "0x0",
        "data": "0xa829326d000000000000000000000000137dc38755134374d14afdb0ab0c04335f499362",
        "nonce": "0x4a3",
        "accessList": []
      },
      "additionalContracts": [],
      "isFixedGasLimit": false
    }
  ],
  "receipts": [
    {
      "transactionHash": "0xef6337c47f7b443b9863d93ce528ef101fe6d83e566b4ecdaaa939347b478ed5",
      "transactionIndex": "0x5",
      "blockHash": "0x57c97996447606ce1f4174e37451c6dbf16cbb4ac4d608966d9a91f08f4ca9dc",
      "blockNumber": "0x59f5e5",
      "from": "0xF8f8269488f73fab3935555FCDdD6035699deE25",
      "to": "0x0818477A1FBC549f449605F627971B87b599AE28",
      "cumulativeGasUsed": "0x7d098",
      "gasUsed": "0x7103",
      "contractAddress": null,
      "logs": [],
      "status": "0x1",
      "logsBloom": "0x00000000000000000000000000000000000000000000000000000000000000000000000000000000000000000000000000000000000000000000000000000000000000000000000000000000000000000000000000000000000000000000000000000000000000000000000000000000000000000000000000000000000000000000000000000000000000000000000000000000000000000000000000000000000000000000000000000000000000000000000000000000000000000000000000000000000000000000000000000000000000000000000000000000000000000000000000000000000000000000000000000000000000000000000000000000",
      "type": "0x2",
      "effectiveGasPrice": "0x36deca2502"
    }
  ],
  "libraries": [],
  "pending": [],
  "returns": {},
  "timestamp": 1715619110,
  "chain": 11155111,
  "commit": "cfc1877"
}