{
  "transactions": [
    {
      "hash": "0x8755a3f2189c7f49a9251b1017796ee9d3bd4d040e49d27a9b5e5fb6251df190",
      "transactionType": "CALL",
      "contractName": "Lottery",
      "contractAddress": "0x0818477A1FBC549f449605F627971B87b599AE28",
      "function": "setVrfConsumer(address)",
      "arguments": [
        "0xA3838100aDC629874C864A9F49D3191EC8Cc3F35"
      ],
      "transaction": {
        "type": "0x02",
        "from": "0xf8f8269488f73fab3935555fcddd6035699dee25",
        "to": "0x0818477a1fbc549f449605f627971b87b599ae28",
        "gas": "0x9c07",
        "value": "0x0",
        "data": "0xa829326d000000000000000000000000a3838100adc629874c864a9f49d3191ec8cc3f35",
        "nonce": "0x497",
        "accessList": []
      },
      "additionalContracts": [],
      "isFixedGasLimit": false
    }
  ],
  "receipts": [
    {
      "transactionHash": "0x8755a3f2189c7f49a9251b1017796ee9d3bd4d040e49d27a9b5e5fb6251df190",
      "transactionIndex": "0x11",
      "blockHash": "0xf9ac87645eb8fe3f5859d27c15bbcaa1fe950ab41c5f18d42199e4c9b7f55a8d",
      "blockNumber": "0x59ef89",
      "from": "0xF8f8269488f73fab3935555FCDdD6035699deE25",
      "to": "0x0818477A1FBC549f449605F627971B87b599AE28",
      "cumulativeGasUsed": "0x2091a7",
      "gasUsed": "0x70f7",
      "contractAddress": null,
      "logs": [],
      "status": "0x1",
      "logsBloom": "0x00000000000000000000000000000000000000000000000000000000000000000000000000000000000000000000000000000000000000000000000000000000000000000000000000000000000000000000000000000000000000000000000000000000000000000000000000000000000000000000000000000000000000000000000000000000000000000000000000000000000000000000000000000000000000000000000000000000000000000000000000000000000000000000000000000000000000000000000000000000000000000000000000000000000000000000000000000000000000000000000000000000000000000000000000000000",
      "type": "0x2",
      "effectiveGasPrice": "0x2f53c5d059"
    }
  ],
  "libraries": [],
  "pending": [],
  "returns": {},
  "timestamp": 1715598448,
  "chain": 11155111,
  "commit": "b8b949f"
}