{
  "transactions": [
    {
      "hash": "0x58cfd9676204bd64b563f02a97d6eda7c85958c89bfcb8cfc92a5f35001b150e",
      "transactionType": "CALL",
      "contractName": null,
      "contractAddress": "0x2761ef18de0018a2fef0eee16f85a8fa59401822",
      "function": "setRewardTokenAddress(address)",
      "arguments": [
        "0xc18b35F67fe20606E61353f0A0a2332b08bD5872"
      ],
      "transaction": {
        "from": "0xf8f8269488f73fab3935555fcddd6035699dee25",
        "to": "0x2761ef18de0018a2fef0eee16f85a8fa59401822",
        "gas": "0xf8a9",
        "value": "0x0",
        "input": "0x9a6acf20000000000000000000000000c18b35f67fe20606e61353f0a0a2332b08bd5872",
        "nonce": "0x52e",
        "chainId": "0xaa36a7"
      },
      "additionalContracts": [],
      "isFixedGasLimit": false
    }
  ],
  "receipts": [
    {
      "status": "0x1",
      "cumulativeGasUsed": "0xf0a1fd",
      "logs": [],
      "logsBloom": "0x00000000000000000000000000000000000000000000000000000000000000000000000000000000000000000000000000000000000000000000000000000000000000000000000000000000000000000000000000000000000000000000000000000000000000000000000000000000000000000000000000000000000000000000000000000000000000000000000000000000000000000000000000000000000000000000000000000000000000000000000000000000000000000000000000000000000000000000000000000000000000000000000000000000000000000000000000000000000000000000000000000000000000000000000000000000",
      "type": "0x0",
      "transactionHash": "0x58cfd9676204bd64b563f02a97d6eda7c85958c89bfcb8cfc92a5f35001b150e",
      "transactionIndex": "0x71",
      "blockHash": "0xfe1e6e3f78cfd794826b3eeb393aa3c35b8bd7023fded5ead09038b4fbdc5e88",
      "blockNumber": "0x608a15",
      "gasUsed": "0xb407",
      "effectiveGasPrice": "0x1f1876c0e",
      "from": "0xf8f8269488f73fab3935555fcddd6035699dee25",
      "to": "0x2761ef18de0018a2fef0eee16f85a8fa59401822",
      "contractAddress": null
    }
  ],
  "libraries": [],
  "pending": [],
  "returns": {},
  "timestamp": 1721211991,
  "chain": 11155111,
  "commit": "f50bb34"
}