{
  "transactions": [
    {
      "hash": "0x109ff07de76c40f80443e7b95a9065f404dcc9a17cdffd82088bb456f7f63057",
      "transactionType": "CALL",
      "contractName": null,
      "contractAddress": "0x771b861533f52f4a2fbcc31e1073aa888f181561",
      "function": "setRewardTokenAddress(address)",
      "arguments": [
        "0xF1DeB60644079bC1196D3347673d37e214e5cef4"
      ],
      "transaction": {
        "from": "0xf8f8269488f73fab3935555fcddd6035699dee25",
        "to": "0x771b861533f52f4a2fbcc31e1073aa888f181561",
        "gas": "0x10729",
        "value": "0x0",
        "input": "0x9a6acf20000000000000000000000000f1deb60644079bc1196d3347673d37e214e5cef4",
        "nonce": "0x54b",
        "chainId": "0xaa36a7"
      },
      "additionalContracts": [],
      "isFixedGasLimit": false
    }
  ],
  "receipts": [
    {
      "status": "0x1",
      "cumulativeGasUsed": "0x8903d0",
      "logs": [],
      "logsBloom": "0x00000000000000000000000000000000000000000000000000000000000000000000000000000000000000000000000000000000000000000000000000000000000000000000000000000000000000000000000000000000000000000000000000000000000000000000000000000000000000000000000000000000000000000000000000000000000000000000000000000000000000000000000000000000000000000000000000000000000000000000000000000000000000000000000000000000000000000000000000000000000000000000000000000000000000000000000000000000000000000000000000000000000000000000000000000000",
      "type": "0x0",
      "transactionHash": "0x109ff07de76c40f80443e7b95a9065f404dcc9a17cdffd82088bb456f7f63057",
      "transactionIndex": "0x53",
      "blockHash": "0x57abd2f184c76e5f891b0d9eb1b8b6bd1dce3de6030f01abcef9abff81743e59",
      "blockNumber": "0x609ede",
      "gasUsed": "0xb3f1",
      "effectiveGasPrice": "0x1f407fcf7",
      "from": "0xf8f8269488f73fab3935555fcddd6035699dee25",
      "to": "0x771b861533f52f4a2fbcc31e1073aa888f181561",
      "contractAddress": null
    }
  ],
  "libraries": [],
  "pending": [],
  "returns": {},
  "timestamp": 1721289902,
  "chain": 11155111,
  "commit": "3b366c0"
}