{
  "transactions": [
    {
      "hash": "0xbca7443ee3b92fe3d506ae95bae6f2a2627f62eb91680041ea845df5ad82c7f4",
      "transactionType": "CALL",
      "contractName": null,
      "contractAddress": "0xf59da32b9b06b5c8306df56add52071cb06d5296",
      "function": "transferFTN(address,uint256)",
      "arguments": [
        "0xF8f8269488f73fab3935555FCDdD6035699deE25",
        "100000000000000000000"
      ],
      "transaction": {
        "from": "0xf8f8269488f73fab3935555fcddd6035699dee25",
        "to": "0xf59da32b9b06b5c8306df56add52071cb06d5296",
        "gas": "0x13f63",
        "value": "0x0",
        "input": "0x2bf72e45000000000000000000000000f8f8269488f73fab3935555fcddd6035699dee250000000000000000000000000000000000000000000000056bc75e2d63100000",
        "nonce": "0x115",
        "chainId": "0x4e454153"
      },
      "additionalContracts": [],
      "isFixedGasLimit": false
    }
  ],
  "receipts": [
    {
      "status": "0x1",
      "cumulativeGasUsed": "0x0",
      "logs": [
        {
          "address": "0x4c01c2cb671bf65d68e2fd555fb9635de8a0b01d",
          "topics": [
            "0xddf252ad1be2c89b69c2b068fc378daa952ba7f163c4a11628f55a4df523b3ef",
            "0x000000000000000000000000f59da32b9b06b5c8306df56add52071cb06d5296",
            "0x000000000000000000000000f8f8269488f73fab3935555fcddd6035699dee25"
          ],
          "data": "0x0000000000000000000000000000000000000000000000056bc75e2d63100000",
          "blockHash": "0x7382194f3a6d7189565fda96b5e53967dc8ac42f0a870107fbdf26a1ee1125a3",
          "blockNumber": "0xad6ea47",
          "transactionHash": "0xbca7443ee3b92fe3d506ae95bae6f2a2627f62eb91680041ea845df5ad82c7f4",
          "transactionIndex": "0x0",
          "logIndex": "0x0",
          "removed": false
        }
      ],
      "logsBloom": "0x00000000000000000000000000000000000000000000000000000000000000000000000000000000000000000000000000000000000000000000000000001000000000000000080000000008000000000000040000000000000000400000000010000000000100000000000200000000000000000000000000000010000000000000000000000000000000000020000000000000000000000000000000000000000000000000000000000000000000000000000000000000000000000000000000000002000000000000000000000002000000000000000000000000000000000000000000000000000000000000000000000000000000000000000000000000",
      "type": "0x0",
      "transactionHash": "0xbca7443ee3b92fe3d506ae95bae6f2a2627f62eb91680041ea845df5ad82c7f4",
      "transactionIndex": "0x0",
      "blockHash": "0x7382194f3a6d7189565fda96b5e53967dc8ac42f0a870107fbdf26a1ee1125a3",
      "blockNumber": "0xad6ea47",
      "gasUsed": "0xe73c",
      "effectiveGasPrice": "0x0",
      "from": "0xf8f8269488f73fab3935555fcddd6035699dee25",
      "to": "0xf59da32b9b06b5c8306df56add52071cb06d5296",
      "contractAddress": null,
      "nearReceiptHash": "0xdda0a33678ccc80d4b143cdb4784f986f4ce9fcd0b00d7ecaed401038abad3d4",
      "nearTransactionHash": "0xb42474c6fef8733b21aa04bed32dc5f4ce239d2123b0c80d3214809a875587e1"
    }
  ],
  "libraries": [],
  "pending": [],
  "returns": {},
  "timestamp": 1733929685,
  "chain": 1313161555,
  "commit": "84aac85"
}