{
  "transactions": [
    {
      "hash": "0xcbf84d8f577f6835a4bc2649d7ea6893f8adcfc1adfe807a152b3d12c798e34f",
      "transactionType": "CALL",
      "contractName": null,
      "contractAddress": "0xf59da32b9b06b5c8306df56add52071cb06d5296",
      "function": "setLockDropAddress(address)",
      "arguments": [
        "0xe7f471Cd6CAf931238Ff459AedC8102e3EFC1a07"
      ],
      "transaction": {
        "from": "0xf8f8269488f73fab3935555fcddd6035699dee25",
        "to": "0xf59da32b9b06b5c8306df56add52071cb06d5296",
        "gas": "0xf8c7",
        "value": "0x0",
        "input": "0xb6e7377d000000000000000000000000e7f471cd6caf931238ff459aedc8102e3efc1a07",
        "nonce": "0x113",
        "chainId": "0x4e454153"
      },
      "additionalContracts": [],
      "isFixedGasLimit": false
    },
    {
      "hash": "0x30e6de66054f20dfc9b0b711e0c2dfce257cbc7c134c1df778884dd4c009bf2f",
      "transactionType": "CALL",
      "contractName": null,
      "contractAddress": "0xf59da32b9b06b5c8306df56add52071cb06d5296",
      "function": "setRewardTokenAddress(address)",
      "arguments": [
        "0x4C01c2Cb671Bf65d68E2fd555Fb9635dE8A0B01D"
      ],
      "transaction": {
        "from": "0xf8f8269488f73fab3935555fcddd6035699dee25",
        "to": "0xf59da32b9b06b5c8306df56add52071cb06d5296",
        "gas": "0xf8a9",
        "value": "0x0",
        "input": "0x9a6acf200000000000000000000000004c01c2cb671bf65d68e2fd555fb9635de8a0b01d",
        "nonce": "0x114",
        "chainId": "0x4e454153"
      },
      "additionalContracts": [],
      "isFixedGasLimit": false
    }
  ],
  "receipts": [
    {
      "status": "0x1",
      "cumulativeGasUsed": "0x0",
      "logs": [],
      "logsBloom": "0x00000000000000000000000000000000000000000000000000000000000000000000000000000000000000000000000000000000000000000000000000000000000000000000000000000000000000000000000000000000000000000000000000000000000000000000000000000000000000000000000000000000000000000000000000000000000000000000000000000000000000000000000000000000000000000000000000000000000000000000000000000000000000000000000000000000000000000000000000000000000000000000000000000000000000000000000000000000000000000000000000000000000000000000000000000000",
      "type": "0x0",
      "transactionHash": "0xcbf84d8f577f6835a4bc2649d7ea6893f8adcfc1adfe807a152b3d12c798e34f",
      "transactionIndex": "0x0",
      "blockHash": "0x6058b671f376e864af1defd2950a413feffa177d73e340c28c5cbf89f73e9a6c",
      "blockNumber": "0xad6e0bc",
      "gasUsed": "0xb41d",
      "effectiveGasPrice": "0x0",
      "from": "0xf8f8269488f73fab3935555fcddd6035699dee25",
      "to": "0xf59da32b9b06b5c8306df56add52071cb06d5296",
      "contractAddress": null,
      "nearReceiptHash": "0x78aab7a69272c36ca528d96c6b5ea5fa7272dc3a3cd996b6ac6a7a769b8827fc",
      "nearTransactionHash": "0x8f6b6767adcf01e85fd107d2491dc27644e0b1915bf7a30d1348d3f17bdf8bef"
    },
    {
      "status": "0x1",
      "cumulativeGasUsed": "0x0",
      "logs": [],
      "logsBloom": "0x00000000000000000000000000000000000000000000000000000000000000000000000000000000000000000000000000000000000000000000000000000000000000000000000000000000000000000000000000000000000000000000000000000000000000000000000000000000000000000000000000000000000000000000000000000000000000000000000000000000000000000000000000000000000000000000000000000000000000000000000000000000000000000000000000000000000000000000000000000000000000000000000000000000000000000000000000000000000000000000000000000000000000000000000000000000",
      "type": "0x0",
      "transactionHash": "0x30e6de66054f20dfc9b0b711e0c2dfce257cbc7c134c1df778884dd4c009bf2f",
      "transactionIndex": "0x0",
      "blockHash": "0x6207ba0501a55ee5539303fc798906a2cede0640b1f1a4bdc613375afb5923bf",
      "blockNumber": "0xad6e0be",
      "gasUsed": "0xb407",
      "effectiveGasPrice": "0x0",
      "from": "0xf8f8269488f73fab3935555fcddd6035699dee25",
      "to": "0xf59da32b9b06b5c8306df56add52071cb06d5296",
      "contractAddress": null,
      "nearReceiptHash": "0x89cd4aaf589e6ee5e14a78c0533662c3d8fa86164e3813cd1951aeccf2ee1b20",
      "nearTransactionHash": "0x444b65c2a089de26e42641424ff18006c190976918534279b1884cbfd99ac6b8"
    }
  ],
  "libraries": [],
  "pending": [],
  "returns": {},
  "timestamp": 1733927253,
  "chain": 1313161555,
  "commit": "84aac85"
}