{
  "transactions": [
    {
      "hash": "0xb9d0aab63a3a03d263b485d1a17a4d239dfb766866b03ac5e963095763a79aab",
      "transactionType": "CALL",
      "contractName": null,
      "contractAddress": "0xe7f471cd6caf931238ff459aedc8102e3efc1a07",
      "function": "deposit(uint256)",
      "arguments": [
        "40000000000000000000"
      ],
      "transaction": {
        "from": "0xf8f8269488f73fab3935555fcddd6035699dee25",
        "to": "0xe7f471cd6caf931238ff459aedc8102e3efc1a07",
        "gas": "0x23c4c",
        "value": "0x0",
        "input": "0xb6b55f250000000000000000000000000000000000000000000000022b1c8c1227a00000",
        "nonce": "0x117",
        "chainId": "0x4e454153"
      },
      "additionalContracts": [],
      "isFixedGasLimit": false
    }
  ],
  "receipts": [
    {
      "status": "0x1",
      "cumulativeGasUsed": "0x0",
      "logs": [
        {
          "address": "0x4c01c2cb671bf65d68e2fd555fb9635de8a0b01d",
          "topics": [
            "0xddf252ad1be2c89b69c2b068fc378daa952ba7f163c4a11628f55a4df523b3ef",
            "0x000000000000000000000000f8f8269488f73fab3935555fcddd6035699dee25",
            "0x000000000000000000000000e7f471cd6caf931238ff459aedc8102e3efc1a07"
          ],
          "data": "0x0000000000000000000000000000000000000000000000022b1c8c1227a00000",
          "blockHash": "0xf68c7716643aca9a3594d74099dbc2313a12412da12b1f8bda8882050937870b",
          "blockNumber": "0xad6ec22",
          "transactionHash": "0xb9d0aab63a3a03d263b485d1a17a4d239dfb766866b03ac5e963095763a79aab",
          "transactionIndex": "0x0",
          "logIndex": "0x0",
          "removed": false
        },
        {
          "address": "0xe7f471cd6caf931238ff459aedc8102e3efc1a07",
          "topics": [
            "0xa91e0c3165215fe453f5bf3de083d5fd6c4e62c491849155a042a647588c53a0",
            "0x000000000000000000000000f8f8269488f73fab3935555fcddd6035699dee25"
          ],
          "data": "0x0000000000000000000000000000000000000000000000022b1c8c1227a00000000000000000000000000000000000000000000000000000000000000ad6ec22",
          "blockHash": "0xf68c7716643aca9a3594d74099dbc2313a12412da12b1f8bda8882050937870b",
          "blockNumber": "0xad6ec22",
          "transactionHash": "0xb9d0aab63a3a03d263b485d1a17a4d239dfb766866b03ac5e963095763a79aab",
          "transactionIndex": "0x0",
          "logIndex": "0x1",
          "removed": false
        }
      ],
      "logsBloom": "0x00000000000000000200000000000000000000000000000000000000000000000000000000000000000000000000000000000000000000000000000000000000000000000000080200000008000000000000040000000000000000400000000010000000800000000000400000000000020000000000000000000010000000000000000000000000000000000120000000000000000000000000000000000000000000000000000000000000000000000000000000000000200000000000000000000802000000000000000000000002000000000000000000000000000000000000000000000000000000000000000000000000000800000000000000000000",
      "type": "0x0",
      "transactionHash": "0xb9d0aab63a3a03d263b485d1a17a4d239dfb766866b03ac5e963095763a79aab",
      "transactionIndex": "0x0",
      "blockHash": "0xf68c7716643aca9a3594d74099dbc2313a12412da12b1f8bda8882050937870b",
      "blockNumber": "0xad6ec22",
      "gasUsed": "0x19e56",
      "effectiveGasPrice": "0x0",
      "from": "0xf8f8269488f73fab3935555fcddd6035699dee25",
      "to": "0xe7f471cd6caf931238ff459aedc8102e3efc1a07",
      "contractAddress": null,
      "nearReceiptHash": "0xfaf40a1a3081ba96605184a9482a37da8868b0c3fb33e4bccf9ad023283e457c",
      "nearTransactionHash": "0x47d6349ab637947cc0e2081be1f325d8007aa55558e30be28b1fedf513e06229"
    }
  ],
  "libraries": [],
  "pending": [],
  "returns": {},
  "timestamp": 1733930165,
  "chain": 1313161555,
  "commit": "84aac85"
}