{
  "transactions": [
    {
      "hash": "0x8d9deb4326da9dc0aec706df8464c67b26f4f17ba1e9cc07f65e38d8a67d3fc6",
      "transactionType": "CALL",
      "contractName": null,
      "contractAddress": "0x164fe267051086256973c6561e01c83b10fcbbb8",
      "function": "registerBottle(string,bytes32,address)",
      "arguments": [
        "000000000000001",
        "0xd26fe0985dfb6da664b3c62f4ae07e0f307c9f212a10f760f28cdfa5a571d0aa",
        "0xF8f8269488f73fab3935555FCDdD6035699deE25"
      ],
      "transaction": {
        "from": "0xf8f8269488f73fab3935555fcddd6035699dee25",
        "to": "0x164fe267051086256973c6561e01c83b10fcbbb8",
        "gas": "0x20c28",
        "value": "0x0",
        "input": "0x9b001dcb0000000000000000000000000000000000000000000000000000000000000060d26fe0985dfb6da664b3c62f4ae07e0f307c9f212a10f760f28cdfa5a571d0aa000000000000000000000000f8f8269488f73fab3935555fcddd6035699dee25000000000000000000000000000000000000000000000000000000000000000f3030303030303030303030303030310000000000000000000000000000000000",
        "nonce": "0x120",
        "chainId": "0x4e454153"
      },
      "additionalContracts": [],
      "isFixedGasLimit": false
    }
  ],
  "receipts": [
    {
      "status": "0x1",
      "cumulativeGasUsed": "0x0",
      "logs": [
        {
          "address": "0x164fe267051086256973c6561e01c83b10fcbbb8",
          "topics": [
            "0xb1b956abd91c0d4fed1eead8d8a20c58406efd2ab02033a13f00114f7cc4bae2"
          ],
          "data": "0x0000000000000000000000000000000000000000000000000000000000000060d26fe0985dfb6da664b3c62f4ae07e0f307c9f212a10f760f28cdfa5a571d0aa000000000000000000000000f8f8269488f73fab3935555fcddd6035699dee25000000000000000000000000000000000000000000000000000000000000000f3030303030303030303030303030310000000000000000000000000000000000",
          "blockHash": "0xdca6deaeafbe44cdd4533bb2e025e9ab27f79c4b4f1f3d58b93647f0f874e0d5",
          "blockNumber": "0xb46ed6d",
          "transactionHash": "0x8d9deb4326da9dc0aec706df8464c67b26f4f17ba1e9cc07f65e38d8a67d3fc6",
          "transactionIndex": "0x0",
          "logIndex": "0x0",
          "removed": false
        }
      ],
      "logsBloom": "0x00000000000000000200000000000000000000000000000000080000000000000000000000001000000000000000000000000000000000000000000000000000000000000000000000000000000000000000000000000000000000000000000000000000000001000000000000000000000001000000000000000000000000000000000000000000000000000000000000000000000000000000000000000000000000000000000000000000000000000000040000000000000000000000000000000000000000000000000000000000000000000000000000000000000000000000000000000000000000000000000000000000000000000000000000000000",
      "type": "0x0",
      "transactionHash": "0x8d9deb4326da9dc0aec706df8464c67b26f4f17ba1e9cc07f65e38d8a67d3fc6",
      "transactionIndex": "0x0",
      "blockHash": "0xdca6deaeafbe44cdd4533bb2e025e9ab27f79c4b4f1f3d58b93647f0f874e0d5",
      "blockNumber": "0xb46ed6d",
      "gasUsed": "0x17b7c",
      "effectiveGasPrice": "0x0",
      "from": "0xf8f8269488f73fab3935555fcddd6035699dee25",
      "to": "0x164fe267051086256973c6561e01c83b10fcbbb8",
      "contractAddress": null,
      "nearReceiptHash": "0x608c7230a048c7c0a6a1a8b53286d677622c5198b42cc4f6d615617d3aa2abc7",
      "nearTransactionHash": "0x7e88496c9dab10781b49558279d7457cbb5820fff077303c2f2abc6333b3e503"
    }
  ],
  "libraries": [],
  "pending": [],
  "returns": {},
  "timestamp": 1741098642,
  "chain": 1313161555,
  "commit": "84aac85"
}