{
  "transactions": [
    {
      "hash": "0xd64ded2fe87694d8be8024f0507f4c80d4a49abbcd5523ed4c1e2cb4785c37bf",
      "transactionType": "CALL",
      "contractName": null,
      "contractAddress": "0x3f2486cf7f916fd99ef4eeff848f8cb8ee6a32b2",
      "function": "registerBottle(string,bytes32,address)",
      "arguments": [
        "123456789ABCDEF",
        "0xd26fe0985dfb6da664b3c62f4ae07e0f307c9f212a10f760f28cdfa5a571d0aa",
        "0xF8f8269488f73fab3935555FCDdD6035699deE25"
      ],
      "transaction": {
        "from": "0xf8f8269488f73fab3935555fcddd6035699dee25",
        "to": "0x3f2486cf7f916fd99ef4eeff848f8cb8ee6a32b2",
        "gas": "0x21b89",
        "value": "0x0",
        "input": "0x9b001dcb0000000000000000000000000000000000000000000000000000000000000060d26fe0985dfb6da664b3c62f4ae07e0f307c9f212a10f760f28cdfa5a571d0aa000000000000000000000000f8f8269488f73fab3935555fcddd6035699dee25000000000000000000000000000000000000000000000000000000000000000f3132333435363738394142434445460000000000000000000000000000000000",
        "nonce": "0x11a",
        "chainId": "0x4e454153"
      },
      "additionalContracts": [],
      "isFixedGasLimit": false
    }
  ],
  "receipts": [
    {
      "status": "0x1",
      "cumulativeGasUsed": "0x0",
      "logs": [],
      "logsBloom": "0x00000000000000000000000000000000000000000000000000000000000000000000000000000000000000000000000000000000000000000000000000000000000000000000000000000000000000000000000000000000000000000000000000000000000000000000000000000000000000000000000000000000000000000000000000000000000000000000000000000000000000000000000000000000000000000000000000000000000000000000000000000000000000000000000000000000000000000000000000000000000000000000000000000000000000000000000000000000000000000000000000000000000000000000000000000000",
      "type": "0x0",
      "transactionHash": "0xd64ded2fe87694d8be8024f0507f4c80d4a49abbcd5523ed4c1e2cb4785c37bf",
      "transactionIndex": "0x0",
      "blockHash": "0x06a6c4acc6cea65c43f97a82c685cbf288b3c9d5e8d8d18975079426b63cf2b6",
      "blockNumber": "0xb46e2cf",
      "gasUsed": "0x170ea",
      "effectiveGasPrice": "0x0",
      "from": "0xf8f8269488f73fab3935555fcddd6035699dee25",
      "to": "0x3f2486cf7f916fd99ef4eeff848f8cb8ee6a32b2",
      "contractAddress": null,
      "nearReceiptHash": "0xaea9f231052536c9176984bd81335a67ce99bc4989f79eb0a64ed9965ec8eb84",
      "nearTransactionHash": "0xe6d5c3417ed70427578ea5625af60604311907a639fb9cfc037e75c4396751fd"
    }
  ],
  "libraries": [],
  "pending": [],
  "returns": {},
  "timestamp": 1741096019,
  "chain": 1313161555,
  "commit": "84aac85"
}