{
  "transactions": [
    {
      "hash": "0xbbe86962b37bc51d069b3d2bb4687edaad28c0cbaed4d213db1ab18912744faf",
      "transactionType": "CALL",
      "contractName": null,
      "contractAddress": "0x3f2486cf7f916fd99ef4eeff848f8cb8ee6a32b2",
      "function": "getBottle(string)",
      "arguments": [
        "123456789ABCDEF"
      ],
      "transaction": {
        "from": "0xf8f8269488f73fab3935555fcddd6035699dee25",
        "to": "0x3f2486cf7f916fd99ef4eeff848f8cb8ee6a32b2",
        "gas": "0xb64f",
        "value": "0x0",
        "input": "0xc9507caf0000000000000000000000000000000000000000000000000000000000000020000000000000000000000000000000000000000000000000000000000000000f3132333435363738394142434445460000000000000000000000000000000000",
        "nonce": "0x11d",
        "chainId": "0x4e454153"
      },
      "additionalContracts": [],
      "isFixedGasLimit": false
    }
  ],
  "receipts": [
    {
      "status": "0x1",
      "cumulativeGasUsed": "0x0",
      "logs": [],
      "logsBloom": "0x00000000000000000000000000000000000000000000000000000000000000000000000000000000000000000000000000000000000000000000000000000000000000000000000000000000000000000000000000000000000000000000000000000000000000000000000000000000000000000000000000000000000000000000000000000000000000000000000000000000000000000000000000000000000000000000000000000000000000000000000000000000000000000000000000000000000000000000000000000000000000000000000000000000000000000000000000000000000000000000000000000000000000000000000000000000",
      "type": "0x0",
      "transactionHash": "0xbbe86962b37bc51d069b3d2bb4687edaad28c0cbaed4d213db1ab18912744faf",
      "transactionIndex": "0x0",
      "blockHash": "0x56c49c5705227a64ac32209d64a047b873203bc46e47571fa5b8913fb1235eec",
      "blockNumber": "0xb46e607",
      "gasUsed": "0x83fe",
      "effectiveGasPrice": "0x0",
      "from": "0xf8f8269488f73fab3935555fcddd6035699dee25",
      "to": "0x3f2486cf7f916fd99ef4eeff848f8cb8ee6a32b2",
      "contractAddress": null,
      "nearReceiptHash": "0xb5d16606460993da6be8808ee6fec1c163ab715dc34b6bf6c0fe9baecc041c7b",
      "nearTransactionHash": "0x3ac8d3ff9a7cb0037e03e9326ec01948e9e2ce2e84e60f6b37a3155627158c36"
    }
  ],
  "libraries": [],
  "pending": [],
  "returns": {},
  "timestamp": 1741096829,
  "chain": 1313161555,
  "commit": "84aac85"
}