{
  "transactions": [
    {
      "hash": "0x7fcbcbedee3def34f75d298cf60f8b1bb4b82b913e32a8710605792ccee7b674",
      "transactionType": "CALL",
      "contractName": null,
      "contractAddress": "0x164fe267051086256973c6561e01c83b10fcbbb8",
      "function": "getBottle(string)",
      "arguments": [
        "000000000000001"
      ],
      "transaction": {
        "from": "0xf8f8269488f73fab3935555fcddd6035699dee25",
        "to": "0x164fe267051086256973c6561e01c83b10fcbbb8",
        "gas": "0xc4fc",
        "value": "0x0",
        "input": "0xc9507caf0000000000000000000000000000000000000000000000000000000000000020000000000000000000000000000000000000000000000000000000000000000f3030303030303030303030303030310000000000000000000000000000000000",
        "nonce": "0x121",
        "chainId": "0x4e454153"
      },
      "additionalContracts": [],
      "isFixedGasLimit": false
    }
  ],
  "receipts": [
    {
      "status": "0x1",
      "cumulativeGasUsed": "0x0",
      "logs": [
        {
          "address": "0x164fe267051086256973c6561e01c83b10fcbbb8",
          "topics": [
            "0x60ee1991fea8fdcf21ebd8e4e8992d5408e1f72c3737365f740185fc5eebc157"
          ],
          "data": "0x0000000000000000000000000000000000000000000000000000000000000060d26fe0985dfb6da664b3c62f4ae07e0f307c9f212a10f760f28cdfa5a571d0aa000000000000000000000000f8f8269488f73fab3935555fcddd6035699dee25000000000000000000000000000000000000000000000000000000000000000f3030303030303030303030303030310000000000000000000000000000000000",
          "blockHash": "0xacc8e7824d55b03e9ae8fe0b006d9d43009b05b5a03f5269c342711497e9c428",
          "blockNumber": "0xb46ed9f",
          "transactionHash": "0x7fcbcbedee3def34f75d298cf60f8b1bb4b82b913e32a8710605792ccee7b674",
          "transactionIndex": "0x0",
          "logIndex": "0x0",
          "removed": false
        }
      ],
      "logsBloom": "0x00000000000000000000000000000000000000000000000000080000000000010000000000001000000000000000000000000000000000000000000000000000000000000000000000000000000000000000000000000000000000000020000000000000000000000000000000000000000000200000000000000000000000000000000000000000000000000000000000000000000000000000000000000000000000000000000000000000000000000000040000000000000000000000000000000000000000000000000000000000000000000000000000000000000000000000000000000000000000000000000000000000000000000000000000000000",
      "type": "0x0",
      "transactionHash": "0x7fcbcbedee3def34f75d298cf60f8b1bb4b82b913e32a8710605792ccee7b674",
      "transactionIndex": "0x0",
      "blockHash": "0xacc8e7824d55b03e9ae8fe0b006d9d43009b05b5a03f5269c342711497e9c428",
      "blockNumber": "0xb46ed9f",
      "gasUsed": "0x8e9e",
      "effectiveGasPrice": "0x0",
      "from": "0xf8f8269488f73fab3935555fcddd6035699dee25",
      "to": "0x164fe267051086256973c6561e01c83b10fcbbb8",
      "contractAddress": null,
      "nearReceiptHash": "0x3136b2b3f845ba1b5db13ed936d6d0899e376d70e8c8e9fca8a46dc8fc79eb71",
      "nearTransactionHash": "0x0339e4c4fd8d9b5bcf7ae74bbb4c2b7b2c35a6be3e6251ebfa70a35a529a9f7d"
    }
  ],
  "libraries": [],
  "pending": [],
  "returns": {},
  "timestamp": 1741098684,
  "chain": 1313161555,
  "commit": "84aac85"
}