{
  "transactions": [
    {
      "hash": "0xf0b2e14faeb1e9a800b930378ad3c94be1f92fde38d7c61121c803afda2ca2ab",
      "transactionType": "CALL",
      "contractName": null,
      "contractAddress": "0x8991477985b9599c897099d39bc2b2deb9198760",
      "function": "registerBottle(string,bytes32,address,string)",
      "arguments": [
        "000000000000001",
        "0xd26fe0985dfb6da664b3c62f4ae07e0f307c9f212a10f760f28cdfa5a571d0aa",
        "0xF8f8269488f73fab3935555FCDdD6035699deE25",
        "ipfs://QmVUtkyKPHZa6qSvTGNYotUMfPU56VRg1hzqFuUn9ZuLFH"
      ],
      "transaction": {
        "from": "0xf8f8269488f73fab3935555fcddd6035699dee25",
        "to": "0x8991477985b9599c897099d39bc2b2deb9198760",
        "gas": "0x52f3b",
        "value": "0x0",
        "input": "0x63b7c1530000000000000000000000000000000000000000000000000000000000000080d26fe0985dfb6da664b3c62f4ae07e0f307c9f212a10f760f28cdfa5a571d0aa000000000000000000000000f8f8269488f73fab3935555fcddd6035699dee2500000000000000000000000000000000000000000000000000000000000000c0000000000000000000000000000000000000000000000000000000000000000f30303030303030303030303030303100000000000000000000000000000000000000000000000000000000000000000000000000000000000000000000000035697066733a2f2f516d5655746b794b50485a613671537654474e596f74554d665055353656526731687a714675556e395a754c46480000000000000000000000",
        "nonce": "0x129",
        "chainId": "0x4e454153"
      },
      "additionalContracts": [],
      "isFixedGasLimit": false
    }
  ],
  "receipts": [
    {
      "status": "0x1",
      "cumulativeGasUsed": "0x0",
      "logs": [
        {
          "address": "0x8991477985b9599c897099d39bc2b2deb9198760",
          "topics": [
            "0xb1b956abd91c0d4fed1eead8d8a20c58406efd2ab02033a13f00114f7cc4bae2"
          ],
          "data": "0x0000000000000000000000000000000000000000000000000000000000000060d26fe0985dfb6da664b3c62f4ae07e0f307c9f212a10f760f28cdfa5a571d0aa000000000000000000000000f8f8269488f73fab3935555fcddd6035699dee25000000000000000000000000000000000000000000000000000000000000000f3030303030303030303030303030310000000000000000000000000000000000",
          "blockHash": "0x8e5ac9c356f37b79314ace53b6607b279aa178d0979ed00e513af23f200e3e27",
          "blockNumber": "0xb499e2d",
          "transactionHash": "0xf0b2e14faeb1e9a800b930378ad3c94be1f92fde38d7c61121c803afda2ca2ab",
          "transactionIndex": "0x0",
          "logIndex": "0x0",
          "removed": false
        },
        {
          "address": "0x5bc633b509f718e788ce6b3758b6769bac4b8e75",
          "topics": [
            "0xddf252ad1be2c89b69c2b068fc378daa952ba7f163c4a11628f55a4df523b3ef",
            "0x0000000000000000000000000000000000000000000000000000000000000000",
            "0x000000000000000000000000f8f8269488f73fab3935555fcddd6035699dee25",
            "0x0000000000000000000000000000000000000000000000000000000000000000"
          ],
          "data": "0x",
          "blockHash": "0x8e5ac9c356f37b79314ace53b6607b279aa178d0979ed00e513af23f200e3e27",
          "blockNumber": "0xb499e2d",
          "transactionHash": "0xf0b2e14faeb1e9a800b930378ad3c94be1f92fde38d7c61121c803afda2ca2ab",
          "transactionIndex": "0x0",
          "logIndex": "0x1",
          "removed": false
        },
        {
          "address": "0x5bc633b509f718e788ce6b3758b6769bac4b8e75",
          "topics": [
            "0xf8e1a15aba9398e019f0b49df1a4fde98ee17ae345cb5f6b5e2c27f5033e8ce7"
          ],
          "data": "0x0000000000000000000000000000000000000000000000000000000000000000",
          "blockHash": "0x8e5ac9c356f37b79314ace53b6607b279aa178d0979ed00e513af23f200e3e27",
          "blockNumber": "0xb499e2d",
          "transactionHash": "0xf0b2e14faeb1e9a800b930378ad3c94be1f92fde38d7c61121c803afda2ca2ab",
          "transactionIndex": "0x0",
          "logIndex": "0x2",
          "removed": false
        }
      ],
      "logsBloom": "0x00000000000000000200000000000000000000000000000000000000000000000000000000000000000000000000800000000000000000000000000000000000800200000000080000000008000800000000040000000000000000000000000010000000020001000000000000000800000001000000000000000010000000000000000000000000000000000000000000000000000000000000000000000000000000000000000020000000000000002000000000000000004000000000008000000002000000000000000000000000000000000000000000000000000020000000000000000000200000000000000000000000000000000000000000000000",
      "type": "0x0",
      "transactionHash": "0xf0b2e14faeb1e9a800b930378ad3c94be1f92fde38d7c61121c803afda2ca2ab",
      "transactionIndex": "0x0",
      "blockHash": "0x8e5ac9c356f37b79314ace53b6607b279aa178d0979ed00e513af23f200e3e27",
      "blockNumber": "0xb499e2d",
      "gasUsed": "0x3c0e5",
      "effectiveGasPrice": "0x0",
      "from": "0xf8f8269488f73fab3935555fcddd6035699dee25",
      "to": "0x8991477985b9599c897099d39bc2b2deb9198760",
      "contractAddress": null,
      "nearReceiptHash": "0xc0babb8048361176daca11cf8bf45617302c7192c22639a1dabab3f2e6590e96",
      "nearTransactionHash": "0x5198577a221fb1d675007fa69a803612fb88afa27bc84c9c45954afff765746a"
    }
  ],
  "libraries": [],
  "pending": [],
  "returns": {},
  "timestamp": 1741272032,
  "chain": 1313161555,
  "commit": "b675f5a"
}