{
  "transactions": [
    {
      "hash": "0xac5405f71e799e12542f397c7618fd86412171aca1c9db6178b6dbd153bf2d29",
      "transactionType": "CALL",
      "contractName": null,
      "contractAddress": "0x7ff2c6bb8c835d0458e94c6a2b02c026ef9fd91c",
      "function": "registerBottle(string,bytes32,address,string)",
      "arguments": [
        "000000000000001",
        "0xd26fe0985dfb6da664b3c62f4ae07e0f307c9f212a10f760f28cdfa5a571d0aa",
        "0xF8f8269488f73fab3935555FCDdD6035699deE25",
        "ipfs://QmVUtkyKPHZa6qSvTGNYotUMfPU56VRg1hzqFuUn9ZuLFH"
      ],
      "transaction": {
        "from": "0xf8f8269488f73fab3935555fcddd6035699dee25",
        "to": "0x7ff2c6bb8c835d0458e94c6a2b02c026ef9fd91c",
        "gas": "0x4d959",
        "value": "0x0",
        "input": "0x63b7c1530000000000000000000000000000000000000000000000000000000000000080d26fe0985dfb6da664b3c62f4ae07e0f307c9f212a10f760f28cdfa5a571d0aa000000000000000000000000f8f8269488f73fab3935555fcddd6035699dee2500000000000000000000000000000000000000000000000000000000000000c0000000000000000000000000000000000000000000000000000000000000000f30303030303030303030303030303100000000000000000000000000000000000000000000000000000000000000000000000000000000000000000000000035697066733a2f2f516d5655746b794b50485a613671537654474e596f74554d665055353656526731687a714675556e395a754c46480000000000000000000000",
        "nonce": "0x134",
        "chainId": "0x4e454153"
      },
      "additionalContracts": [],
      "isFixedGasLimit": false
    }
  ],
  "receipts": [
    {
      "status": "0x1",
      "cumulativeGasUsed": "0x0",
      "logs": [
        {
          "address": "0x7ff2c6bb8c835d0458e94c6a2b02c026ef9fd91c",
          "topics": [
            "0xb1b956abd91c0d4fed1eead8d8a20c58406efd2ab02033a13f00114f7cc4bae2"
          ],
          "data": "0x0000000000000000000000000000000000000000000000000000000000000060d26fe0985dfb6da664b3c62f4ae07e0f307c9f212a10f760f28cdfa5a571d0aa000000000000000000000000f8f8269488f73fab3935555fcddd6035699dee25000000000000000000000000000000000000000000000000000000000000000f3030303030303030303030303030310000000000000000000000000000000000",
          "blockHash": "0xf6ff2c570d5e2ce6f31391e8328eff036b6a7ac1ca9d131ca11ce8f82959d61e",
          "blockNumber": "0xb49a9bd",
          "transactionHash": "0xac5405f71e799e12542f397c7618fd86412171aca1c9db6178b6dbd153bf2d29",
          "transactionIndex": "0x0",
          "logIndex": "0x0",
          "removed": false
        },
        {
          "address": "0x26f3f5b20785b4d1b8811eeb7abe8ed2667c537a",
          "topics": [
            "0x26ae4e620eb483fe1586942ebe7c6d3c1b59848ebc62a32cc42e116857f0d18c"
          ],
          "data": "0x0000000000000000000000000000000000000000000000000000000000000001",
          "blockHash": "0xf6ff2c570d5e2ce6f31391e8328eff036b6a7ac1ca9d131ca11ce8f82959d61e",
          "blockNumber": "0xb49a9bd",
          "transactionHash": "0xac5405f71e799e12542f397c7618fd86412171aca1c9db6178b6dbd153bf2d29",
          "transactionIndex": "0x0",
          "logIndex": "0x1",
          "removed": false
        },
        {
          "address": "0x26f3f5b20785b4d1b8811eeb7abe8ed2667c537a",
          "topics": [
            "0xddf252ad1be2c89b69c2b068fc378daa952ba7f163c4a11628f55a4df523b3ef",
            "0x0000000000000000000000000000000000000000000000000000000000000000",
            "0x000000000000000000000000f8f8269488f73fab3935555fcddd6035699dee25",
            "0x0000000000000000000000000000000000000000000000000000000000000001"
          ],
          "data": "0x",
          "blockHash": "0xf6ff2c570d5e2ce6f31391e8328eff036b6a7ac1ca9d131ca11ce8f82959d61e",
          "blockNumber": "0xb49a9bd",
          "transactionHash": "0xac5405f71e799e12542f397c7618fd86412171aca1c9db6178b6dbd153bf2d29",
          "transactionIndex": "0x0",
          "logIndex": "0x2",
          "removed": false
        },
        {
          "address": "0x26f3f5b20785b4d1b8811eeb7abe8ed2667c537a",
          "topics": [
            "0xf8e1a15aba9398e019f0b49df1a4fde98ee17ae345cb5f6b5e2c27f5033e8ce7"
          ],
          "data": "0x0000000000000000000000000000000000000000000000000000000000000001",
          "blockHash": "0xf6ff2c570d5e2ce6f31391e8328eff036b6a7ac1ca9d131ca11ce8f82959d61e",
          "blockNumber": "0xb49a9bd",
          "transactionHash": "0xac5405f71e799e12542f397c7618fd86412171aca1c9db6178b6dbd153bf2d29",
          "transactionIndex": "0x0",
          "logIndex": "0x3",
          "removed": false
        }
      ],
      "logsBloom": "0x00000000000000000200000000000000000000000000000000000000000000000000000000000000000000000000000000000000010000000000000000040000000000000000088000000008000004000000040200040000000000000000000010000000020001000000000000000800000001000000000000000010000000000000000000000000001000000000000000400000000000000000000000000000000000000000000000000000000000002000000800000000000000000000008000000002000000000000000000000000000000000000010000000000000060000000000000000000200000000000000000000000000000000000000000100000",
      "type": "0x0",
      "transactionHash": "0xac5405f71e799e12542f397c7618fd86412171aca1c9db6178b6dbd153bf2d29",
      "transactionIndex": "0x0",
      "blockHash": "0xf6ff2c570d5e2ce6f31391e8328eff036b6a7ac1ca9d131ca11ce8f82959d61e",
      "blockNumber": "0xb49a9bd",
      "gasUsed": "0x382b7",
      "effectiveGasPrice": "0x0",
      "from": "0xf8f8269488f73fab3935555fcddd6035699dee25",
      "to": "0x7ff2c6bb8c835d0458e94c6a2b02c026ef9fd91c",
      "contractAddress": null,
      "nearReceiptHash": "0x1362c12bc98866cd2f14b783fe032f84a04fe76d4eadea4d5ac2c617df62cb8a",
      "nearTransactionHash": "0xbb322fad45bb0f6936b8b661d49ecac6855cbe4ce10d5a223e525bf673baf036"
    }
  ],
  "libraries": [],
  "pending": [],
  "returns": {},
  "timestamp": 1741274920,
  "chain": 1313161555,
  "commit": "b675f5a"
}