{
  "transactions": [
    {
      "hash": "0x1322a1ad03c3603527ec0bf11a927f7be27d655405e56b27258bde37d0af4a4e",
      "transactionType": "CALL",
      "contractName": null,
      "contractAddress": "0x3f2486cf7f916fd99ef4eeff848f8cb8ee6a32b2",
      "function": "getBottle(string)",
      "arguments": [
        "123456789ABCDEF"
      ],
      "transaction": {
        "from": "0xf8f8269488f73fab3935555fcddd6035699dee25",
        "to": "0x3f2486cf7f916fd99ef4eeff848f8cb8ee6a32b2",
        "gas": "0xb64f",
        "value": "0x0",
        "input": "0xc9507caf0000000000000000000000000000000000000000000000000000000000000020000000000000000000000000000000000000000000000000000000000000000f3132333435363738394142434445460000000000000000000000000000000000",
        "nonce": "0x11c",
        "chainId": "0x4e454153"
      },
      "additionalContracts": [],
      "isFixedGasLimit": false
    }
  ],
  "receipts": [
    {
      "status": "0x1",
      "cumulativeGasUsed": "0x0",
      "logs": [],
      "logsBloom": "0x00000000000000000000000000000000000000000000000000000000000000000000000000000000000000000000000000000000000000000000000000000000000000000000000000000000000000000000000000000000000000000000000000000000000000000000000000000000000000000000000000000000000000000000000000000000000000000000000000000000000000000000000000000000000000000000000000000000000000000000000000000000000000000000000000000000000000000000000000000000000000000000000000000000000000000000000000000000000000000000000000000000000000000000000000000000",
      "type": "0x0",
      "transactionHash": "0x1322a1ad03c3603527ec0bf11a927f7be27d655405e56b27258bde37d0af4a4e",
      "transactionIndex": "0x0",
      "blockHash": "0x27a985f12596361067db7a0af6c507b847d0625887ba178e92d1d908a6a0523e",
      "blockNumber": "0xb46e552",
      "gasUsed": "0x83fe",
      "effectiveGasPrice": "0x0",
      "from": "0xf8f8269488f73fab3935555fcddd6035699dee25",
      "to": "0x3f2486cf7f916fd99ef4eeff848f8cb8ee6a32b2",
      "contractAddress": null,
      "nearReceiptHash": "0x311a0e947fb053c5525090aa841553265673ee0d50cb4785719d09681dfcf5f5",
      "nearTransactionHash": "0x5d62d00c6075fd0386e0406a4426b01cc7b58380d4ca621ef4b8de72022031e7"
    }
  ],
  "libraries": [],
  "pending": [],
  "returns": {},
  "timestamp": 1741096650,
  "chain": 1313161555,
  "commit": "84aac85"
}