{
  "transactions": [
    {
      "hash": "0x52c931573a421ba686a618b75f22fd962af7dd22ab0595a30c3699018de090fe",
      "transactionType": "CALL",
      "contractName": null,
      "contractAddress": "0x5bc633b509f718e788ce6b3758b6769bac4b8e75",
      "function": "setRegistry(address)",
      "arguments": [
        "0x8991477985b9599c897099D39Bc2b2DeB9198760"
      ],
      "transaction": {
        "from": "0xf8f8269488f73fab3935555fcddd6035699dee25",
        "to": "0x5bc633b509f718e788ce6b3758b6769bac4b8e75",
        "gas": "0x1092f",
        "value": "0x0",
        "input": "0xa91ee0dc0000000000000000000000008991477985b9599c897099d39bc2b2deb9198760",
        "nonce": "0x127",
        "chainId": "0x4e454153"
      },
      "additionalContracts": [],
      "isFixedGasLimit": false
    }
  ],
  "receipts": [
    {
      "status": "0x1",
      "cumulativeGasUsed": "0x0",
      "logs": [],
      "logsBloom": "0x00000000000000000000000000000000000000000000000000000000000000000000000000000000000000000000000000000000000000000000000000000000000000000000000000000000000000000000000000000000000000000000000000000000000000000000000000000000000000000000000000000000000000000000000000000000000000000000000000000000000000000000000000000000000000000000000000000000000000000000000000000000000000000000000000000000000000000000000000000000000000000000000000000000000000000000000000000000000000000000000000000000000000000000000000000000",
      "type": "0x0",
      "transactionHash": "0x52c931573a421ba686a618b75f22fd962af7dd22ab0595a30c3699018de090fe",
      "transactionIndex": "0x0",
      "blockHash": "0x124f272c0eece4993f5a9a49f2cc31e7ea0c8f10582ae9e8691e06301d27cc2b",
      "blockNumber": "0xb499d87",
      "gasUsed": "0xb553",
      "effectiveGasPrice": "0x0",
      "from": "0xf8f8269488f73fab3935555fcddd6035699dee25",
      "to": "0x5bc633b509f718e788ce6b3758b6769bac4b8e75",
      "contractAddress": null,
      "nearReceiptHash": "0x0689bb4e2a31fb2aeae95a55dc16c2625258c6406b0d42b32f9a5cab877e9fc9",
      "nearTransactionHash": "0x7f1134e2123c91754d5192f91d16fedc17ec967d8e8bdf5443a485f996c5ed7b"
    }
  ],
  "libraries": [],
  "pending": [],
  "returns": {},
  "timestamp": 1741271881,
  "chain": 1313161555,
  "commit": "b675f5a"
}