{
  "transactions": [
    {
      "hash": "0x6dff4cba597287da24d608eccc79d89ae24b166809ac1d4f2c38051189c26688",
      "transactionType": "CALL",
      "contractName": null,
      "contractAddress": "0x3f2486cf7f916fd99ef4eeff848f8cb8ee6a32b2",
      "function": "getBottle(string)",
      "arguments": [
        "123456789ABCDEF"
      ],
      "transaction": {
        "from": "0xf8f8269488f73fab3935555fcddd6035699dee25",
        "to": "0x3f2486cf7f916fd99ef4eeff848f8cb8ee6a32b2",
        "gas": "0xb64f",
        "value": "0x0",
        "input": "0xc9507caf0000000000000000000000000000000000000000000000000000000000000020000000000000000000000000000000000000000000000000000000000000000f3132333435363738394142434445460000000000000000000000000000000000",
        "nonce": "0x11b",
        "chainId": "0x4e454153"
      },
      "additionalContracts": [],
      "isFixedGasLimit": false
    }
  ],
  "receipts": [
    {
      "status": "0x1",
      "cumulativeGasUsed": "0x0",
      "logs": [],
      "logsBloom": "0x00000000000000000000000000000000000000000000000000000000000000000000000000000000000000000000000000000000000000000000000000000000000000000000000000000000000000000000000000000000000000000000000000000000000000000000000000000000000000000000000000000000000000000000000000000000000000000000000000000000000000000000000000000000000000000000000000000000000000000000000000000000000000000000000000000000000000000000000000000000000000000000000000000000000000000000000000000000000000000000000000000000000000000000000000000000",
      "type": "0x0",
      "transactionHash": "0x6dff4cba597287da24d608eccc79d89ae24b166809ac1d4f2c38051189c26688",
      "transactionIndex": "0x0",
      "blockHash": "0x21b4964dea340513497b39fecd9653080ad99e1d2f8a9f1beded15f3ddd18d15",
      "blockNumber": "0xb46e4f0",
      "gasUsed": "0x83fe",
      "effectiveGasPrice": "0x0",
      "from": "0xf8f8269488f73fab3935555fcddd6035699dee25",
      "to": "0x3f2486cf7f916fd99ef4eeff848f8cb8ee6a32b2",
      "contractAddress": null,
      "nearReceiptHash": "0x7c5e8d128c7ccf184fd2674fc0fef991faca5e5f5c42c08bce5e01f92b20edde",
      "nearTransactionHash": "0xb6e02c6d841466397f5591794210aecbefbebe4a59683685cf08ccf7b8f3d8a3"
    }
  ],
  "libraries": [],
  "pending": [],
  "returns": {},
  "timestamp": 1741096554,
  "chain": 1313161555,
  "commit": "84aac85"
}