{
  "transactions": [
    {
      "hash": "0xf1f9da623ba6f94f42bb52c8323b9f80afe7d35592d76fd01be1fb199fb39f43",
      "transactionType": "CALL",
      "contractName": null,
      "contractAddress": "0xa1b57dd9c43dbc1ead1208d7ae6d8ea7d8c5d347",
      "function": "registerBottle(string,bytes32,address,string)",
      "arguments": [
        "000000000000001",
        "0xd26fe0985dfb6da664b3c62f4ae07e0f307c9f212a10f760f28cdfa5a571d0aa",
        "0xF8f8269488f73fab3935555FCDdD6035699deE25",
        "ipfs://QmVUtkyKPHZa6qSvTGNYotUMfPU56VRg1hzqFuUn9ZuLFH"
      ],
      "transaction": {
        "from": "0xf8f8269488f73fab3935555fcddd6035699dee25",
        "to": "0xa1b57dd9c43dbc1ead1208d7ae6d8ea7d8c5d347",
        "gas": "0x590a0",
        "value": "0x0",
        "input": "0x63b7c1530000000000000000000000000000000000000000000000000000000000000080d26fe0985dfb6da664b3c62f4ae07e0f307c9f212a10f760f28cdfa5a571d0aa000000000000000000000000f8f8269488f73fab3935555fcddd6035699dee2500000000000000000000000000000000000000000000000000000000000000c0000000000000000000000000000000000000000000000000000000000000000f30303030303030303030303030303100000000000000000000000000000000000000000000000000000000000000000000000000000000000000000000000035697066733a2f2f516d5655746b794b50485a613671537654474e596f74554d665055353656526731687a714675556e395a754c46480000000000000000000000",
        "nonce": "0x12f",
        "chainId": "0x4e454153"
      },
      "additionalContracts": [],
      "isFixedGasLimit": false
    }
  ],
  "receipts": [
    {
      "status": "0x1",
      "cumulativeGasUsed": "0x0",
      "logs": [
        {
          "address": "0xa1b57dd9c43dbc1ead1208d7ae6d8ea7d8c5d347",
          "topics": [
            "0xb1b956abd91c0d4fed1eead8d8a20c58406efd2ab02033a13f00114f7cc4bae2"
          ],
          "data": "0x0000000000000000000000000000000000000000000000000000000000000060d26fe0985dfb6da664b3c62f4ae07e0f307c9f212a10f760f28cdfa5a571d0aa000000000000000000000000f8f8269488f73fab3935555fcddd6035699dee25000000000000000000000000000000000000000000000000000000000000000f3030303030303030303030303030310000000000000000000000000000000000",
          "blockHash": "0x108eab5221420afe1f6a68efd40cde6a3224eabf7cab7205e7627f53eebeeb57",
          "blockNumber": "0xb49a53a",
          "transactionHash": "0xf1f9da623ba6f94f42bb52c8323b9f80afe7d35592d76fd01be1fb199fb39f43",
          "transactionIndex": "0x0",
          "logIndex": "0x0",
          "removed": false
        },
        {
          "address": "0x1dbe1c1857e49c191686394c809c3e37770d1c22",
          "topics": [
            "0x7b1e175a66d182a3654e9e023c8cb61651d12aae75ef78684294f6f281f67269"
          ],
          "data": "0x0000000000000000000000000000000000000000000000000000000000000000",
          "blockHash": "0x108eab5221420afe1f6a68efd40cde6a3224eabf7cab7205e7627f53eebeeb57",
          "blockNumber": "0xb49a53a",
          "transactionHash": "0xf1f9da623ba6f94f42bb52c8323b9f80afe7d35592d76fd01be1fb199fb39f43",
          "transactionIndex": "0x0",
          "logIndex": "0x1",
          "removed": false
        },
        {
          "address": "0x1dbe1c1857e49c191686394c809c3e37770d1c22",
          "topics": [
            "0xddf252ad1be2c89b69c2b068fc378daa952ba7f163c4a11628f55a4df523b3ef",
            "0x0000000000000000000000000000000000000000000000000000000000000000",
            "0x000000000000000000000000f8f8269488f73fab3935555fcddd6035699dee25",
            "0x0000000000000000000000000000000000000000000000000000000000000000"
          ],
          "data": "0x",
          "blockHash": "0x108eab5221420afe1f6a68efd40cde6a3224eabf7cab7205e7627f53eebeeb57",
          "blockNumber": "0xb49a53a",
          "transactionHash": "0xf1f9da623ba6f94f42bb52c8323b9f80afe7d35592d76fd01be1fb199fb39f43",
          "transactionIndex": "0x0",
          "logIndex": "0x2",
          "removed": false
        },
        {
          "address": "0x1dbe1c1857e49c191686394c809c3e37770d1c22",
          "topics": [
            "0xf8e1a15aba9398e019f0b49df1a4fde98ee17ae345cb5f6b5e2c27f5033e8ce7"
          ],
          "data": "0x0000000000000000000000000000000000000000000000000000000000000000",
          "blockHash": "0x108eab5221420afe1f6a68efd40cde6a3224eabf7cab7205e7627f53eebeeb57",
          "blockNumber": "0xb49a53a",
          "transactionHash": "0xf1f9da623ba6f94f42bb52c8323b9f80afe7d35592d76fd01be1fb199fb39f43",
          "transactionIndex": "0x0",
          "logIndex": "0x3",
          "removed": false
        }
      ],
      "logsBloom": "0x00000000008000000200000002000000000000000000000000000000000000000000000000000000000000000000000000000000000000000000000000000000004000000000080000000008000000000000040000000000000000000000000010000000020001000000000000000800080001000000000000000010000000000000000000000000000000040000000000000000000000400000000000000000000000000000000000000000000000002000000000000000000000000000008000000002000000000000000000000000000000008000000000400000000020000000000000000000200000100000000000000000000000000000000000000000",
      "type": "0x0",
      "transactionHash": "0xf1f9da623ba6f94f42bb52c8323b9f80afe7d35592d76fd01be1fb199fb39f43",
      "transactionIndex": "0x0",
      "blockHash": "0x108eab5221420afe1f6a68efd40cde6a3224eabf7cab7205e7627f53eebeeb57",
      "blockNumber": "0xb49a53a",
      "gasUsed": "0x3ce1b",
      "effectiveGasPrice": "0x0",
      "from": "0xf8f8269488f73fab3935555fcddd6035699dee25",
      "to": "0xa1b57dd9c43dbc1ead1208d7ae6d8ea7d8c5d347",
      "contractAddress": null,
      "nearReceiptHash": "0x1d597173ed43680847fac8b1047176b3575f6154299fe34da1fecc54d365fa09",
      "nearTransactionHash": "0x924776c84753c6835d51ee5b6ce9f4fb542b13d7d0ac1daf6c3e35da7a29f797"
    }
  ],
  "libraries": [],
  "pending": [],
  "returns": {},
  "timestamp": 1741273780,
  "chain": 1313161555,
  "commit": "b675f5a"
}