{
  "transactions": [
    {
      "hash": "0x970f2fe0698a48688dfd17a614869a065a46ddfdff42967dc3fcc61c25f5923b",
      "transactionType": "CALL",
      "contractName": "VRFv2Consumer",
      "contractAddress": "0xED944B2A0298c4872615680b336f5b340FE2eCBD",
      "function": "setLockdropAddress(address)",
      "arguments": [
        "0xb6C0f728b5fb76aED862E8C602Eb2D8FB520f14C"
      ],
      "transaction": {
        "type": "0x02",
        "from": "0xf8f8269488f73fab3935555fcddd6035699dee25",
        "to": "0xed944b2a0298c4872615680b336f5b340fe2ecbd",
        "gas": "0xf873",
        "value": "0x0",
        "data": "0x30b3c9df000000000000000000000000b6c0f728b5fb76aed862e8c602eb2d8fb520f14c",
        "nonce": "0x426",
        "accessList": []
      },
      "additionalContracts": [],
      "isFixedGasLimit": false
    }
  ],
  "receipts": [
    {
      "transactionHash": "0x970f2fe0698a48688dfd17a614869a065a46ddfdff42967dc3fcc61c25f5923b",
      "transactionIndex": "0x5",
      "blockHash": "0x8041efeacfda90f7a5b5c0f23d36dc36877d8735d66b1cab76712a74aafeb74b",
      "blockNumber": "0x58036f",
      "from": "0xF8f8269488f73fab3935555FCDdD6035699deE25",
      "to": "0xED944B2A0298c4872615680b336f5b340FE2eCBD",
      "cumulativeGasUsed": "0x3799d",
      "gasUsed": "0xb3e0",
      "contractAddress": null,
      "logs": [],
      "status": "0x1",
      "logsBloom": "0x00000000000000000000000000000000000000000000000000000000000000000000000000000000000000000000000000000000000000000000000000000000000000000000000000000000000000000000000000000000000000000000000000000000000000000000000000000000000000000000000000000000000000000000000000000000000000000000000000000000000000000000000000000000000000000000000000000000000000000000000000000000000000000000000000000000000000000000000000000000000000000000000000000000000000000000000000000000000000000000000000000000000000000000000000000000",
      "type": "0x2",
      "effectiveGasPrice": "0xfc66a6a8"
    }
  ],
  "libraries": [],
  "pending": [],
  "returns": {},
  "timestamp": 1713971341,
  "chain": 11155111,
  "commit": "4acad68"
}