{
  "transactions": [
    {
      "hash": "0x2738fe3342c018c330a2c5bb2be223e4333a660c2e8e0cc227a39bfdec991665",
      "transactionType": "CALL",
      "contractName": "LockDrop",
      "contractAddress": "0x94f91c8B7144FF3373A86290008D1C793328a19e",
      "function": "deposit(uint256)",
      "arguments": [
        "10000000000000000"
      ],
      "transaction": {
        "type": "0x00",
        "from": "0xf8f8269488f73fab3935555fcddd6035699dee25",
        "to": "0x94f91c8b7144ff3373a86290008d1c793328a19e",
        "gas": "0xb28c",
        "value": "0x0",
        "data": "0xb6b55f25000000000000000000000000000000000000000000000000002386f26fc10000",
        "nonce": "0x355"
      },
      "additionalContracts": [],
      "isFixedGasLimit": false
    }
  ],
  "receipts": [
    {
      "transactionHash": "0x2738fe3342c018c330a2c5bb2be223e4333a660c2e8e0cc227a39bfdec991665",
      "transactionIndex": "0xc9",
      "blockHash": "0xa2bd15a507d6f7a52d03c0a54823519a57fdbd28a9c283b7fb32fde3e93ad170",
      "blockNumber": "0x50e519",
      "from": "0xF8f8269488f73fab3935555FCDdD6035699deE25",
      "to": "0x94f91c8B7144FF3373A86290008D1C793328a19e",
      "cumulativeGasUsed": "0x1c7528d",
      "gasUsed": "0x8144",
      "contractAddress": null,
      "logs": [
        {
          "address": "0x94f91c8B7144FF3373A86290008D1C793328a19e",
          "topics": [
            "0x2cb77763bc1e8490c1a904905c4d74b4269919aca114464f4bb4d911e60de364",
            "0x000000000000000000000000f8f8269488f73fab3935555fcddd6035699dee25"
          ],
          "data": "0x0000000000000000000000000000000000000000000000000000000000000000",
          "blockHash": "0xa2bd15a507d6f7a52d03c0a54823519a57fdbd28a9c283b7fb32fde3e93ad170",
          "blockNumber": "0x50e519",
          "transactionHash": "0x2738fe3342c018c330a2c5bb2be223e4333a660c2e8e0cc227a39bfdec991665",
          "transactionIndex": "0xc9",
          "logIndex": "0x16c",
          "removed": false
        }
      ],
      "status": "0x1",
      "logsBloom": "0x00000000000000000000000000000000000000000000000000000000020000000000000000000000020000000000000000000000000000000080000000000000000000000000080000000000000000000000040000000000000000000000000010000000000000000000000000000000000000000000000000000000000000000000000000000000000000000000000000000000000000000000000000000000000000000000000000000000000000000000000000000100000000000000000000000000000000000000000000000000000000000000000000000000000000200000000000000000000000000040000000000000000000000000000000000000",
      "type": "0x0",
      "effectiveGasPrice": "0xaf5f949c5"
    }
  ],
  "libraries": [],
  "pending": [],
  "returns": {},
  "timestamp": 1708097803,
  "chain": 11155111,
  "multi": false,
  "commit": "1c81fef"
}