{
  "transactions": [
    {
      "hash": "0x9b4feecfea7607d386a8470c9ddea33e1c266c49fc4b0be2e480566aa72ba653",
      "transactionType": "CALL",
      "contractName": null,
      "contractAddress": "0xb2e381f5f4763fb7cabe730277411c39a1c0c112",
      "function": "setLockDropAddress(address)",
      "arguments": [
        "0x54da6f6144a1ca3C4230Dc7230d4d98165E94181"
      ],
      "transaction": {
        "from": "0xf8f8269488f73fab3935555fcddd6035699dee25",
        "to": "0xb2e381f5f4763fb7cabe730277411c39a1c0c112",
        "gas": "0xf8c7",
        "value": "0x0",
        "input": "0xb6e7377d00000000000000000000000054da6f6144a1ca3c4230dc7230d4d98165e94181",
        "nonce": "0x650",
        "chainId": "0xaa36a7"
      },
      "additionalContracts": [],
      "isFixedGasLimit": false
    }
  ],
  "receipts": [
    {
      "status": "0x1",
      "cumulativeGasUsed": "0x3facb7",
      "logs": [],
      "logsBloom": "0x00000000000000000000000000000000000000000000000000000000000000000000000000000000000000000000000000000000000000000000000000000000000000000000000000000000000000000000000000000000000000000000000000000000000000000000000000000000000000000000000000000000000000000000000000000000000000000000000000000000000000000000000000000000000000000000000000000000000000000000000000000000000000000000000000000000000000000000000000000000000000000000000000000000000000000000000000000000000000000000000000000000000000000000000000000000",
      "type": "0x0",
      "transactionHash": "0x9b4feecfea7607d386a8470c9ddea33e1c266c49fc4b0be2e480566aa72ba653",
      "transactionIndex": "0x37",
      "blockHash": "0x9af2398d3f69074a32675597fce65ab4d7df8c0a3bcef487befc4561030c9d66",
      "blockNumber": "0x671b57",
      "gasUsed": "0xb41d",
      "effectiveGasPrice": "0x634985df35",
      "from": "0xf8f8269488f73fab3935555fcddd6035699dee25",
      "to": "0xb2e381f5f4763fb7cabe730277411c39a1c0c112",
      "contractAddress": null
    }
  ],
  "libraries": [],
  "pending": [],
  "returns": {},
  "timestamp": 1727270200,
  "chain": 11155111,
  "commit": "bf3ceb3"
}