{
  "transactions": [
    {
      "hash": "0x30335e40f3e50aa08d993ee46aef2e24d978450776e3e3795719636f2411cea4",
      "transactionType": "CALL",
      "contractName": null,
      "contractAddress": "0xf1a792ca5bd4d60585c8e46b41f22d1b03dcbe30",
      "function": "setLockDropAddress(address)",
      "arguments": [
        "0xB8f22DBF5597505c2e32EBFeD76A21E4D092EFD0"
      ],
      "transaction": {
        "from": "0xf8f8269488f73fab3935555fcddd6035699dee25",
        "to": "0xf1a792ca5bd4d60585c8e46b41f22d1b03dcbe30",
        "gas": "0xa5b9",
        "value": "0x0",
        "input": "0xb6e7377d000000000000000000000000b8f22dbf5597505c2e32ebfed76a21e4d092efd0",
        "nonce": "0x638",
        "chainId": "0xaa36a7"
      },
      "additionalContracts": [],
      "isFixedGasLimit": false
    }
  ],
  "receipts": [
    {
      "status": "0x1",
      "cumulativeGasUsed": "0x12b7a5c",
      "logs": [],
      "logsBloom": "0x00000000000000000000000000000000000000000000000000000000000000000000000000000000000000000000000000000000000000000000000000000000000000000000000000000000000000000000000000000000000000000000000000000000000000000000000000000000000000000000000000000000000000000000000000000000000000000000000000000000000000000000000000000000000000000000000000000000000000000000000000000000000000000000000000000000000000000000000000000000000000000000000000000000000000000000000000000000000000000000000000000000000000000000000000000000",
      "type": "0x0",
      "transactionHash": "0x30335e40f3e50aa08d993ee46aef2e24d978450776e3e3795719636f2411cea4",
      "transactionIndex": "0x76",
      "blockHash": "0x943e1fe53e595d33ddbc32170483c439ecde8f550f21f0ff141a0749f9f07cff",
      "blockNumber": "0x6704ac",
      "gasUsed": "0x7151",
      "effectiveGasPrice": "0x13e42b75d1",
      "from": "0xf8f8269488f73fab3935555fcddd6035699dee25",
      "to": "0xf1a792ca5bd4d60585c8e46b41f22d1b03dcbe30",
      "contractAddress": null
    }
  ],
  "libraries": [],
  "pending": [],
  "returns": {},
  "timestamp": 1727185741,
  "chain": 11155111,
  "commit": "bf3ceb3"
}