{
  "transactions": [
    {
      "hash": "0x88062fc286c9821e7d4e7d97f6e9fd243d3abee847639bfe1bfd01cbf4ff7863",
      "transactionType": "CALL",
      "contractName": "TokenManager",
      "contractAddress": "0x50eF9E70dA285ee6321F765997FCd294f0805d36",
      "function": "setRewardTokenAddress(address)",
      "arguments": [
        "0xf45f8cB5A4C2Dc20D2865a1C6751407C4E097c67"
      ],
      "transaction": {
        "type": "0x02",
        "from": "0xf8f8269488f73fab3935555fcddd6035699dee25",
        "to": "0x50ef9e70da285ee6321f765997fcd294f0805d36",
        "gas": "0xf8a9",
        "value": "0x0",
        "data": "0x9a6acf20000000000000000000000000f45f8cb5a4c2dc20d2865a1c6751407c4e097c67",
        "nonce": "0x47f",
        "accessList": []
      },
      "additionalContracts": [],
      "isFixedGasLimit": false
    }
  ],
  "receipts": [
    {
      "transactionHash": "0x88062fc286c9821e7d4e7d97f6e9fd243d3abee847639bfe1bfd01cbf4ff7863",
      "transactionIndex": "0x9",
      "blockHash": "0x6c709efb0be8c0b4feebfec4077f66533cc9865f37627ce215d297cb0a07f3ea",
      "blockNumber": "0x59a6a7",
      "from": "0xF8f8269488f73fab3935555FCDdD6035699deE25",
      "to": "0x50eF9E70dA285ee6321F765997FCd294f0805d36",
      "cumulativeGasUsed": "0x59773",
      "gasUsed": "0xb407",
      "contractAddress": null,
      "logs": [],
      "status": "0x1",
      "logsBloom": "0x00000000000000000000000000000000000000000000000000000000000000000000000000000000000000000000000000000000000000000000000000000000000000000000000000000000000000000000000000000000000000000000000000000000000000000000000000000000000000000000000000000000000000000000000000000000000000000000000000000000000000000000000000000000000000000000000000000000000000000000000000000000000000000000000000000000000000000000000000000000000000000000000000000000000000000000000000000000000000000000000000000000000000000000000000000000",
      "type": "0x2",
      "effectiveGasPrice": "0xb2ed7c16"
    }
  ],
  "libraries": [],
  "pending": [],
  "returns": {},
  "timestamp": 1715358313,
  "chain": 11155111,
  "commit": "f0357c2"
}