{
  "transactions": [
    {
      "hash": "0xc10b948fa5a58f415fdab758003016ce3c857345bc57125f6c71420399322aea",
      "transactionType": "CALL",
      "contractName": "TokenManager",
      "contractAddress": "0x56811A95fF04DE10c99b64743F25b410C6Bee489",
      "function": "setRewardTokenAddress(address)",
      "arguments": [
        "0x27346f96D479C15889eCB07CeCbFeaD536E9AF52"
      ],
      "transaction": {
        "type": "0x02",
        "from": "0xf8f8269488f73fab3935555fcddd6035699dee25",
        "to": "0x56811a95ff04de10c99b64743f25b410c6bee489",
        "gas": "0x10729",
        "value": "0x0",
        "data": "0x9a6acf2000000000000000000000000027346f96d479c15889ecb07cecbfead536e9af52",
        "nonce": "0x416",
        "accessList": []
      },
      "additionalContracts": [],
      "isFixedGasLimit": false
    }
  ],
  "receipts": [
    {
      "transactionHash": "0xc10b948fa5a58f415fdab758003016ce3c857345bc57125f6c71420399322aea",
      "transactionIndex": "0x6",
      "blockHash": "0xd6b33ed5f22e2de214e5847457569dddc35102de5c4762d6a92fb38a0b79eaf4",
      "blockNumber": "0x57cbe2",
      "from": "0xF8f8269488f73fab3935555FCDdD6035699deE25",
      "to": "0x56811A95fF04DE10c99b64743F25b410C6Bee489",
      "cumulativeGasUsed": "0x36119",
      "gasUsed": "0xb3f1",
      "contractAddress": null,
      "logs": [],
      "status": "0x1",
      "logsBloom": "0x00000000000000000000000000000000000000000000000000000000000000000000000000000000000000000000000000000000000000000000000000000000000000000000000000000000000000000000000000000000000000000000000000000000000000000000000000000000000000000000000000000000000000000000000000000000000000000000000000000000000000000000000000000000000000000000000000000000000000000000000000000000000000000000000000000000000000000000000000000000000000000000000000000000000000000000000000000000000000000000000000000000000000000000000000000000",
      "type": "0x2",
      "effectiveGasPrice": "0xb31ddc89"
    }
  ],
  "libraries": [],
  "pending": [],
  "returns": {},
  "timestamp": 1713798625,
  "chain": 11155111,
  "commit": "4acad68"
}