{
  "transactions": [
    {
      "hash": "0x408b40e56ee2e76c1f4fd5c03a37c18a03cab4582fd46cf50c4fec3c11bf977f",
      "transactionType": "CALL",
      "contractName": null,
      "contractAddress": "0xefe03178b22029695b16133c5620d1441cfa561d",
      "function": "topUpFtn(uint256)",
      "arguments": [
        "100000000000000000000"
      ],
      "transaction": {
        "from": "0xf8f8269488f73fab3935555fcddd6035699dee25",
        "to": "0xefe03178b22029695b16133c5620d1441cfa561d",
        "gas": "0x14f91",
        "value": "0x0",
        "input": "0x645ed8310000000000000000000000000000000000000000000000056bc75e2d63100000",
        "nonce": "0x629",
        "chainId": "0xaa36a7"
      },
      "additionalContracts": [],
      "isFixedGasLimit": false
    }
  ],
  "receipts": [
    {
      "status": "0x1",
      "cumulativeGasUsed": "0x4499ff",
      "logs": [
        {
          "address": "0xfb185b3703d73bf0fe0970b42cbe80609141edab",
          "topics": [
            "0xddf252ad1be2c89b69c2b068fc378daa952ba7f163c4a11628f55a4df523b3ef",
            "0x000000000000000000000000efe03178b22029695b16133c5620d1441cfa561d",
            "0x000000000000000000000000f8f8269488f73fab3935555fcddd6035699dee25"
          ],
          "data": "0x0000000000000000000000000000000000000000000000056bc75e2d63100000",
          "blockHash": "0x70fdc09789a4a79460ae37e20bdd70e87dc3032ad9fed01f5837eb5926350d29",
          "blockNumber": "0x66ef85",
          "transactionHash": "0x408b40e56ee2e76c1f4fd5c03a37c18a03cab4582fd46cf50c4fec3c11bf977f",
          "transactionIndex": "0x1b",
          "logIndex": "0x32",
          "removed": false
        }
      ],
      "logsBloom": "0x00000000000000000000040000000000000000000000000000000000000000000000000000000000000000000000000000000000000000000000000000000000000000000000080000000008000000000000040000000000000000000000000010000000000000000000000000000000000000000000000000000010000000000000000004000000000000000000000000000000000000000000000000000000000000000000000000010000000000000000000000000000000000000000000000000002000000000000000000000000000000000000000100000000008000000000000000000000000000000000000000000000000000000000000000000002",
      "type": "0x0",
      "transactionHash": "0x408b40e56ee2e76c1f4fd5c03a37c18a03cab4582fd46cf50c4fec3c11bf977f",
      "transactionIndex": "0x1b",
      "blockHash": "0x70fdc09789a4a79460ae37e20bdd70e87dc3032ad9fed01f5837eb5926350d29",
      "blockNumber": "0x66ef85",
      "gasUsed": "0xe573",
      "effectiveGasPrice": "0x6e63bb6a2",
      "from": "0xf8f8269488f73fab3935555fcddd6035699dee25",
      "to": "0xefe03178b22029695b16133c5620d1441cfa561d",
      "contractAddress": null
    }
  ],
  "libraries": [],
  "pending": [],
  "returns": {},
  "timestamp": 1727107168,
  "chain": 11155111,
  "commit": "bf3ceb3"
}