{
  "transactions": [
    {
      "hash": "0xac99c2ce08ebe8f49afb9ed0640aec2f4bbbded6b321ce3cfb5c3590b28b6d6b",
      "transactionType": "CALL",
      "contractName": "LockDrop",
      "contractAddress": "0xB11df7ba0600C468352D3D0cc159B4Ceea4a730A",
      "function": "deposit(uint256)",
      "arguments": [
        "10000000000000000"
      ],
      "transaction": {
        "type": "0x00",
        "from": "0xf8f8269488f73fab3935555fcddd6035699dee25",
        "to": "0xb11df7ba0600c468352d3d0cc159b4ceea4a730a",
        "gas": "0xffb4",
        "value": "0x0",
        "data": "0xb6b55f25000000000000000000000000000000000000000000000000002386f26fc10000",
        "nonce": "0x35b"
      },
      "additionalContracts": [],
      "isFixedGasLimit": false
    }
  ],
  "receipts": [
    {
      "transactionHash": "0xac99c2ce08ebe8f49afb9ed0640aec2f4bbbded6b321ce3cfb5c3590b28b6d6b",
      "transactionIndex": "0x51",
      "blockHash": "0x22fedaa50a5901ba190d150359ab36e23a70e30ea4e0187f05aec8217a405564",
      "blockNumber": "0x50e6c0",
      "from": "0xF8f8269488f73fab3935555FCDdD6035699deE25",
      "to": "0xB11df7ba0600C468352D3D0cc159B4Ceea4a730A",
      "cumulativeGasUsed": "0x9583d2",
      "gasUsed": "0xb920",
      "contractAddress": null,
      "logs": [
        {
          "address": "0xB11df7ba0600C468352D3D0cc159B4Ceea4a730A",
          "topics": [
            "0x2cb77763bc1e8490c1a904905c4d74b4269919aca114464f4bb4d911e60de364",
            "0x000000000000000000000000f8f8269488f73fab3935555fcddd6035699dee25"
          ],
          "data": "0x000000000000000000000000000000000000000000000000002386f26fc10000",
          "blockHash": "0x22fedaa50a5901ba190d150359ab36e23a70e30ea4e0187f05aec8217a405564",
          "blockNumber": "0x50e6c0",
          "transactionHash": "0xac99c2ce08ebe8f49afb9ed0640aec2f4bbbded6b321ce3cfb5c3590b28b6d6b",
          "transactionIndex": "0x51",
          "logIndex": "0xbf",
          "removed": false
        }
      ],
      "status": "0x1",
      "logsBloom": "0x00000000000000000000000000000000000000000000000000000000000000000000000000000000020000000000040000000000000000000000000000000000000000000000080000000000000000000000040000000000000000000000000010000000000000000000000000000000000000000000000000000000000000000000000000000000000000000000000000000000000000000000000000000000000000000000000000000000000000000000000000000100000000000004000000000000000000000000000000000000000000000000000100000000000000200000000000000000000000000000000000000000000000000000000000000000",
      "type": "0x0",
      "effectiveGasPrice": "0x96fb24b48"
    }
  ],
  "libraries": [],
  "pending": [],
  "returns": {},
  "timestamp": 1708103153,
  "chain": 11155111,
  "multi": false,
  "commit": "1c81fef"
}