{
  "transactions": [
    {
      "hash": "0xb85b4dbe837ffa917fb2c4063e55d815716f3cb1e71e945ff1e2616165dceba8",
      "transactionType": "CALL",
      "contractName": "LockDrop",
      "contractAddress": "0x94f91c8B7144FF3373A86290008D1C793328a19e",
      "function": "deposit(uint256)",
      "arguments": [
        "10000000000000000"
      ],
      "transaction": {
        "type": "0x00",
        "from": "0xf8f8269488f73fab3935555fcddd6035699dee25",
        "to": "0x94f91c8b7144ff3373a86290008d1c793328a19e",
        "gas": "0x16b12",
        "value": "0x0",
        "data": "0xb6b55f25000000000000000000000000000000000000000000000000002386f26fc10000",
        "nonce": "0x357"
      },
      "additionalContracts": [],
      "isFixedGasLimit": false
    }
  ],
  "receipts": [
    {
      "transactionHash": "0xb85b4dbe837ffa917fb2c4063e55d815716f3cb1e71e945ff1e2616165dceba8",
      "transactionIndex": "0x74",
      "blockHash": "0x019d5f6668d71972c3679061aa99271b129880f052198020866df4f81370fe6b",
      "blockNumber": "0x50e562",
      "from": "0xF8f8269488f73fab3935555FCDdD6035699deE25",
      "to": "0x94f91c8B7144FF3373A86290008D1C793328a19e",
      "cumulativeGasUsed": "0xd2874b",
      "gasUsed": "0x106dc",
      "contractAddress": null,
      "logs": [
        {
          "address": "0x94f91c8B7144FF3373A86290008D1C793328a19e",
          "topics": [
            "0x2cb77763bc1e8490c1a904905c4d74b4269919aca114464f4bb4d911e60de364",
            "0x000000000000000000000000f8f8269488f73fab3935555fcddd6035699dee25"
          ],
          "data": "0x0000000000000000000000000000000000000000000000000000000000000000",
          "blockHash": "0x019d5f6668d71972c3679061aa99271b129880f052198020866df4f81370fe6b",
          "blockNumber": "0x50e562",
          "transactionHash": "0xb85b4dbe837ffa917fb2c4063e55d815716f3cb1e71e945ff1e2616165dceba8",
          "transactionIndex": "0x74",
          "logIndex": "0xfc",
          "removed": false
        }
      ],
      "status": "0x1",
      "logsBloom": "0x00000000000000000000000000000000000000000000000000000000020000000000000000000000020000000000000000000000000000000080000000000000000000000000080000000000000000000000040000000000000000000000000010000000000000000000000000000000000000000000000000000000000000000000000000000000000000000000000000000000000000000000000000000000000000000000000000000000000000000000000000000100000000000000000000000000000000000000000000000000000000000000000000000000000000200000000000000000000000000040000000000000000000000000000000000000",
      "type": "0x0",
      "effectiveGasPrice": "0xa973f2afc"
    }
  ],
  "libraries": [],
  "pending": [],
  "returns": {},
  "timestamp": 1708098699,
  "chain": 11155111,
  "multi": false,
  "commit": "1c81fef"
}