{
  "transactions": [
    {
      "hash": "0x26054bad26f926435d336f7be8f84329859f25daf3c7ff4254ba7d67de1cfff6",
      "transactionType": "CALL",
      "contractName": null,
      "contractAddress": "0xf1a792ca5bd4d60585c8e46b41f22d1b03dcbe30",
      "function": "setLockDropAddress(address)",
      "arguments": [
        "0x76304770F400b67E0be3b22936A74c036Bd7c825"
      ],
      "transaction": {
        "from": "0xf8f8269488f73fab3935555fcddd6035699dee25",
        "to": "0xf1a792ca5bd4d60585c8e46b41f22d1b03dcbe30",
        "gas": "0x9c73",
        "value": "0x0",
        "input": "0xb6e7377d00000000000000000000000076304770f400b67e0be3b22936a74c036bd7c825",
        "nonce": "0x63f",
        "chainId": "0xaa36a7"
      },
      "additionalContracts": [],
      "isFixedGasLimit": false
    }
  ],
  "receipts": [
    {
      "status": "0x1",
      "cumulativeGasUsed": "0xceb17e",
      "logs": [],
      "logsBloom": "0x00000000000000000000000000000000000000000000000000000000000000000000000000000000000000000000000000000000000000000000000000000000000000000000000000000000000000000000000000000000000000000000000000000000000000000000000000000000000000000000000000000000000000000000000000000000000000000000000000000000000000000000000000000000000000000000000000000000000000000000000000000000000000000000000000000000000000000000000000000000000000000000000000000000000000000000000000000000000000000000000000000000000000000000000000000000",
      "type": "0x2",
      "transactionHash": "0x26054bad26f926435d336f7be8f84329859f25daf3c7ff4254ba7d67de1cfff6",
      "transactionIndex": "0x6d",
      "blockHash": "0xed098f0bdd9d5cf408bc11a0ea5181e3ca0773a76e597296acbdcd55e8aee35b",
      "blockNumber": "0x67066d",
      "gasUsed": "0x7145",
      "effectiveGasPrice": "0xba4b324aa",
      "from": "0xf8f8269488f73fab3935555fcddd6035699dee25",
      "to": "0xf1a792ca5bd4d60585c8e46b41f22d1b03dcbe30",
      "contractAddress": null
    }
  ],
  "libraries": [],
  "pending": [],
  "returns": {},
  "timestamp": 1727192210,
  "chain": 11155111,
  "commit": "bf3ceb3"
}