{
  "transactions": [
    {
      "hash": "0x14808a21d31c603cca3cb8f475a44619be5d6e967da3269612997f2461d98366",
      "transactionType": "CALL",
      "contractName": null,
      "contractAddress": "0xda121f1efb5398799d9ddeeddd6d45f8d58f04cd",
      "function": "setLockDropAddress(address)",
      "arguments": [
        "0x3D4Da8293F896F33BC786AcDDEb96Cc47c2Dc891"
      ],
      "transaction": {
        "from": "0xf8f8269488f73fab3935555fcddd6035699dee25",
        "to": "0xda121f1efb5398799d9ddeeddd6d45f8d58f04cd",
        "gas": "0x95ba",
        "value": "0x0",
        "input": "0xb6e7377d0000000000000000000000003d4da8293f896f33bc786acddeb96cc47c2dc891",
        "nonce": "0x608",
        "chainId": "0xaa36a7"
      },
      "additionalContracts": [],
      "isFixedGasLimit": false
    }
  ],
  "receipts": [
    {
      "status": "0x1",
      "cumulativeGasUsed": "0x6e9839",
      "logs": [],
      "logsBloom": "0x00000000000000000000000000000000000000000000000000000000000000000000000000000000000000000000000000000000000000000000000000000000000000000000000000000000000000000000000000000000000000000000000000000000000000000000000000000000000000000000000000000000000000000000000000000000000000000000000000000000000000000000000000000000000000000000000000000000000000000000000000000000000000000000000000000000000000000000000000000000000000000000000000000000000000000000000000000000000000000000000000000000000000000000000000000000",
      "type": "0x0",
      "transactionHash": "0x14808a21d31c603cca3cb8f475a44619be5d6e967da3269612997f2461d98366",
      "transactionIndex": "0x4d",
      "blockHash": "0x566de023d016f422d1a52768290b54bd766132de93ef808503ecfa757c81320e",
      "blockNumber": "0x665b0e",
      "gasUsed": "0x6661",
      "effectiveGasPrice": "0x2df5dc2b0",
      "from": "0xf8f8269488f73fab3935555fcddd6035699dee25",
      "to": "0xda121f1efb5398799d9ddeeddd6d45f8d58f04cd",
      "contractAddress": null
    }
  ],
  "libraries": [],
  "pending": [],
  "returns": {},
  "timestamp": 1726560655,
  "chain": 11155111,
  "commit": "8ae1c48"
}