{
  "transactions": [
    {
      "hash": "0x51f72a4dc1dc5317829d49fa3baa2d13d6ca75b29e96bcdd61df29c7be42d7b1",
      "transactionType": "CALL",
      "contractName": "RandomNumberGenerator",
      "contractAddress": "0xf91CEE8470186c1e17F7e4b2cC14a0090759dE02",
      "function": "setVrfConsumer(address)",
      "arguments": [
        "0xF81850c6A9CeE8eb9693dBa43D042379dd3384DB"
      ],
      "transaction": {
        "type": "0x02",
        "from": "0xf8f8269488f73fab3935555fcddd6035699dee25",
        "to": "0xf91cee8470186c1e17f7e4b2cc14a0090759de02",
        "gas": "0x10736",
        "value": "0x0",
        "data": "0xa829326d000000000000000000000000f81850c6a9cee8eb9693dba43d042379dd3384db",
        "nonce": "0x40b",
        "accessList": []
      },
      "additionalContracts": [],
      "isFixedGasLimit": false
    }
  ],
  "receipts": [
    {
      "transactionHash": "0x51f72a4dc1dc5317829d49fa3baa2d13d6ca75b29e96bcdd61df29c7be42d7b1",
      "transactionIndex": "0x8",
      "blockHash": "0x376abb34f697c844b877fd4048ac6a212d724bf39eeec075d6215d46b45833d4",
      "blockNumber": "0x57cab2",
      "from": "0xF8f8269488f73fab3935555FCDdD6035699deE25",
      "to": "0xf91CEE8470186c1e17F7e4b2cC14a0090759dE02",
      "cumulativeGasUsed": "0x6fbf0",
      "gasUsed": "0xb3fa",
      "contractAddress": null,
      "logs": [],
      "status": "0x1",
      "logsBloom": "0x00000000000000000000000000000000000000000000000000000000000000000000000000000000000000000000000000000000000000000000000000000000000000000000000000000000000000000000000000000000000000000000000000000000000000000000000000000000000000000000000000000000000000000000000000000000000000000000000000000000000000000000000000000000000000000000000000000000000000000000000000000000000000000000000000000000000000000000000000000000000000000000000000000000000000000000000000000000000000000000000000000000000000000000000000000000",
      "type": "0x2",
      "effectiveGasPrice": "0xb2e16077"
    }
  ],
  "libraries": [],
  "pending": [],
  "returns": {},
  "timestamp": 1713794953,
  "chain": 11155111,
  "commit": "f8895e5"
}