{
  "transactions": [
    {
      "hash": "0xca52af730a20dd689f8a1ef2b49d5843cb7cd353a8a9b1356449919ee55b5d45",
      "transactionType": "CALL",
      "contractName": "LockDrop",
      "contractAddress": "0xB11df7ba0600C468352D3D0cc159B4Ceea4a730A",
      "function": "deposit(uint256)",
      "arguments": [
        "10000000000000000"
      ],
      "transaction": {
        "type": "0x00",
        "from": "0xf8f8269488f73fab3935555fcddd6035699dee25",
        "to": "0xb11df7ba0600c468352d3d0cc159b4ceea4a730a",
        "gas": "0x10ecf",
        "value": "0x2386f26fc10000",
        "data": "0xb6b55f25000000000000000000000000000000000000000000000000002386f26fc10000",
        "nonce": "0x35c"
      },
      "additionalContracts": [],
      "isFixedGasLimit": false
    }
  ],
  "receipts": [],
  "libraries": [],
  "pending": [
    "0xca52af730a20dd689f8a1ef2b49d5843cb7cd353a8a9b1356449919ee55b5d45"
  ],
  "returns": {},
  "timestamp": 1708103262,
  "chain": 11155111,
  "multi": false,
  "commit": "1c81fef"
}