{
  "transactions": [
    {
      "hash": "0xca0d669df677ebb2346797848a0a7a863ec1ac2138407caa49dc7d6380d34535",
      "transactionType": "CALL",
      "contractName": null,
      "contractAddress": "0x16850367598abc5cba08f131a5427cde6e9c57af",
      "function": "transfer(address,uint256)",
      "arguments": [
        "0xF8f8269488f73fab3935555FCDdD6035699deE25",
        "100000000000000000000"
      ],
      "transaction": {
        "from": "0xf8f8269488f73fab3935555fcddd6035699dee25",
        "to": "0x16850367598abc5cba08f131a5427cde6e9c57af",
        "gas": "0x1524c",
        "value": "0x0",
        "input": "0xa9059cbb000000000000000000000000f8f8269488f73fab3935555fcddd6035699dee250000000000000000000000000000000000000000000000056bc75e2d63100000",
        "nonce": "0x690",
        "chainId": "0xaa36a7"
      },
      "additionalContracts": [],
      "isFixedGasLimit": false
    }
  ],
  "receipts": [
    {
      "status": "0x1",
      "cumulativeGasUsed": "0x8cb585",
      "logs": [
        {
          "address": "0xf3c6ea5f089d2b8853be82a27c82d13bf48fcebe",
          "topics": [
            "0xddf252ad1be2c89b69c2b068fc378daa952ba7f163c4a11628f55a4df523b3ef",
            "0x00000000000000000000000016850367598abc5cba08f131a5427cde6e9c57af",
            "0x000000000000000000000000f8f8269488f73fab3935555fcddd6035699dee25"
          ],
          "data": "0x0000000000000000000000000000000000000000000000056bc75e2d63100000",
          "blockHash": "0x814f5032424fb1dab0bbfd4a3a9ca342a0fa76a077c90a8adebb415f259a81bd",
          "blockNumber": "0x6d8610",
          "transactionHash": "0xca0d669df677ebb2346797848a0a7a863ec1ac2138407caa49dc7d6380d34535",
          "transactionIndex": "0x5f",
          "logIndex": "0x59",
          "removed": false
        }
      ],
      "logsBloom": "0x00000000000000000000000000000000000000000000000000000000000000000000000000000000000000000000000000000200000000000000000000000000000000000000080000000008000000000140040000000000000000000000000010000000000000000000000000040000008000000000000000000010000000000000000000000000000000000000000000000000000000000000000000000000000000000000000000000000000000000000000000000000000000000000000000000002000000000000000000000000000000000000000000000000100000000000000000000000000000000000000000000000000000000000000000000000",
      "type": "0x0",
      "transactionHash": "0xca0d669df677ebb2346797848a0a7a863ec1ac2138407caa49dc7d6380d34535",
      "transactionIndex": "0x5f",
      "blockHash": "0x814f5032424fb1dab0bbfd4a3a9ca342a0fa76a077c90a8adebb415f259a81bd",
      "blockNumber": "0x6d8610",
      "gasUsed": "0xe751",
      "effectiveGasPrice": "0x10432c2bd",
      "from": "0xf8f8269488f73fab3935555fcddd6035699dee25",
      "to": "0x16850367598abc5cba08f131a5427cde6e9c57af",
      "contractAddress": null
    }
  ],
  "libraries": [],
  "pending": [],
  "returns": {},
  "timestamp": 1732895646,
  "chain": 11155111,
  "commit": "bcb028c"
}