{
  "transactions": [
    {
      "hash": "0x2cbf8af6c9d0cdcac1fe5a16fb474ecb621a57a7fa1c91e9127b7b274f8e1060",
      "transactionType": "CALL",
      "contractName": "TokenManager",
      "contractAddress": "0x666a63F46121b251CD1E1EF7B9070CCD2296a94d",
      "function": "setRewardTokenAddress(address)",
      "arguments": [
        "0x802560a926b63C75111a94bB0f818790113a7f37"
      ],
      "transaction": {
        "type": "0x02",
        "from": "0xf8f8269488f73fab3935555fcddd6035699dee25",
        "to": "0x666a63f46121b251cd1e1ef7b9070ccd2296a94d",
        "gas": "0x8d2c",
        "value": "0x0",
        "data": "0x9a6acf20000000000000000000000000802560a926b63c75111a94bb0f818790113a7f37",
        "nonce": "0x435",
        "accessList": []
      },
      "additionalContracts": [],
      "isFixedGasLimit": false
    }
  ],
  "receipts": [
    {
      "transactionHash": "0x2cbf8af6c9d0cdcac1fe5a16fb474ecb621a57a7fa1c91e9127b7b274f8e1060",
      "transactionIndex": "0xd",
      "blockHash": "0xea0f5d612d64448d4fe7d4661297f0241e5686c99d1695a85d46b7e65645b83f",
      "blockNumber": "0x58bd58",
      "from": "0xF8f8269488f73fab3935555FCDdD6035699deE25",
      "to": "0x666a63F46121b251CD1E1EF7B9070CCD2296a94d",
      "cumulativeGasUsed": "0x8ccaa",
      "gasUsed": "0x6635",
      "contractAddress": null,
      "logs": [],
      "status": "0x1",
      "logsBloom": "0x00000000000000000000000000000000000000000000000000000000000000000000000000000000000000000000000000000000000000000000000000000000000000000000000000000000000000000000000000000000000000000000000000000000000000000000000000000000000000000000000000000000000000000000000000000000000000000000000000000000000000000000000000000000000000000000000000000000000000000000000000000000000000000000000000000000000000000000000000000000000000000000000000000000000000000000000000000000000000000000000000000000000000000000000000000000",
      "type": "0x2",
      "effectiveGasPrice": "0xba0555ba"
    }
  ],
  "libraries": [],
  "pending": [],
  "returns": {},
  "timestamp": 1714574257,
  "chain": 11155111,
  "commit": "9b7f865"
}