{
  "transactions": [
    {
      "hash": "0xcfcbf82788fe09542d963d6d0ca07744403a385ae3af8fe0edddd94d61b8836a",
      "transactionType": "CALL",
      "contractName": "LockDrop",
      "contractAddress": "0x94f91c8B7144FF3373A86290008D1C793328a19e",
      "function": "deposit(uint256)",
      "arguments": [
        "1000000000000000000000000"
      ],
      "transaction": {
        "type": "0x00",
        "from": "0xf8f8269488f73fab3935555fcddd6035699dee25",
        "to": "0x94f91c8b7144ff3373a86290008d1c793328a19e",
        "gas": "0xb2ac",
        "value": "0x0",
        "data": "0xb6b55f2500000000000000000000000000000000000000000000d3c21bcecceda1000000",
        "nonce": "0x354"
      },
      "additionalContracts": [],
      "isFixedGasLimit": false
    }
  ],
  "receipts": [],
  "libraries": [],
  "pending": [
    "0xcfcbf82788fe09542d963d6d0ca07744403a385ae3af8fe0edddd94d61b8836a"
  ],
  "returns": {},
  "timestamp": 1708096769,
  "chain": 11155111,
  "multi": false,
  "commit": "1c81fef"
}