{
  "transactions": [
    {
      "hash": "0xc5963d6026c6de0032dab63e1fd32da6a0af0a125e8e9c41ae37c11f59c2b5a3",
      "transactionType": "CALL",
      "contractName": "TokenManager",
      "contractAddress": "0x50eF9E70dA285ee6321F765997FCd294f0805d36",
      "function": "setRewardTokenAddress(address)",
      "arguments": [
        "0xf45f8cB5A4C2Dc20D2865a1C6751407C4E097c67"
      ],
      "transaction": {
        "type": "0x02",
        "from": "0xf8f8269488f73fab3935555fcddd6035699dee25",
        "to": "0x50ef9e70da285ee6321f765997fcd294f0805d36",
        "gas": "0x959a",
        "value": "0x0",
        "data": "0x9a6acf20000000000000000000000000f45f8cb5a4c2dc20d2865a1c6751407c4e097c67",
        "nonce": "0x480",
        "accessList": []
      },
      "additionalContracts": [],
      "isFixedGasLimit": false
    }
  ],
  "receipts": [
    {
      "transactionHash": "0xc5963d6026c6de0032dab63e1fd32da6a0af0a125e8e9c41ae37c11f59c2b5a3",
      "transactionIndex": "0x6",
      "blockHash": "0xd13ae364d2980ada434899e80a4a3760e8abfdd10cd79ee89255ca43bc840d38",
      "blockNumber": "0x59b6fc",
      "from": "0xF8f8269488f73fab3935555FCDdD6035699deE25",
      "to": "0x50eF9E70dA285ee6321F765997FCd294f0805d36",
      "cumulativeGasUsed": "0x14289b",
      "gasUsed": "0x664b",
      "contractAddress": null,
      "logs": [],
      "status": "0x1",
      "logsBloom": "0x00000000000000000000000000000000000000000000000000000000000000000000000000000000000000000000000000000000000000000000000000000000000000000000000000000000000000000000000000000000000000000000000000000000000000000000000000000000000000000000000000000000000000000000000000000000000000000000000000000000000000000000000000000000000000000000000000000000000000000000000000000000000000000000000000000000000000000000000000000000000000000000000000000000000000000000000000000000000000000000000000000000000000000000000000000000",
      "type": "0x2",
      "effectiveGasPrice": "0xb2db95ed"
    }
  ],
  "libraries": [],
  "pending": [],
  "returns": {},
  "timestamp": 1715413526,
  "chain": 11155111,
  "commit": "f0357c2"
}