{
  "transactions": [
    {
      "hash": "0xb45fbf60ba83014caf12b4ffb7e17ece0cb1ae79cc5c6ba89a2c14a9e48c8600",
      "transactionType": "CALL",
      "contractName": null,
      "contractAddress": "0x677eedea7478ebda894ca2435d7496829a38c584",
      "function": "setLockDropAddress(address)",
      "arguments": [
        "0x895F91167f1374E44A271dE082dFD109200F970d"
      ],
      "transaction": {
        "from": "0xf8f8269488f73fab3935555fcddd6035699dee25",
        "to": "0x677eedea7478ebda894ca2435d7496829a38c584",
        "gas": "0xf8a9",
        "value": "0x0",
        "input": "0xb6e7377d000000000000000000000000895f91167f1374e44a271de082dfd109200f970d",
        "nonce": "0x624",
        "chainId": "0xaa36a7"
      },
      "additionalContracts": [],
      "isFixedGasLimit": false
    }
  ],
  "receipts": [
    {
      "status": "0x1",
      "cumulativeGasUsed": "0xc9a95",
      "logs": [],
      "logsBloom": "0x00000000000000000000000000000000000000000000000000000000000000000000000000000000000000000000000000000000000000000000000000000000000000000000000000000000000000000000000000000000000000000000000000000000000000000000000000000000000000000000000000000000000000000000000000000000000000000000000000000000000000000000000000000000000000000000000000000000000000000000000000000000000000000000000000000000000000000000000000000000000000000000000000000000000000000000000000000000000000000000000000000000000000000000000000000000",
      "type": "0x0",
      "transactionHash": "0xb45fbf60ba83014caf12b4ffb7e17ece0cb1ae79cc5c6ba89a2c14a9e48c8600",
      "transactionIndex": "0x9",
      "blockHash": "0xc5ee54dc7cacf49be3472adb1d8120211d56fd156b79ab1b7d3653135f4530d2",
      "blockNumber": "0x66a4de",
      "gasUsed": "0xb407",
      "effectiveGasPrice": "0x102ac9dc21",
      "from": "0xf8f8269488f73fab3935555fcddd6035699dee25",
      "to": "0x677eedea7478ebda894ca2435d7496829a38c584",
      "contractAddress": null
    }
  ],
  "libraries": [],
  "pending": [],
  "returns": {},
  "timestamp": 1726830855,
  "chain": 11155111,
  "commit": "bf3ceb3"
}