{
  "transactions": [
    {
      "hash": "0x8ef91045861057b6af14176440f37221e2bb434766de8e7857bedcf1fe590baf",
      "transactionType": "CALL",
      "contractName": null,
      "contractAddress": "0xcc49b1ed8753163def2820ed935817db489d7e8f",
      "function": "setLockDropAddress(address)",
      "arguments": [
        "0x03480b007068A237bA74B85Df61c5A50224ED254"
      ],
      "transaction": {
        "from": "0xf8f8269488f73fab3935555fcddd6035699dee25",
        "to": "0xcc49b1ed8753163def2820ed935817db489d7e8f",
        "gas": "0x9c73",
        "value": "0x0",
        "input": "0xb6e7377d00000000000000000000000003480b007068a237ba74b85df61c5a50224ed254",
        "nonce": "0x611",
        "chainId": "0xaa36a7"
      },
      "additionalContracts": [],
      "isFixedGasLimit": false
    },
    {
      "hash": "0x78b72819497048f8a21e0dc6547dbe2b5108298d987d3e80f23761b4df841d17",
      "transactionType": "CALL",
      "contractName": null,
      "contractAddress": "0x03480b007068a237ba74b85df61c5a50224ed254",
      "function": "deposit(uint256)",
      "arguments": [
        "10000000000000000000"
      ],
      "transaction": {
        "from": "0xf8f8269488f73fab3935555fcddd6035699dee25",
        "to": "0x03480b007068a237ba74b85df61c5a50224ed254",
        "gas": "0x17a43",
        "value": "0x0",
        "input": "0xb6b55f250000000000000000000000000000000000000000000000008ac7230489e80000",
        "nonce": "0x612",
        "chainId": "0xaa36a7"
      },
      "additionalContracts": [],
      "isFixedGasLimit": false
    }
  ],
  "receipts": [
    {
      "status": "0x1",
      "cumulativeGasUsed": "0x4bc6d2",
      "logs": [],
      "logsBloom": "0x00000000000000000000000000000000000000000000000000000000000000000000000000000000000000000000000000000000000000000000000000000000000000000000000000000000000000000000000000000000000000000000000000000000000000000000000000000000000000000000000000000000000000000000000000000000000000000000000000000000000000000000000000000000000000000000000000000000000000000000000000000000000000000000000000000000000000000000000000000000000000000000000000000000000000000000000000000000000000000000000000000000000000000000000000000000",
      "type": "0x0",
      "transactionHash": "0x8ef91045861057b6af14176440f37221e2bb434766de8e7857bedcf1fe590baf",
      "transactionIndex": "0x4c",
      "blockHash": "0x511b56213bf37e91b379c2ff921763eb8d0ae9e5439570d963c3e7a6a947f518",
      "blockNumber": "0x665f6f",
      "gasUsed": "0x7145",
      "effectiveGasPrice": "0x1455de255",
      "from": "0xf8f8269488f73fab3935555fcddd6035699dee25",
      "to": "0xcc49b1ed8753163def2820ed935817db489d7e8f",
      "contractAddress": null
    },
    {
      "status": "0x1",
      "cumulativeGasUsed": "0x4cd8ae",
      "logs": [
        {
          "address": "0x03480b007068a237ba74b85df61c5a50224ed254",
          "topics": [
            "0xa91e0c3165215fe453f5bf3de083d5fd6c4e62c491849155a042a647588c53a0",
            "0x000000000000000000000000f8f8269488f73fab3935555fcddd6035699dee25"
          ],
          "data": "0x0000000000000000000000000000000000000000000000008ac7230489e800000000000000000000000000000000000000000000000000000000000000665f6f",
          "blockHash": "0x511b56213bf37e91b379c2ff921763eb8d0ae9e5439570d963c3e7a6a947f518",
          "blockNumber": "0x665f6f",
          "transactionHash": "0x78b72819497048f8a21e0dc6547dbe2b5108298d987d3e80f23761b4df841d17",
          "transactionIndex": "0x4d",
          "logIndex": "0x3d",
          "removed": false
        }
      ],
      "logsBloom": "0x00000000000000000000000000000000000000000000000000000000000000000000000000000000000000000000000000000000000000000000000000000000000000000002080000000000000000000000040000000000000000000000000010000000000000000000000000000000020000000000000000000000000000000000000000000000000000000100000000000000000000000000000000000000000000000000000000000000000000000000000000000000200000000000000000000000000000000000000100000000000000000000000000000000000000000000080000000000000000000000000000000000000000000000000000000000",
      "type": "0x0",
      "transactionHash": "0x78b72819497048f8a21e0dc6547dbe2b5108298d987d3e80f23761b4df841d17",
      "transactionIndex": "0x4d",
      "blockHash": "0x511b56213bf37e91b379c2ff921763eb8d0ae9e5439570d963c3e7a6a947f518",
      "blockNumber": "0x665f6f",
      "gasUsed": "0x111dc",
      "effectiveGasPrice": "0x1455de255",
      "from": "0xf8f8269488f73fab3935555fcddd6035699dee25",
      "to": "0x03480b007068a237ba74b85df61c5a50224ed254",
      "contractAddress": null
    }
  ],
  "libraries": [],
  "pending": [],
  "returns": {},
  "timestamp": 1726575774,
  "chain": 11155111,
  "commit": "8ae1c48"
}