{
  "transactions": [
    {
      "hash": "0x96f9b3b39aef5edafe0c79e1e7f9595896977630589ac84968edc2132f099796",
      "transactionType": "CALL",
      "contractName": null,
      "contractAddress": "0xf1a792ca5bd4d60585c8e46b41f22d1b03dcbe30",
      "function": "topUpFtn(uint256)",
      "arguments": [
        "100000000000000000000"
      ],
      "transaction": {
        "from": "0xf8f8269488f73fab3935555fcddd6035699dee25",
        "to": "0xf1a792ca5bd4d60585c8e46b41f22d1b03dcbe30",
        "gas": "0x14f0f",
        "value": "0x0",
        "input": "0x645ed8310000000000000000000000000000000000000000000000056bc75e2d63100000",
        "nonce": "0x632",
        "chainId": "0xaa36a7"
      },
      "additionalContracts": [],
      "isFixedGasLimit": false
    }
  ],
  "receipts": [
    {
      "status": "0x1",
      "cumulativeGasUsed": "0xb666ff",
      "logs": [
        {
          "address": "0x72bca724f188c4840001dc392ab018016b6db428",
          "topics": [
            "0xddf252ad1be2c89b69c2b068fc378daa952ba7f163c4a11628f55a4df523b3ef",
            "0x000000000000000000000000f1a792ca5bd4d60585c8e46b41f22d1b03dcbe30",
            "0x000000000000000000000000f8f8269488f73fab3935555fcddd6035699dee25"
          ],
          "data": "0x0000000000000000000000000000000000000000000000056bc75e2d63100000",
          "blockHash": "0xd7c38e0ee5280f9eab574337302bf44a614c1eaf4ff0b5581c73ea19e83f04eb",
          "blockNumber": "0x670198",
          "transactionHash": "0x96f9b3b39aef5edafe0c79e1e7f9595896977630589ac84968edc2132f099796",
          "transactionIndex": "0x3c",
          "logIndex": "0x5b",
          "removed": false
        }
      ],
      "logsBloom": "0x00000000000000000000000000000000000000000000000000000000000000000000000000000000000000000000000000000000000000040000000000000000000000000000080000000008000000000000042000000000000000000000000010000000000000000000000000000000000000000000000000000030000000000000100000000000000000000000000000000000000000000000000000000000000000000000000000000000000000000000000000000000000000000000000000000002000000000000000000000000000000000004000000000000000000000000000000000000000000000000000000000000000000001000000000000000",
      "type": "0x0",
      "transactionHash": "0x96f9b3b39aef5edafe0c79e1e7f9595896977630589ac84968edc2132f099796",
      "transactionIndex": "0x3c",
      "blockHash": "0xd7c38e0ee5280f9eab574337302bf44a614c1eaf4ff0b5581c73ea19e83f04eb",
      "blockNumber": "0x670198",
      "gasUsed": "0xe51a",
      "effectiveGasPrice": "0x55c48b650",
      "from": "0xf8f8269488f73fab3935555fcddd6035699dee25",
      "to": "0xf1a792ca5bd4d60585c8e46b41f22d1b03dcbe30",
      "contractAddress": null
    }
  ],
  "libraries": [],
  "pending": [],
  "returns": {},
  "timestamp": 1727174570,
  "chain": 11155111,
  "commit": "bf3ceb3"
}