{
  "transactions": [
    {
      "hash": "0x71ec71b0ceb46058e57ab86f70ba8e103c77111b288ec6a151cfa86ab82565ac",
      "transactionType": "CALL",
      "contractName": null,
      "contractAddress": "0x8823a76de8387f84fa0cf4da2d180d52b36c9f62",
      "function": "setLockDropAddress(address)",
      "arguments": [
        "0x9f1B8bCD1AB6Fa8b687fcA5bEc3449E50596020a"
      ],
      "transaction": {
        "from": "0xf8f8269488f73fab3935555fcddd6035699dee25",
        "to": "0x8823a76de8387f84fa0cf4da2d180d52b36c9f62",
        "gas": "0xf8c7",
        "value": "0x0",
        "input": "0xb6e7377d0000000000000000000000009f1b8bcd1ab6fa8b687fca5bec3449e50596020a",
        "nonce": "0x617",
        "chainId": "0xaa36a7"
      },
      "additionalContracts": [],
      "isFixedGasLimit": false
    }
  ],
  "receipts": [
    {
      "status": "0x1",
      "cumulativeGasUsed": "0x763cf9",
      "logs": [],
      "logsBloom": "0x00000000000000000000000000000000000000000000000000000000000000000000000000000000000000000000000000000000000000000000000000000000000000000000000000000000000000000000000000000000000000000000000000000000000000000000000000000000000000000000000000000000000000000000000000000000000000000000000000000000000000000000000000000000000000000000000000000000000000000000000000000000000000000000000000000000000000000000000000000000000000000000000000000000000000000000000000000000000000000000000000000000000000000000000000000000",
      "type": "0x2",
      "transactionHash": "0x71ec71b0ceb46058e57ab86f70ba8e103c77111b288ec6a151cfa86ab82565ac",
      "transactionIndex": "0x49",
      "blockHash": "0x054a764558881d9abf084b14562eb5978c84365fb50776179ab71d103bf93599",
      "blockNumber": "0x668be4",
      "gasUsed": "0xb41d",
      "effectiveGasPrice": "0x6352043ea",
      "from": "0xf8f8269488f73fab3935555fcddd6035699dee25",
      "to": "0x8823a76de8387f84fa0cf4da2d180d52b36c9f62",
      "contractAddress": null
    }
  ],
  "libraries": [],
  "pending": [],
  "returns": {},
  "timestamp": 1726738781,
  "chain": 11155111,
  "commit": "8ae1c48"
}