{
  "transactions": [
    {
      "hash": "0x43c3eab85f5855d6357b419e4afe44faa320afb3816b258078cdbfce673da645",
      "transactionType": "CALL",
      "contractName": "LockDrop",
      "contractAddress": "0x94f91c8B7144FF3373A86290008D1C793328a19e",
      "function": "deposit(uint256)",
      "arguments": [
        "1000000000000000000"
      ],
      "transaction": {
        "type": "0x00",
        "from": "0xf8f8269488f73fab3935555fcddd6035699dee25",
        "to": "0x94f91c8b7144ff3373a86290008d1c793328a19e",
        "gas": "0xb29c",
        "value": "0x0",
        "data": "0xb6b55f250000000000000000000000000000000000000000000000000de0b6b3a7640000",
        "nonce": "0x359"
      },
      "additionalContracts": [],
      "isFixedGasLimit": false
    }
  ],
  "receipts": [],
  "libraries": [],
  "pending": [
    "0x43c3eab85f5855d6357b419e4afe44faa320afb3816b258078cdbfce673da645"
  ],
  "returns": {},
  "timestamp": 1708099613,
  "chain": 11155111,
  "multi": false,
  "commit": "1c81fef"
}