{
  "transactions": [
    {
      "hash": "0xb7f80f9b535cc6d5b69686effedca460b11eb5fa50551493ae9c897fc45b541b",
      "transactionType": "CALL",
      "contractName": null,
      "contractAddress": "0xf1a792ca5bd4d60585c8e46b41f22d1b03dcbe30",
      "function": "setLockDropAddress(address)",
      "arguments": [
        "0xE6Ed61614F94d5A967daA2BFa5e377ccf66472c6"
      ],
      "transaction": {
        "from": "0xf8f8269488f73fab3935555fcddd6035699dee25",
        "to": "0xf1a792ca5bd4d60585c8e46b41f22d1b03dcbe30",
        "gas": "0xf8c7",
        "value": "0x0",
        "input": "0xb6e7377d000000000000000000000000e6ed61614f94d5a967daa2bfa5e377ccf66472c6",
        "nonce": "0x631",
        "chainId": "0xaa36a7"
      },
      "additionalContracts": [],
      "isFixedGasLimit": false
    }
  ],
  "receipts": [
    {
      "status": "0x1",
      "cumulativeGasUsed": "0x52c7c8",
      "logs": [],
      "logsBloom": "0x00000000000000000000000000000000000000000000000000000000000000000000000000000000000000000000000000000000000000000000000000000000000000000000000000000000000000000000000000000000000000000000000000000000000000000000000000000000000000000000000000000000000000000000000000000000000000000000000000000000000000000000000000000000000000000000000000000000000000000000000000000000000000000000000000000000000000000000000000000000000000000000000000000000000000000000000000000000000000000000000000000000000000000000000000000000",
      "type": "0x0",
      "transactionHash": "0xb7f80f9b535cc6d5b69686effedca460b11eb5fa50551493ae9c897fc45b541b",
      "transactionIndex": "0x21",
      "blockHash": "0xd85dea20213fe7bd36e81a5c31fd56dd29cf347d340f181ff5a54ffcfcfaaacd",
      "blockNumber": "0x670171",
      "gasUsed": "0xb41d",
      "effectiveGasPrice": "0x62e77103b",
      "from": "0xf8f8269488f73fab3935555fcddd6035699dee25",
      "to": "0xf1a792ca5bd4d60585c8e46b41f22d1b03dcbe30",
      "contractAddress": null
    }
  ],
  "libraries": [],
  "pending": [],
  "returns": {},
  "timestamp": 1727174032,
  "chain": 11155111,
  "commit": "bf3ceb3"
}