{
  "transactions": [
    {
      "hash": "0x3c66712ce3e6c92a6f44dd0d8831e18475522b55007bd6fd398df0eb1a500084",
      "transactionType": "CALL",
      "contractName": null,
      "contractAddress": "0xf1a792ca5bd4d60585c8e46b41f22d1b03dcbe30",
      "function": "setLockDropAddress(address)",
      "arguments": [
        "0x943267E4dEf0D4564490074c68D0062F961c3710"
      ],
      "transaction": {
        "from": "0xf8f8269488f73fab3935555fcddd6035699dee25",
        "to": "0xf1a792ca5bd4d60585c8e46b41f22d1b03dcbe30",
        "gas": "0xa5b9",
        "value": "0x0",
        "input": "0xb6e7377d000000000000000000000000943267e4def0d4564490074c68d0062f961c3710",
        "nonce": "0x63b",
        "chainId": "0xaa36a7"
      },
      "additionalContracts": [],
      "isFixedGasLimit": false
    }
  ],
  "receipts": [
    {
      "status": "0x1",
      "cumulativeGasUsed": "0x97570d",
      "logs": [],
      "logsBloom": "0x00000000000000000000000000000000000000000000000000000000000000000000000000000000000000000000000000000000000000000000000000000000000000000000000000000000000000000000000000000000000000000000000000000000000000000000000000000000000000000000000000000000000000000000000000000000000000000000000000000000000000000000000000000000000000000000000000000000000000000000000000000000000000000000000000000000000000000000000000000000000000000000000000000000000000000000000000000000000000000000000000000000000000000000000000000000",
      "type": "0x2",
      "transactionHash": "0x3c66712ce3e6c92a6f44dd0d8831e18475522b55007bd6fd398df0eb1a500084",
      "transactionIndex": "0x89",
      "blockHash": "0x1943faa96b01805ccff9910e666160441f51a2cf3dc1b30453394c7e47f24668",
      "blockNumber": "0x6704f4",
      "gasUsed": "0x7151",
      "effectiveGasPrice": "0x11adc827f7",
      "from": "0xf8f8269488f73fab3935555fcddd6035699dee25",
      "to": "0xf1a792ca5bd4d60585c8e46b41f22d1b03dcbe30",
      "contractAddress": null
    }
  ],
  "libraries": [],
  "pending": [],
  "returns": {},
  "timestamp": 1727186847,
  "chain": 11155111,
  "commit": "bf3ceb3"
}