{
  "transactions": [
    {
      "hash": "0xb85b4dbe837ffa917fb2c4063e55d815716f3cb1e71e945ff1e2616165dceba8",
      "transactionType": "CALL",
      "contractName": "LockDrop",
      "contractAddress": "0x94f91c8B7144FF3373A86290008D1C793328a19e",
      "function": "deposit(uint256)",
      "arguments": [
        "10000000000000000"
      ],
      "transaction": {
        "type": "0x00",
        "from": "0xf8f8269488f73fab3935555fcddd6035699dee25",
        "to": "0x94f91c8b7144ff3373a86290008d1c793328a19e",
        "gas": "0x16b12",
        "value": "0x0",
        "data": "0xb6b55f25000000000000000000000000000000000000000000000000002386f26fc10000",
        "nonce": "0x357"
      },
      "additionalContracts": [],
      "isFixedGasLimit": false
    }
  ],
  "receipts": [],
  "libraries": [],
  "pending": [
    "0xb85b4dbe837ffa917fb2c4063e55d815716f3cb1e71e945ff1e2616165dceba8"
  ],
  "returns": {},
  "timestamp": 1708098691,
  "chain": 11155111,
  "multi": false,
  "commit": "1c81fef"
}