{
  "transactions": [
    {
      "hash": "0x7792e6669f691a08a36eb6cc30a96ee7082cd19d490b337706c68ee53e66fd98",
      "transactionType": "CALL",
      "contractName": null,
      "contractAddress": "0xda121f1efb5398799d9ddeeddd6d45f8d58f04cd",
      "function": "topUpFtn(uint256)",
      "arguments": [
        "100000000000000000000"
      ],
      "transaction": {
        "from": "0xf8f8269488f73fab3935555fcddd6035699dee25",
        "to": "0xda121f1efb5398799d9ddeeddd6d45f8d58f04cd",
        "gas": "0x1507a",
        "value": "0x0",
        "input": "0x645ed8310000000000000000000000000000000000000000000000056bc75e2d63100000",
        "nonce": "0x607",
        "chainId": "0xaa36a7"
      },
      "additionalContracts": [],
      "isFixedGasLimit": false
    }
  ],
  "receipts": [
    {
      "status": "0x1",
      "cumulativeGasUsed": "0xf7603a",
      "logs": [
        {
          "address": "0xc15d2a1fab7a49750f592e88928d60a8fc49512b",
          "topics": [
            "0xddf252ad1be2c89b69c2b068fc378daa952ba7f163c4a11628f55a4df523b3ef",
            "0x000000000000000000000000da121f1efb5398799d9ddeeddd6d45f8d58f04cd",
            "0x000000000000000000000000f8f8269488f73fab3935555fcddd6035699dee25"
          ],
          "data": "0x0000000000000000000000000000000000000000000000056bc75e2d63100000",
          "blockHash": "0x62a46b4f432872b1e3bcdb210c70b2a5c6ef807bb5ac0f1fd30653cc0c55234f",
          "blockNumber": "0x664d30",
          "transactionHash": "0x7792e6669f691a08a36eb6cc30a96ee7082cd19d490b337706c68ee53e66fd98",
          "transactionIndex": "0x89",
          "logIndex": "0xb7",
          "removed": false
        }
      ],
      "logsBloom": "0x00000000000000000000000000000000000000000000000000000000000000000000000000000000000000000000000000000000000000000000002000000000000000000000080000001008000000000000040000000000000000000000000010000000000000000000000000000000000000000000000000000010000000000000000000000000000000000000000000000000000000000000000000000000000000000040000000000000000000000000000000000000000000000000000000000002000004000000000000000000000000000000000000000000000000000000000000000100000000000000000000000000080000000000000000000000",
      "type": "0x0",
      "transactionHash": "0x7792e6669f691a08a36eb6cc30a96ee7082cd19d490b337706c68ee53e66fd98",
      "transactionIndex": "0x89",
      "blockHash": "0x62a46b4f432872b1e3bcdb210c70b2a5c6ef807bb5ac0f1fd30653cc0c55234f",
      "blockNumber": "0x664d30",
      "gasUsed": "0xe612",
      "effectiveGasPrice": "0x15e5b9ee5",
      "from": "0xf8f8269488f73fab3935555fcddd6035699dee25",
      "to": "0xda121f1efb5398799d9ddeeddd6d45f8d58f04cd",
      "contractAddress": null
    }
  ],
  "libraries": [],
  "pending": [],
  "returns": {},
  "timestamp": 1726512318,
  "chain": 11155111,
  "commit": "8ae1c48"
}