{
  "transactions": [
    {
      "hash": "0xddd5bd216dbc1d44816b68282ccbacbf4333d75af11030873006d8ecac6505d3",
      "transactionType": "CALL",
      "contractName": null,
      "contractAddress": "0x1476f48415c317f83e102e1915324510cef2b252",
      "function": "setLockDropAddress(address)",
      "arguments": [
        "0x1a5abcC1ff688E2b2A9A09893f7E140171fF182a"
      ],
      "transaction": {
        "from": "0xf8f8269488f73fab3935555fcddd6035699dee25",
        "to": "0x1476f48415c317f83e102e1915324510cef2b252",
        "gas": "0xf8c7",
        "value": "0x0",
        "input": "0xb6e7377d0000000000000000000000001a5abcc1ff688e2b2a9a09893f7e140171ff182a",
        "nonce": "0x64a",
        "chainId": "0xaa36a7"
      },
      "additionalContracts": [],
      "isFixedGasLimit": false
    }
  ],
  "receipts": [
    {
      "status": "0x1",
      "cumulativeGasUsed": "0x83fd4",
      "logs": [],
      "logsBloom": "0x00000000000000000000000000000000000000000000000000000000000000000000000000000000000000000000000000000000000000000000000000000000000000000000000000000000000000000000000000000000000000000000000000000000000000000000000000000000000000000000000000000000000000000000000000000000000000000000000000000000000000000000000000000000000000000000000000000000000000000000000000000000000000000000000000000000000000000000000000000000000000000000000000000000000000000000000000000000000000000000000000000000000000000000000000000000",
      "type": "0x0",
      "transactionHash": "0xddd5bd216dbc1d44816b68282ccbacbf4333d75af11030873006d8ecac6505d3",
      "transactionIndex": "0xb",
      "blockHash": "0xb31ed18d335babdd7faa1d6a1fe0589abbb0b98bf255c49e3385ee60804b74cf",
      "blockNumber": "0x671708",
      "gasUsed": "0xb41d",
      "effectiveGasPrice": "0x4ffcf258f3",
      "from": "0xf8f8269488f73fab3935555fcddd6035699dee25",
      "to": "0x1476f48415c317f83e102e1915324510cef2b252",
      "contractAddress": null
    }
  ],
  "libraries": [],
  "pending": [],
  "returns": {},
  "timestamp": 1727254237,
  "chain": 11155111,
  "commit": "bf3ceb3"
}