{
  "transactions": [
    {
      "hash": "0xcbf8b00f7943585d15dff65a4def5908e66a7541b4de7bf73d48f3812721c75d",
      "transactionType": "CALL",
      "contractName": null,
      "contractAddress": "0xcc49b1ed8753163def2820ed935817db489d7e8f",
      "function": "setLockDropAddress(address)",
      "arguments": [
        "0xe81c757310D35B9564705C62e973d7E70f3a1dB0"
      ],
      "transaction": {
        "from": "0xf8f8269488f73fab3935555fcddd6035699dee25",
        "to": "0xcc49b1ed8753163def2820ed935817db489d7e8f",
        "gas": "0xf8c7",
        "value": "0x0",
        "input": "0xb6e7377d000000000000000000000000e81c757310d35b9564705c62e973d7e70f3a1db0",
        "nonce": "0x60e",
        "chainId": "0xaa36a7"
      },
      "additionalContracts": [],
      "isFixedGasLimit": false
    }
  ],
  "receipts": [
    {
      "status": "0x1",
      "cumulativeGasUsed": "0x5b8742",
      "logs": [],
      "logsBloom": "0x00000000000000000000000000000000000000000000000000000000000000000000000000000000000000000000000000000000000000000000000000000000000000000000000000000000000000000000000000000000000000000000000000000000000000000000000000000000000000000000000000000000000000000000000000000000000000000000000000000000000000000000000000000000000000000000000000000000000000000000000000000000000000000000000000000000000000000000000000000000000000000000000000000000000000000000000000000000000000000000000000000000000000000000000000000000",
      "type": "0x0",
      "transactionHash": "0xcbf8b00f7943585d15dff65a4def5908e66a7541b4de7bf73d48f3812721c75d",
      "transactionIndex": "0x32",
      "blockHash": "0x5d1c957f6e8df252bf9b96f797328c74a7d991ded3a1d3ff9911a9a75dbdb23c",
      "blockNumber": "0x665c59",
      "gasUsed": "0xb41d",
      "effectiveGasPrice": "0x3212d3983",
      "from": "0xf8f8269488f73fab3935555fcddd6035699dee25",
      "to": "0xcc49b1ed8753163def2820ed935817db489d7e8f",
      "contractAddress": null
    }
  ],
  "libraries": [],
  "pending": [],
  "returns": {},
  "timestamp": 1726565124,
  "chain": 11155111,
  "commit": "8ae1c48"
}