{
  "transactions": [
    {
      "hash": "0xbd34cb4509f035cfa1e3a0be6abe510352877d84403cbc8ccfa75b8893afa453",
      "transactionType": "CALL",
      "contractName": null,
      "contractAddress": "0xda121f1efb5398799d9ddeeddd6d45f8d58f04cd",
      "function": "setLockDropAddress(address)",
      "arguments": [
        "0x3D4Da8293F896F33BC786AcDDEb96Cc47c2Dc891"
      ],
      "transaction": {
        "from": "0xf8f8269488f73fab3935555fcddd6035699dee25",
        "to": "0xda121f1efb5398799d9ddeeddd6d45f8d58f04cd",
        "gas": "0xf8c7",
        "value": "0x0",
        "input": "0xb6e7377d0000000000000000000000003d4da8293f896f33bc786acddeb96cc47c2dc891",
        "nonce": "0x606",
        "chainId": "0xaa36a7"
      },
      "additionalContracts": [],
      "isFixedGasLimit": false
    }
  ],
  "receipts": [
    {
      "status": "0x1",
      "cumulativeGasUsed": "0x624dab",
      "logs": [],
      "logsBloom": "0x00000000000000000000000000000000000000000000000000000000000000000000000000000000000000000000000000000000000000000000000000000000000000000000000000000000000000000000000000000000000000000000000000000000000000000000000000000000000000000000000000000000000000000000000000000000000000000000000000000000000000000000000000000000000000000000000000000000000000000000000000000000000000000000000000000000000000000000000000000000000000000000000000000000000000000000000000000000000000000000000000000000000000000000000000000000",
      "type": "0x0",
      "transactionHash": "0xbd34cb4509f035cfa1e3a0be6abe510352877d84403cbc8ccfa75b8893afa453",
      "transactionIndex": "0x61",
      "blockHash": "0x20eb7192a7ac364970a079d718ba93a6463fa88d5f0416b3483edb29ca7dd7b5",
      "blockNumber": "0x664b53",
      "gasUsed": "0xb41d",
      "effectiveGasPrice": "0x143713e95",
      "from": "0xf8f8269488f73fab3935555fcddd6035699dee25",
      "to": "0xda121f1efb5398799d9ddeeddd6d45f8d58f04cd",
      "contractAddress": null
    }
  ],
  "libraries": [],
  "pending": [],
  "returns": {},
  "timestamp": 1726505862,
  "chain": 11155111,
  "commit": "8ae1c48"
}