{
  "transactions": [
    {
      "hash": "0xca52af730a20dd689f8a1ef2b49d5843cb7cd353a8a9b1356449919ee55b5d45",
      "transactionType": "CALL",
      "contractName": "LockDrop",
      "contractAddress": "0xB11df7ba0600C468352D3D0cc159B4Ceea4a730A",
      "function": "deposit(uint256)",
      "arguments": [
        "10000000000000000"
      ],
      "transaction": {
        "type": "0x00",
        "from": "0xf8f8269488f73fab3935555fcddd6035699dee25",
        "to": "0xb11df7ba0600c468352d3d0cc159b4ceea4a730a",
        "gas": "0x10ecf",
        "value": "0x2386f26fc10000",
        "data": "0xb6b55f25000000000000000000000000000000000000000000000000002386f26fc10000",
        "nonce": "0x35c"
      },
      "additionalContracts": [],
      "isFixedGasLimit": false
    }
  ],
  "receipts": [
    {
      "transactionHash": "0xca52af730a20dd689f8a1ef2b49d5843cb7cd353a8a9b1356449919ee55b5d45",
      "transactionIndex": "0x70",
      "blockHash": "0x39d3623bdcf2b9a6fcaadc73a6250c60b3f43976a4c6a8875028c1c5fb7abf36",
      "blockNumber": "0x50e6ca",
      "from": "0xF8f8269488f73fab3935555FCDdD6035699deE25",
      "to": "0xB11df7ba0600C468352D3D0cc159B4Ceea4a730A",
      "cumulativeGasUsed": "0xc7047c",
      "gasUsed": "0xc410",
      "contractAddress": null,
      "logs": [
        {
          "address": "0xB11df7ba0600C468352D3D0cc159B4Ceea4a730A",
          "topics": [
            "0x2cb77763bc1e8490c1a904905c4d74b4269919aca114464f4bb4d911e60de364",
            "0x000000000000000000000000f8f8269488f73fab3935555fcddd6035699dee25"
          ],
          "data": "0x000000000000000000000000000000000000000000000000002386f26fc10000",
          "blockHash": "0x39d3623bdcf2b9a6fcaadc73a6250c60b3f43976a4c6a8875028c1c5fb7abf36",
          "blockNumber": "0x50e6ca",
          "transactionHash": "0xca52af730a20dd689f8a1ef2b49d5843cb7cd353a8a9b1356449919ee55b5d45",
          "transactionIndex": "0x70",
          "logIndex": "0xcd",
          "removed": false
        }
      ],
      "status": "0x1",
      "logsBloom": "0x00000000000000000000000000000000000000000000000000000000000000000000000000000000020000000000040000000000000000000000000000000000000000000000080000000000000000000000040000000000000000000000000010000000000000000000000000000000000000000000000000000000000000000000000000000000000000000000000000000000000000000000000000000000000000000000000000000000000000000000000000000100000000000004000000000000000000000000000000000000000000000000000100000000000000200000000000000000000000000000000000000000000000000000000000000000",
      "type": "0x0",
      "effectiveGasPrice": "0x8dfef5273"
    }
  ],
  "libraries": [],
  "pending": [],
  "returns": {},
  "timestamp": 1708103276,
  "chain": 11155111,
  "multi": false,
  "commit": "1c81fef"
}