{
  "transactions": [
    {
      "hash": "0xcfcbf82788fe09542d963d6d0ca07744403a385ae3af8fe0edddd94d61b8836a",
      "transactionType": "CALL",
      "contractName": "LockDrop",
      "contractAddress": "0x94f91c8B7144FF3373A86290008D1C793328a19e",
      "function": "deposit(uint256)",
      "arguments": [
        "1000000000000000000000000"
      ],
      "transaction": {
        "type": "0x00",
        "from": "0xf8f8269488f73fab3935555fcddd6035699dee25",
        "to": "0x94f91c8b7144ff3373a86290008d1c793328a19e",
        "gas": "0xb2ac",
        "value": "0x0",
        "data": "0xb6b55f2500000000000000000000000000000000000000000000d3c21bcecceda1000000",
        "nonce": "0x354"
      },
      "additionalContracts": [],
      "isFixedGasLimit": false
    }
  ],
  "receipts": [
    {
      "transactionHash": "0xcfcbf82788fe09542d963d6d0ca07744403a385ae3af8fe0edddd94d61b8836a",
      "transactionIndex": "0x6f",
      "blockHash": "0x17932afe16975036446a0e0e506e0e3f0cfc2408d80f0c1d159f6fed59bd6acd",
      "blockNumber": "0x50e4cb",
      "from": "0xF8f8269488f73fab3935555FCDdD6035699deE25",
      "to": "0x94f91c8B7144FF3373A86290008D1C793328a19e",
      "cumulativeGasUsed": "0xbc59cc",
      "gasUsed": "0x815c",
      "contractAddress": null,
      "logs": [
        {
          "address": "0x94f91c8B7144FF3373A86290008D1C793328a19e",
          "topics": [
            "0x2cb77763bc1e8490c1a904905c4d74b4269919aca114464f4bb4d911e60de364",
            "0x000000000000000000000000f8f8269488f73fab3935555fcddd6035699dee25"
          ],
          "data": "0x0000000000000000000000000000000000000000000000000000000000000000",
          "blockHash": "0x17932afe16975036446a0e0e506e0e3f0cfc2408d80f0c1d159f6fed59bd6acd",
          "blockNumber": "0x50e4cb",
          "transactionHash": "0xcfcbf82788fe09542d963d6d0ca07744403a385ae3af8fe0edddd94d61b8836a",
          "transactionIndex": "0x6f",
          "logIndex": "0xea",
          "removed": false
        }
      ],
      "status": "0x1",
      "logsBloom": "0x00000000000000000000000000000000000000000000000000000000020000000000000000000000020000000000000000000000000000000080000000000000000000000000080000000000000000000000040000000000000000000000000010000000000000000000000000000000000000000000000000000000000000000000000000000000000000000000000000000000000000000000000000000000000000000000000000000000000000000000000000000100000000000000000000000000000000000000000000000000000000000000000000000000000000200000000000000000000000000040000000000000000000000000000000000000",
      "type": "0x0",
      "effectiveGasPrice": "0xd60ba9e6c"
    }
  ],
  "libraries": [],
  "pending": [],
  "returns": {},
  "timestamp": 1708096850,
  "chain": 11155111,
  "multi": false,
  "commit": "1c81fef"
}