{
  "transactions": [
    {
      "hash": "0x2f01bb0631f073282be1a0660ecb16121591d4dba8aeb27d1ea29127afbf66a3",
      "transactionType": "CALL",
      "contractName": null,
      "contractAddress": "0x8823a76de8387f84fa0cf4da2d180d52b36c9f62",
      "function": "setLockDropAddress(address)",
      "arguments": [
        "0x01518cf209C67e07e0c57fefC079491E2119F6dB"
      ],
      "transaction": {
        "from": "0xf8f8269488f73fab3935555fcddd6035699dee25",
        "to": "0x8823a76de8387f84fa0cf4da2d180d52b36c9f62",
        "gas": "0xa5b9",
        "value": "0x0",
        "input": "0xb6e7377d00000000000000000000000001518cf209c67e07e0c57fefc079491e2119f6db",
        "nonce": "0x61d",
        "chainId": "0xaa36a7"
      },
      "additionalContracts": [],
      "isFixedGasLimit": false
    }
  ],
  "receipts": [
    {
      "status": "0x1",
      "cumulativeGasUsed": "0xb9be9e",
      "logs": [],
      "logsBloom": "0x00000000000000000000000000000000000000000000000000000000000000000000000000000000000000000000000000000000000000000000000000000000000000000000000000000000000000000000000000000000000000000000000000000000000000000000000000000000000000000000000000000000000000000000000000000000000000000000000000000000000000000000000000000000000000000000000000000000000000000000000000000000000000000000000000000000000000000000000000000000000000000000000000000000000000000000000000000000000000000000000000000000000000000000000000000000",
      "type": "0x2",
      "transactionHash": "0x2f01bb0631f073282be1a0660ecb16121591d4dba8aeb27d1ea29127afbf66a3",
      "transactionIndex": "0x48",
      "blockHash": "0xb989523e22ec5b7b70282ca28507def8cb88b2ea4d5f4ceb12607916788fba15",
      "blockNumber": "0x668d53",
      "gasUsed": "0x7151",
      "effectiveGasPrice": "0x11e2afeb87",
      "from": "0xf8f8269488f73fab3935555fcddd6035699dee25",
      "to": "0x8823a76de8387f84fa0cf4da2d180d52b36c9f62",
      "contractAddress": null
    }
  ],
  "libraries": [],
  "pending": [],
  "returns": {},
  "timestamp": 1726744170,
  "chain": 11155111,
  "commit": "8ae1c48"
}