{
  "transactions": [
    {
      "hash": "0xb1b2b5371152c4a77139ebf33cbe10ec2dcda569685781f0c941a322e5e26d73",
      "transactionType": "CALL",
      "contractName": "LockDrop",
      "contractAddress": "0x94f91c8B7144FF3373A86290008D1C793328a19e",
      "function": "deposit(uint256)",
      "arguments": [
        "10000000000000000"
      ],
      "transaction": {
        "type": "0x00",
        "from": "0xf8f8269488f73fab3935555fcddd6035699dee25",
        "to": "0x94f91c8b7144ff3373a86290008d1c793328a19e",
        "gas": "0xa370",
        "value": "0x0",
        "data": "0xb6b55f25000000000000000000000000000000000000000000000000002386f26fc10000",
        "nonce": "0x358"
      },
      "additionalContracts": [],
      "isFixedGasLimit": false
    }
  ],
  "receipts": [
    {
      "transactionHash": "0xb1b2b5371152c4a77139ebf33cbe10ec2dcda569685781f0c941a322e5e26d73",
      "transactionIndex": "0x5b",
      "blockHash": "0x89113f9a1981527be0ae67e68fcc4c0f855549c7ea7b3b27e87f26e6cd5d3702",
      "blockNumber": "0x50e574",
      "from": "0xF8f8269488f73fab3935555FCDdD6035699deE25",
      "to": "0x94f91c8B7144FF3373A86290008D1C793328a19e",
      "cumulativeGasUsed": "0xae01f5",
      "gasUsed": "0x7654",
      "contractAddress": null,
      "logs": [
        {
          "address": "0x94f91c8B7144FF3373A86290008D1C793328a19e",
          "topics": [
            "0x2cb77763bc1e8490c1a904905c4d74b4269919aca114464f4bb4d911e60de364",
            "0x000000000000000000000000f8f8269488f73fab3935555fcddd6035699dee25"
          ],
          "data": "0x0000000000000000000000000000000000000000000000000000000000000000",
          "blockHash": "0x89113f9a1981527be0ae67e68fcc4c0f855549c7ea7b3b27e87f26e6cd5d3702",
          "blockNumber": "0x50e574",
          "transactionHash": "0xb1b2b5371152c4a77139ebf33cbe10ec2dcda569685781f0c941a322e5e26d73",
          "transactionIndex": "0x5b",
          "logIndex": "0xe5",
          "removed": false
        }
      ],
      "status": "0x1",
      "logsBloom": "0x00000000000000000000000000000000000000000000000000000000020000000000000000000000020000000000000000000000000000000080000000000000000000000000080000000000000000000000040000000000000000000000000010000000000000000000000000000000000000000000000000000000000000000000000000000000000000000000000000000000000000000000000000000000000000000000000000000000000000000000000000000100000000000000000000000000000000000000000000000000000000000000000000000000000000200000000000000000000000000040000000000000000000000000000000000000",
      "type": "0x0",
      "effectiveGasPrice": "0xbe58f0379"
    }
  ],
  "libraries": [],
  "pending": [],
  "returns": {},
  "timestamp": 1708098926,
  "chain": 11155111,
  "multi": false,
  "commit": "1c81fef"
}