{
  "transactions": [
    {
      "hash": "0xa24ac09ea938c0799fa117dc32c467e45843655bd1950735c8ddcd788b3f6551",
      "transactionType": "CALL",
      "contractName": null,
      "contractAddress": "0xe8c02a1b4c93c0af0eb6eb1767da3de80af7b302",
      "function": "setLockDropAddress(address)",
      "arguments": [
        "0x31A10D4c514c769Eb21b02400c5DF3b914cc54A1"
      ],
      "transaction": {
        "from": "0xf8f8269488f73fab3935555fcddd6035699dee25",
        "to": "0xe8c02a1b4c93c0af0eb6eb1767da3de80af7b302",
        "gas": "0x1078a",
        "value": "0x0",
        "input": "0xb6e7377d00000000000000000000000031a10d4c514c769eb21b02400c5df3b914cc54a1",
        "nonce": "0x686",
        "chainId": "0xaa36a7"
      },
      "additionalContracts": [],
      "isFixedGasLimit": false
    }
  ],
  "receipts": [
    {
      "status": "0x1",
      "cumulativeGasUsed": "0x52a957",
      "logs": [],
      "logsBloom": "0x00000000000000000000000000000000000000000000000000000000000000000000000000000000000000000000000000000000000000000000000000000000000000000000000000000000000000000000000000000000000000000000000000000000000000000000000000000000000000000000000000000000000000000000000000000000000000000000000000000000000000000000000000000000000000000000000000000000000000000000000000000000000000000000000000000000000000000000000000000000000000000000000000000000000000000000000000000000000000000000000000000000000000000000000000000000",
      "type": "0x0",
      "transactionHash": "0xa24ac09ea938c0799fa117dc32c467e45843655bd1950735c8ddcd788b3f6551",
      "transactionIndex": "0x42",
      "blockHash": "0xca4c078637ff009403cac4cfa5985081f18adef44a74599f31d726bf0abd6525",
      "blockNumber": "0x6bc7c6",
      "gasUsed": "0xb433",
      "effectiveGasPrice": "0x8a36c54c",
      "from": "0xf8f8269488f73fab3935555fcddd6035699dee25",
      "to": "0xe8c02a1b4c93c0af0eb6eb1767da3de80af7b302",
      "contractAddress": null
    }
  ],
  "libraries": [],
  "pending": [],
  "returns": {},
  "timestamp": 1731438088,
  "chain": 11155111,
  "commit": "bcb028c"
}