{
  "transactions": [
    {
      "hash": "0x7d506283ebe4146bdca63941cac55b994ed28cd7a76da5f5e0941af0cbb22604",
      "transactionType": "CALL",
      "contractName": null,
      "contractAddress": "0xf1a792ca5bd4d60585c8e46b41f22d1b03dcbe30",
      "function": "setLockDropAddress(address)",
      "arguments": [
        "0x3f48Ba9918A90F5AD4c5658FaB5AE7020Ece279f"
      ],
      "transaction": {
        "from": "0xf8f8269488f73fab3935555fcddd6035699dee25",
        "to": "0xf1a792ca5bd4d60585c8e46b41f22d1b03dcbe30",
        "gas": "0xa5b9",
        "value": "0x0",
        "input": "0xb6e7377d0000000000000000000000003f48ba9918a90f5ad4c5658fab5ae7020ece279f",
        "nonce": "0x634",
        "chainId": "0xaa36a7"
      },
      "additionalContracts": [],
      "isFixedGasLimit": false
    }
  ],
  "receipts": [
    {
      "status": "0x1",
      "cumulativeGasUsed": "0xf0b296",
      "logs": [],
      "logsBloom": "0x00000000000000000000000000000000000000000000000000000000000000000000000000000000000000000000000000000000000000000000000000000000000000000000000000000000000000000000000000000000000000000000000000000000000000000000000000000000000000000000000000000000000000000000000000000000000000000000000000000000000000000000000000000000000000000000000000000000000000000000000000000000000000000000000000000000000000000000000000000000000000000000000000000000000000000000000000000000000000000000000000000000000000000000000000000000",
      "type": "0x0",
      "transactionHash": "0x7d506283ebe4146bdca63941cac55b994ed28cd7a76da5f5e0941af0cbb22604",
      "transactionIndex": "0x78",
      "blockHash": "0x7a95830f59ea62926249fadd7c5b2739ec8040f145846c01330b3fe1c204d005",
      "blockNumber": "0x6701cf",
      "gasUsed": "0x7151",
      "effectiveGasPrice": "0x57ca5604a",
      "from": "0xf8f8269488f73fab3935555fcddd6035699dee25",
      "to": "0xf1a792ca5bd4d60585c8e46b41f22d1b03dcbe30",
      "contractAddress": null
    }
  ],
  "libraries": [],
  "pending": [],
  "returns": {},
  "timestamp": 1727175364,
  "chain": 11155111,
  "commit": "bf3ceb3"
}