{
  "transactions": [
    {
      "hash": "0xdde811b3f9b8880f6c397642516553227ec373aafda4b69774c203c93d1d4abe",
      "transactionType": "CALL",
      "contractName": "RandomNumberGenerator",
      "contractAddress": "0xC793D13E7878feF765305375Cf6f38e0130C411c",
      "function": "setVrfConsumer(address)",
      "arguments": [
        "0xED944B2A0298c4872615680b336f5b340FE2eCBD"
      ],
      "transaction": {
        "type": "0x02",
        "from": "0xf8f8269488f73fab3935555fcddd6035699dee25",
        "to": "0xc793d13e7878fef765305375cf6f38e0130c411c",
        "gas": "0x8d37",
        "value": "0x0",
        "data": "0xa829326d000000000000000000000000ed944b2a0298c4872615680b336f5b340fe2ecbd",
        "nonce": "0x422",
        "accessList": []
      },
      "additionalContracts": [],
      "isFixedGasLimit": false
    },
    {
      "hash": "0xcca2afe0253f8b2279f1088684eabf7c06be3f8b2cdc3bc21ab555020aefb326",
      "transactionType": "CALL",
      "contractName": "TokenManager",
      "contractAddress": "0x67a3adfe456c8B4bf20c667768ACC9F18b159972",
      "function": "setRewardTokenAddress(address)",
      "arguments": [
        "0x802560a926b63C75111a94bB0f818790113a7f37"
      ],
      "transaction": {
        "type": "0x02",
        "from": "0xf8f8269488f73fab3935555fcddd6035699dee25",
        "to": "0x67a3adfe456c8b4bf20c667768acc9f18b159972",
        "gas": "0x10729",
        "value": "0x0",
        "data": "0x9a6acf20000000000000000000000000802560a926b63c75111a94bb0f818790113a7f37",
        "nonce": "0x423",
        "accessList": []
      },
      "additionalContracts": [],
      "isFixedGasLimit": false
    }
  ],
  "receipts": [
    {
      "transactionHash": "0xdde811b3f9b8880f6c397642516553227ec373aafda4b69774c203c93d1d4abe",
      "transactionIndex": "0x6",
      "blockHash": "0x4298b6f45959fff53401b465b7c8280c1cc2b545b9726e84f572c578a3767176",
      "blockNumber": "0x5802ae",
      "from": "0xF8f8269488f73fab3935555FCDdD6035699deE25",
      "to": "0xC793D13E7878feF765305375Cf6f38e0130C411c",
      "cumulativeGasUsed": "0x31dbc",
      "gasUsed": "0x663e",
      "contractAddress": null,
      "logs": [],
      "status": "0x1",
      "logsBloom": "0x00000000000000000000000000000000000000000000000000000000000000000000000000000000000000000000000000000000000000000000000000000000000000000000000000000000000000000000000000000000000000000000000000000000000000000000000000000000000000000000000000000000000000000000000000000000000000000000000000000000000000000000000000000000000000000000000000000000000000000000000000000000000000000000000000000000000000000000000000000000000000000000000000000000000000000000000000000000000000000000000000000000000000000000000000000000",
      "type": "0x2",
      "effectiveGasPrice": "0xff056f98"
    },
    {
      "transactionHash": "0xcca2afe0253f8b2279f1088684eabf7c06be3f8b2cdc3bc21ab555020aefb326",
      "transactionIndex": "0x7",
      "blockHash": "0x4298b6f45959fff53401b465b7c8280c1cc2b545b9726e84f572c578a3767176",
      "blockNumber": "0x5802ae",
      "from": "0xF8f8269488f73fab3935555FCDdD6035699deE25",
      "to": "0x67a3adfe456c8B4bf20c667768ACC9F18b159972",
      "cumulativeGasUsed": "0x3d1ad",
      "gasUsed": "0xb3f1",
      "contractAddress": null,
      "logs": [],
      "status": "0x1",
      "logsBloom": "0x00000000000000000000000000000000000000000000000000000000000000000000000000000000000000000000000000000000000000000000000000000000000000000000000000000000000000000000000000000000000000000000000000000000000000000000000000000000000000000000000000000000000000000000000000000000000000000000000000000000000000000000000000000000000000000000000000000000000000000000000000000000000000000000000000000000000000000000000000000000000000000000000000000000000000000000000000000000000000000000000000000000000000000000000000000000",
      "type": "0x2",
      "effectiveGasPrice": "0xff056f98"
    }
  ],
  "libraries": [],
  "pending": [],
  "returns": {},
  "timestamp": 1713968992,
  "chain": 11155111,
  "commit": "4acad68"
}