{
  "transactions": [
    {
      "hash": "0x56346fecf931cec675110404bf753e294664cb9c3edd6fdf791be7a48ff74f74",
      "transactionType": "CALL",
      "contractName": null,
      "contractAddress": "0x8823a76de8387f84fa0cf4da2d180d52b36c9f62",
      "function": "setLockDropAddress(address)",
      "arguments": [
        "0x12A5FDBcd112eC9F7b147e03feBDA498832E3e54"
      ],
      "transaction": {
        "from": "0xf8f8269488f73fab3935555fcddd6035699dee25",
        "to": "0x8823a76de8387f84fa0cf4da2d180d52b36c9f62",
        "gas": "0xa5b9",
        "value": "0x0",
        "input": "0xb6e7377d00000000000000000000000012a5fdbcd112ec9f7b147e03febda498832e3e54",
        "nonce": "0x61a",
        "chainId": "0xaa36a7"
      },
      "additionalContracts": [],
      "isFixedGasLimit": false
    }
  ],
  "receipts": [
    {
      "status": "0x1",
      "cumulativeGasUsed": "0x7b6586",
      "logs": [],
      "logsBloom": "0x00000000000000000000000000000000000000000000000000000000000000000000000000000000000000000000000000000000000000000000000000000000000000000000000000000000000000000000000000000000000000000000000000000000000000000000000000000000000000000000000000000000000000000000000000000000000000000000000000000000000000000000000000000000000000000000000000000000000000000000000000000000000000000000000000000000000000000000000000000000000000000000000000000000000000000000000000000000000000000000000000000000000000000000000000000000",
      "type": "0x2",
      "transactionHash": "0x56346fecf931cec675110404bf753e294664cb9c3edd6fdf791be7a48ff74f74",
      "transactionIndex": "0x39",
      "blockHash": "0xc1ec83b90fd218367e7071c84e568d3536b95f029758e52865005ca4a45f3107",
      "blockNumber": "0x668c1e",
      "gasUsed": "0x7151",
      "effectiveGasPrice": "0xccdc7fb58",
      "from": "0xf8f8269488f73fab3935555fcddd6035699dee25",
      "to": "0x8823a76de8387f84fa0cf4da2d180d52b36c9f62",
      "contractAddress": null
    }
  ],
  "libraries": [],
  "pending": [],
  "returns": {},
  "timestamp": 1726739617,
  "chain": 11155111,
  "commit": "8ae1c48"
}