{
  "transactions": [
    {
      "hash": "0x324a445efe144972b68e140b16d4e608c5648e6de5c9f3e3f47c80bd5a1b1581",
      "transactionType": "CALL",
      "contractName": "TokenManager",
      "contractAddress": "0x0f741C46DF0b919C9251e0A5d027de534d273369",
      "function": "setRewardTokenAddress(address)",
      "arguments": [
        "0x27346f96D479C15889eCB07CeCbFeaD536E9AF52"
      ],
      "transaction": {
        "type": "0x02",
        "from": "0xf8f8269488f73fab3935555fcddd6035699dee25",
        "to": "0x0f741c46df0b919c9251e0a5d027de534d273369",
        "gas": "0xf8a9",
        "value": "0x0",
        "data": "0x9a6acf2000000000000000000000000027346f96d479c15889ecb07cecbfead536e9af52",
        "nonce": "0x413",
        "accessList": []
      },
      "additionalContracts": [],
      "isFixedGasLimit": false
    }
  ],
  "receipts": [
    {
      "transactionHash": "0x324a445efe144972b68e140b16d4e608c5648e6de5c9f3e3f47c80bd5a1b1581",
      "transactionIndex": "0xa",
      "blockHash": "0xaaf4cfcfece3fa55bef8fce57f8b1a36db6e0b5de25698d6b87fd4d88fc9d8ff",
      "blockNumber": "0x57cb61",
      "from": "0xF8f8269488f73fab3935555FCDdD6035699deE25",
      "to": "0x0f741C46DF0b919C9251e0A5d027de534d273369",
      "cumulativeGasUsed": "0xe8028",
      "gasUsed": "0xb407",
      "contractAddress": null,
      "logs": [],
      "status": "0x1",
      "logsBloom": "0x00000000000000000000000000000000000000000000000000000000000000000000000000000000000000000000000000000000000000000000000000000000000000000000000000000000000000000000000000000000000000000000000000000000000000000000000000000000000000000000000000000000000000000000000000000000000000000000000000000000000000000000000000000000000000000000000000000000000000000000000000000000000000000000000000000000000000000000000000000000000000000000000000000000000000000000000000000000000000000000000000000000000000000000000000000000",
      "type": "0x2",
      "effectiveGasPrice": "0xb2fa1e2b"
    }
  ],
  "libraries": [],
  "pending": [],
  "returns": {},
  "timestamp": 1713797054,
  "chain": 11155111,
  "commit": "f8895e5"
}