{
  "transactions": [
    {
      "hash": "0x0834f9dd01b9c46158fa35e046e69683f7c9e2d8379a3f1d43d37e4209cca2e1",
      "transactionType": "CALL",
      "contractName": null,
      "contractAddress": "0x12a5fdbcd112ec9f7b147e03febda498832e3e54",
      "function": "deposit(uint256)",
      "arguments": [
        "10000000000000000000"
      ],
      "transaction": {
        "from": "0xf8f8269488f73fab3935555fcddd6035699dee25",
        "to": "0x12a5fdbcd112ec9f7b147e03febda498832e3e54",
        "gas": "0x1af1f",
        "value": "0x0",
        "input": "0xb6b55f250000000000000000000000000000000000000000000000008ac7230489e80000",
        "nonce": "0x61b",
        "chainId": "0xaa36a7"
      },
      "additionalContracts": [],
      "isFixedGasLimit": false
    }
  ],
  "receipts": [
    {
      "status": "0x1",
      "cumulativeGasUsed": "0x65c9f2",
      "logs": [
        {
          "address": "0x12a5fdbcd112ec9f7b147e03febda498832e3e54",
          "topics": [
            "0xa91e0c3165215fe453f5bf3de083d5fd6c4e62c491849155a042a647588c53a0",
            "0x000000000000000000000000f8f8269488f73fab3935555fcddd6035699dee25"
          ],
          "data": "0x0000000000000000000000000000000000000000000000008ac7230489e800000000000000000000000000000000000000000000000000000000000000668c25",
          "blockHash": "0x1e0ea64a2d752d3216b718d0def64f18bcedcc7864291020fc3d12eb0cb19359",
          "blockNumber": "0x668c25",
          "transactionHash": "0x0834f9dd01b9c46158fa35e046e69683f7c9e2d8379a3f1d43d37e4209cca2e1",
          "transactionIndex": "0x39",
          "logIndex": "0x8f",
          "removed": false
        }
      ],
      "logsBloom": "0x00000000000000000000000000000000000000000000000000000000000000000000200000000000000000000000000000000000000000000000000000000000000800000000080000000000000000000000040000000000000000000000000010000000000000000800000000000000020000000000000000000000000000000000000000000000000000000100000000000000000000000000000000000000000000000000000000000000000000000000000000000000200000000000000000000000000000000000000000000000000000000000000000000000000000000000000000000000000000000000000000000000000000000000000000000000",
      "type": "0x2",
      "transactionHash": "0x0834f9dd01b9c46158fa35e046e69683f7c9e2d8379a3f1d43d37e4209cca2e1",
      "transactionIndex": "0x39",
      "blockHash": "0x1e0ea64a2d752d3216b718d0def64f18bcedcc7864291020fc3d12eb0cb19359",
      "blockNumber": "0x668c25",
      "gasUsed": "0x126c9",
      "effectiveGasPrice": "0xbf9baf6f3",
      "from": "0xf8f8269488f73fab3935555fcddd6035699dee25",
      "to": "0x12a5fdbcd112ec9f7b147e03febda498832e3e54",
      "contractAddress": null
    }
  ],
  "libraries": [],
  "pending": [],
  "returns": {},
  "timestamp": 1726739737,
  "chain": 11155111,
  "commit": "8ae1c48"
}