{
  "transactions": [
    {
      "hash": "0x43c3eab85f5855d6357b419e4afe44faa320afb3816b258078cdbfce673da645",
      "transactionType": "CALL",
      "contractName": "LockDrop",
      "contractAddress": "0x94f91c8B7144FF3373A86290008D1C793328a19e",
      "function": "deposit(uint256)",
      "arguments": [
        "1000000000000000000"
      ],
      "transaction": {
        "type": "0x00",
        "from": "0xf8f8269488f73fab3935555fcddd6035699dee25",
        "to": "0x94f91c8b7144ff3373a86290008d1c793328a19e",
        "gas": "0xb29c",
        "value": "0x0",
        "data": "0xb6b55f250000000000000000000000000000000000000000000000000de0b6b3a7640000",
        "nonce": "0x359"
      },
      "additionalContracts": [],
      "isFixedGasLimit": false
    }
  ],
  "receipts": [
    {
      "transactionHash": "0x43c3eab85f5855d6357b419e4afe44faa320afb3816b258078cdbfce673da645",
      "transactionIndex": "0x66",
      "blockHash": "0x3ece8867cd8f466a844dd7e2ce3f0a1bc3b0069b48a86da79a70ed4d2a5042df",
      "blockNumber": "0x50e5ab",
      "from": "0xF8f8269488f73fab3935555FCDdD6035699deE25",
      "to": "0x94f91c8B7144FF3373A86290008D1C793328a19e",
      "cumulativeGasUsed": "0xbded38",
      "gasUsed": "0x8150",
      "contractAddress": null,
      "logs": [
        {
          "address": "0x94f91c8B7144FF3373A86290008D1C793328a19e",
          "topics": [
            "0x2cb77763bc1e8490c1a904905c4d74b4269919aca114464f4bb4d911e60de364",
            "0x000000000000000000000000f8f8269488f73fab3935555fcddd6035699dee25"
          ],
          "data": "0x0000000000000000000000000000000000000000000000000000000000000000",
          "blockHash": "0x3ece8867cd8f466a844dd7e2ce3f0a1bc3b0069b48a86da79a70ed4d2a5042df",
          "blockNumber": "0x50e5ab",
          "transactionHash": "0x43c3eab85f5855d6357b419e4afe44faa320afb3816b258078cdbfce673da645",
          "transactionIndex": "0x66",
          "logIndex": "0xd6",
          "removed": false
        }
      ],
      "status": "0x1",
      "logsBloom": "0x00000000000000000000000000000000000000000000000000000000020000000000000000000000020000000000000000000000000000000080000000000000000000000000080000000000000000000000040000000000000000000000000010000000000000000000000000000000000000000000000000000000000000000000000000000000000000000000000000000000000000000000000000000000000000000000000000000000000000000000000000000100000000000000000000000000000000000000000000000000000000000000000000000000000000200000000000000000000000000040000000000000000000000000000000000000",
      "type": "0x0",
      "effectiveGasPrice": "0xa6fa0edc3"
    }
  ],
  "libraries": [],
  "pending": [],
  "returns": {},
  "timestamp": 1708099634,
  "chain": 11155111,
  "multi": false,
  "commit": "1c81fef"
}