{
  "transactions": [
    {
      "hash": "0xd0500cb56fbaab23105221d3372d9bad5f3f98ce1ce12cab42ee7b69b6137bc7",
      "transactionType": "CALL",
      "contractName": "VRFv2Consumer",
      "contractAddress": "0xF81850c6A9CeE8eb9693dBa43D042379dd3384DB",
      "function": "setLockdropAddress(address)",
      "arguments": [
        "0x7c9D25AD8C5e948087d74654c230249E9C353Cd8"
      ],
      "transaction": {
        "type": "0x02",
        "from": "0xf8f8269488f73fab3935555fcddd6035699dee25",
        "to": "0xf81850c6a9cee8eb9693dba43d042379dd3384db",
        "gas": "0xf873",
        "value": "0x0",
        "data": "0x30b3c9df0000000000000000000000007c9d25ad8c5e948087d74654c230249e9c353cd8",
        "nonce": "0x40e",
        "accessList": []
      },
      "additionalContracts": [],
      "isFixedGasLimit": false
    }
  ],
  "receipts": [
    {
      "transactionHash": "0xd0500cb56fbaab23105221d3372d9bad5f3f98ce1ce12cab42ee7b69b6137bc7",
      "transactionIndex": "0x5",
      "blockHash": "0x7b0ec97bc95b172965969b71a2c50994b3550b46ccfce08ea3c4d3b2e9e3d933",
      "blockNumber": "0x57cae8",
      "from": "0xF8f8269488f73fab3935555FCDdD6035699deE25",
      "to": "0xF81850c6A9CeE8eb9693dBa43D042379dd3384DB",
      "cumulativeGasUsed": "0x2b45a",
      "gasUsed": "0xb3e0",
      "contractAddress": null,
      "logs": [],
      "status": "0x1",
      "logsBloom": "0x00000000000000000000000000000000000000000000000000000000000000000000000000000000000000000000000000000000000000000000000000000000000000000000000000000000000000000000000000000000000000000000000000000000000000000000000000000000000000000000000000000000000000000000000000000000000000000000000000000000000000000000000000000000000000000000000000000000000000000000000000000000000000000000000000000000000000000000000000000000000000000000000000000000000000000000000000000000000000000000000000000000000000000000000000000000",
      "type": "0x2",
      "effectiveGasPrice": "0xb2e9f5da"
    }
  ],
  "libraries": [],
  "pending": [],
  "returns": {},
  "timestamp": 1713795604,
  "chain": 11155111,
  "commit": "f8895e5"
}