{
  "transactions": [
    {
      "hash": "0x27f69bd2371f242916cc2e5cfb23fac5d8748761151b9a21fd7eeb1ff77d8388",
      "transactionType": "CALL",
      "contractName": "RandomNumberGenerator",
      "contractAddress": "0x7f7729Bfd9EdBff801640E8047edfF8E3D328eBA",
      "function": "setVrfConsumer(address)",
      "arguments": [
        "0xB53da4a1c4f1722ab896e9df2b8613eF6d850e24"
      ],
      "transaction": {
        "type": "0x02",
        "from": "0xf8f8269488f73fab3935555fcddd6035699dee25",
        "to": "0x7f7729bfd9edbff801640e8047edff8e3d328eba",
        "gas": "0x10736",
        "value": "0x0",
        "data": "0xa829326d000000000000000000000000b53da4a1c4f1722ab896e9df2b8613ef6d850e24",
        "nonce": "0x405",
        "accessList": []
      },
      "additionalContracts": [],
      "isFixedGasLimit": false
    }
  ],
  "receipts": [
    {
      "transactionHash": "0x27f69bd2371f242916cc2e5cfb23fac5d8748761151b9a21fd7eeb1ff77d8388",
      "transactionIndex": "0x7",
      "blockHash": "0x4ba081e413f422372293d1bf280e9655f11715fa29c1ed245dd20025fee4d208",
      "blockNumber": "0x57766f",
      "from": "0xF8f8269488f73fab3935555FCDdD6035699deE25",
      "to": "0x7f7729Bfd9EdBff801640E8047edfF8E3D328eBA",
      "cumulativeGasUsed": "0x94241",
      "gasUsed": "0xb3fa",
      "contractAddress": null,
      "logs": [],
      "status": "0x1",
      "logsBloom": "0x00000000000000000000000000000000000000000000000000000000000000000000000000000000000000000000000000000000000000000000000000000000000000000000000000000000000000000000000000000000000000000000000000000000000000000000000000000000000000000000000000000000000000000000000000000000000000000000000000000000000000000000000000000000000000000000000000000000000000000000000000000000000000000000000000000000000000000000000000000000000000000000000000000000000000000000000000000000000000000000000000000000000000000000000000000000",
      "type": "0x2",
      "effectiveGasPrice": "0xd73bfcb0"
    }
  ],
  "libraries": [],
  "pending": [],
  "returns": {},
  "timestamp": 1713533302,
  "chain": 11155111,
  "commit": "9fd0496"
}