{
  "transactions": [
    {
      "hash": "0x51d9843cdbf96a1eed539cf7b2cb6c44176efecbe2dfdad39949dd77cffa238c",
      "transactionType": "CALL",
      "contractName": null,
      "contractAddress": "0x3f48ba9918a90f5ad4c5658fab5ae7020ece279f",
      "function": "approve(address,uint256)",
      "arguments": [
        "0x3f48Ba9918A90F5AD4c5658FaB5AE7020Ece279f",
        "5000000000000000000"
      ],
      "transaction": {
        "from": "0xf8f8269488f73fab3935555fcddd6035699dee25",
        "to": "0x3f48ba9918a90f5ad4c5658fab5ae7020ece279f",
        "gas": "0x9330",
        "value": "0x0",
        "input": "0x095ea7b30000000000000000000000003f48ba9918a90f5ad4c5658fab5ae7020ece279f0000000000000000000000000000000000000000000000004563918244f40000",
        "nonce": "0x635",
        "chainId": "0xaa36a7"
      },
      "additionalContracts": [],
      "isFixedGasLimit": false
    }
  ],
  "receipts": [
    {
      "status": "0x1",
      "cumulativeGasUsed": "0xb5b54e",
      "logs": [],
      "logsBloom": "0x00000000000000000000000000000000000000000000000000000000000000000000000000000000000000000000000000000000000000000000000000000000000000000000000000000000000000000000000000000000000000000000000000000000000000000000000000000000000000000000000000000000000000000000000000000000000000000000000000000000000000000000000000000000000000000000000000000000000000000000000000000000000000000000000000000000000000000000000000000000000000000000000000000000000000000000000000000000000000000000000000000000000000000000000000000000",
      "type": "0x0",
      "transactionHash": "0x51d9843cdbf96a1eed539cf7b2cb6c44176efecbe2dfdad39949dd77cffa238c",
      "transactionIndex": "0x48",
      "blockHash": "0x56254fe6bd0321a556ddbf94740ce21bf3730664dbaa8a367b0bf363db810343",
      "blockNumber": "0x6701de",
      "gasUsed": "0x6a90",
      "effectiveGasPrice": "0x431df29b4",
      "from": "0xf8f8269488f73fab3935555fcddd6035699dee25",
      "to": "0x3f48ba9918a90f5ad4c5658fab5ae7020ece279f",
      "contractAddress": null
    }
  ],
  "libraries": [],
  "pending": [],
  "returns": {},
  "timestamp": 1727175557,
  "chain": 11155111,
  "commit": "bf3ceb3"
}