{
  "transactions": [
    {
      "hash": "0xd4e5122f05e96414b22206822bfbab5446a54a469c2f6a5ea734f176186999b7",
      "transactionType": "CALL",
      "contractName": null,
      "contractAddress": "0x8823a76de8387f84fa0cf4da2d180d52b36c9f62",
      "function": "topUpFtn(uint256)",
      "arguments": [
        "100000000000000000000"
      ],
      "transaction": {
        "from": "0xf8f8269488f73fab3935555fcddd6035699dee25",
        "to": "0x8823a76de8387f84fa0cf4da2d180d52b36c9f62",
        "gas": "0x1507a",
        "value": "0x0",
        "input": "0x645ed8310000000000000000000000000000000000000000000000056bc75e2d63100000",
        "nonce": "0x618",
        "chainId": "0xaa36a7"
      },
      "additionalContracts": [],
      "isFixedGasLimit": false
    }
  ],
  "receipts": [
    {
      "status": "0x1",
      "cumulativeGasUsed": "0x1a3ae4e",
      "logs": [
        {
          "address": "0x5ecfad467f0d15fdc266772546d1770ff5b300c3",
          "topics": [
            "0xddf252ad1be2c89b69c2b068fc378daa952ba7f163c4a11628f55a4df523b3ef",
            "0x0000000000000000000000008823a76de8387f84fa0cf4da2d180d52b36c9f62",
            "0x000000000000000000000000f8f8269488f73fab3935555fcddd6035699dee25"
          ],
          "data": "0x0000000000000000000000000000000000000000000000056bc75e2d63100000",
          "blockHash": "0x7c2e5b4fb6756667026a0798a5f9858775c1250c380625f2d9a10b4482b73307",
          "blockNumber": "0x668bfc",
          "transactionHash": "0xd4e5122f05e96414b22206822bfbab5446a54a469c2f6a5ea734f176186999b7",
          "transactionIndex": "0xa9",
          "logIndex": "0x154",
          "removed": false
        }
      ],
      "logsBloom": "0x00000000000000000000000000000000000000000000000000000000002000000000000000000000000000000000000000000000000000000000000000000000000000000000080000400008000000000000040000000000000000000000000010000000000000000000000000000000000000000000000000000010000000200000000000000000000000000000000000000000000000000000004000000000000000000000000020000000000000000000000000000000000000000000000000000002000000000000000000000000000000000008000000000000000000000000000000000000000000000000000000000000000000000000000000000000",
      "type": "0x2",
      "transactionHash": "0xd4e5122f05e96414b22206822bfbab5446a54a469c2f6a5ea734f176186999b7",
      "transactionIndex": "0xa9",
      "blockHash": "0x7c2e5b4fb6756667026a0798a5f9858775c1250c380625f2d9a10b4482b73307",
      "blockNumber": "0x668bfc",
      "gasUsed": "0xe612",
      "effectiveGasPrice": "0x68d25c2d5",
      "from": "0xf8f8269488f73fab3935555fcddd6035699dee25",
      "to": "0x8823a76de8387f84fa0cf4da2d180d52b36c9f62",
      "contractAddress": null
    }
  ],
  "libraries": [],
  "pending": [],
  "returns": {},
  "timestamp": 1726739114,
  "chain": 11155111,
  "commit": "8ae1c48"
}