{
  "transactions": [
    {
      "hash": "0xebbe3d44a550f7ac48df873943e6624107bcb464ebf728133ad7b420e66216f2",
      "transactionType": "CALL",
      "contractName": "TokenManager",
      "contractAddress": "0x17Cc05C02b35CF3d79d2fCedf1Ad15d391442570",
      "function": "setRewardTokenAddress(address)",
      "arguments": [
        "0x52bbcDBEC990b39d2fb5B7d75B956c439e0fDe4F"
      ],
      "transaction": {
        "type": "0x02",
        "from": "0xf8f8269488f73fab3935555fcddd6035699dee25",
        "to": "0x17cc05c02b35cf3d79d2fcedf1ad15d391442570",
        "gas": "0x3525c",
        "value": "0x0",
        "data": "0x9a6acf2000000000000000000000000052bbcdbec990b39d2fb5b7d75b956c439e0fde4f",
        "nonce": "0xea",
        "accessList": []
      },
      "additionalContracts": [],
      "isFixedGasLimit": false
    }
  ],
  "receipts": [
    {
      "transactionHash": "0xebbe3d44a550f7ac48df873943e6624107bcb464ebf728133ad7b420e66216f2",
      "transactionIndex": "0x5",
      "blockHash": "0xec3ed95c718608521385fe1febb5f7a0d2f34ef246d3554c56157355f4c9d6dc",
      "blockNumber": "0x11b75f6",
      "from": "0xF8f8269488f73fab3935555FCDdD6035699deE25",
      "to": "0x17Cc05C02b35CF3d79d2fCedf1Ad15d391442570",
      "cumulativeGasUsed": "0x16e1e7",
      "gasUsed": "0x22548",
      "contractAddress": null,
      "logs": [],
      "status": "0x1",
      "logsBloom": "0x00000000000000000000000000000000000000000000000000000000000000000000000000000000000000000000000000000000000000000000000000000000000000000000000000000000000000000000000000000000000000000000000000000000000000000000000000000000000000000000000000000000000000000000000000000000000000000000000000000000000000000000000000000000000000000000000000000000000000000000000000000000000000000000000000000000000000000000000000000000000000000000000000000000000000000000000000000000000000000000000000000000000000000000000000000000",
      "type": "0x2",
      "effectiveGasPrice": "0x5f5e100"
    }
  ],
  "libraries": [],
  "pending": [],
  "returns": {},
  "timestamp": 1709202827,
  "chain": 421614,
  "multi": false,
  "commit": "5487957"
}