{
  "transactions": [
    {
      "hash": "0xc2d5c5f6948f1dc8e01df3a1e64a3dcf569468687ef88d102c7e19f52e6b267d",
      "transactionType": "CALL",
      "contractName": null,
      "contractAddress": "0xa23d886ce54d53e02086bfe0f99d9f64b11a892f",
      "function": "transferFTN(address,uint256)",
      "arguments": [
        "0xF8f8269488f73fab3935555FCDdD6035699deE25",
        "100000000000000000000"
      ],
      "transaction": {
        "from": "0xf8f8269488f73fab3935555fcddd6035699dee25",
        "to": "0xa23d886ce54d53e02086bfe0f99d9f64b11a892f",
        "gas": "0x1dfed",
        "value": "0x0",
        "input": "0x2bf72e45000000000000000000000000f8f8269488f73fab3935555fcddd6035699dee250000000000000000000000000000000000000000000000056bc75e2d63100000",
        "nonce": "0x10b",
        "chainId": "0x66eee"
      },
      "additionalContracts": [],
      "isFixedGasLimit": false
    }
  ],
  "receipts": [
    {
      "status": "0x1",
      "cumulativeGasUsed": "0xdb584",
      "logs": [
        {
          "address": "0x474d358be8e4a26d9c47ffce0c0b046122593895",
          "topics": [
            "0xddf252ad1be2c89b69c2b068fc378daa952ba7f163c4a11628f55a4df523b3ef",
            "0x000000000000000000000000a23d886ce54d53e02086bfe0f99d9f64b11a892f",
            "0x000000000000000000000000f8f8269488f73fab3935555fcddd6035699dee25"
          ],
          "data": "0x0000000000000000000000000000000000000000000000056bc75e2d63100000",
          "blockHash": "0x1bb189b5f12145d9514a35a43dfc8992cfa1cd0507a37e5a67e949f28db6b545",
          "blockNumber": "0x64e644b",
          "transactionHash": "0xc2d5c5f6948f1dc8e01df3a1e64a3dcf569468687ef88d102c7e19f52e6b267d",
          "transactionIndex": "0x7",
          "logIndex": "0xd",
          "removed": false
        }
      ],
      "logsBloom": "0x00000000000000000000000000000000010000000000004000000000000000000000000000000000000000000000000000000000000000000000000000000000000000000000082000000008000000800000040000000000000000000000000010000000000000000000000000000000000000000000000000000010000000000000000000000000000000000000000000000000000000000000000000000000000010000000000000000000000000000000000000000000000000000000000000000002000000000000000000000000000000000000000000008000000000000000000000000000000000000000000000000000000000000000000000000000",
      "type": "0x0",
      "transactionHash": "0xc2d5c5f6948f1dc8e01df3a1e64a3dcf569468687ef88d102c7e19f52e6b267d",
      "transactionIndex": "0x7",
      "blockHash": "0x1bb189b5f12145d9514a35a43dfc8992cfa1cd0507a37e5a67e949f28db6b545",
      "blockNumber": "0x64e644b",
      "gasUsed": "0x14e50",
      "effectiveGasPrice": "0x5f5e100",
      "from": "0xf8f8269488f73fab3935555fcddd6035699dee25",
      "to": "0xa23d886ce54d53e02086bfe0f99d9f64b11a892f",
      "contractAddress": null,
      "gasUsedForL1": "0x6714",
      "l1BlockNumber": "0x6ebbaf"
    }
  ],
  "libraries": [],
  "pending": [],
  "returns": {},
  "timestamp": 1733919503,
  "chain": 421614,
  "commit": "84aac85"
}