{
  "transactions": [
    {
      "hash": "0x71c4d7a4e13732cf2119aa54308cd8e32c44f002c2e602aff3497cca6da6fee7",
      "transactionType": "CALL",
      "contractName": "TokenManager",
      "contractAddress": "0x4cf994aC333187172EE2db5af17cA084084c8318",
      "function": "setRewardTokenAddress(address)",
      "arguments": [
        "0x3f528386e9E4a07C651C6e9F1a68EFd4e3A88D6d"
      ],
      "transaction": {
        "type": "0x02",
        "from": "0xf8f8269488f73fab3935555fcddd6035699dee25",
        "to": "0x4cf994ac333187172ee2db5af17ca084084c8318",
        "gas": "0xea09",
        "value": "0x0",
        "data": "0x9a6acf200000000000000000000000003f528386e9e4a07c651c6e9f1a68efd4e3a88d6d",
        "nonce": "0xd7",
        "accessList": []
      },
      "additionalContracts": [],
      "isFixedGasLimit": false
    }
  ],
  "receipts": [
    {
      "transactionHash": "0x71c4d7a4e13732cf2119aa54308cd8e32c44f002c2e602aff3497cca6da6fee7",
      "transactionIndex": "0x1",
      "blockHash": "0xfe5fdebc55f74114c372a55495fc626859793a24c255cd3b82d41083921a0d36",
      "blockNumber": "0x116817e",
      "from": "0xF8f8269488f73fab3935555FCDdD6035699deE25",
      "to": "0x4cf994aC333187172EE2db5af17cA084084c8318",
      "cumulativeGasUsed": "0xb407",
      "gasUsed": "0xb407",
      "contractAddress": null,
      "logs": [],
      "status": "0x1",
      "logsBloom": "0x00000000000000000000000000000000000000000000000000000000000000000000000000000000000000000000000000000000000000000000000000000000000000000000000000000000000000000000000000000000000000000000000000000000000000000000000000000000000000000000000000000000000000000000000000000000000000000000000000000000000000000000000000000000000000000000000000000000000000000000000000000000000000000000000000000000000000000000000000000000000000000000000000000000000000000000000000000000000000000000000000000000000000000000000000000000",
      "type": "0x2",
      "effectiveGasPrice": "0x5f5e100"
    }
  ],
  "libraries": [],
  "pending": [],
  "returns": {},
  "timestamp": 1709120164,
  "chain": 421614,
  "multi": false,
  "commit": "5487957"
}