{
  "transactions": [
    {
      "hash": "0x1559648aa2396a9cbc9cdee57d0ee8b95c0e6f4f20b9756035442e63a840f6c7",
      "transactionType": "CALL",
      "contractName": "TokenManager",
      "contractAddress": "0xC8fbF0F690AE0394cA03c61716bA69E8cc937Ff7",
      "function": "setRewardTokenAddress(address)",
      "arguments": [
        "0xc83Bfe039AE036A9434919560e8aFc5B9aD1B88E"
      ],
      "transaction": {
        "type": "0x02",
        "from": "0xf8f8269488f73fab3935555fcddd6035699dee25",
        "to": "0xc8fbf0f690ae0394ca03c61716ba69e8cc937ff7",
        "gas": "0xea09",
        "value": "0x0",
        "data": "0x9a6acf20000000000000000000000000c83bfe039ae036a9434919560e8afc5b9ad1b88e",
        "nonce": "0xe3",
        "accessList": []
      },
      "additionalContracts": [],
      "isFixedGasLimit": false
    }
  ],
  "receipts": [
    {
      "transactionHash": "0x1559648aa2396a9cbc9cdee57d0ee8b95c0e6f4f20b9756035442e63a840f6c7",
      "transactionIndex": "0x2",
      "blockHash": "0xefabf15c61e25ffb989fabbff14a575e321940d8abb92cea0e0287afdab93176",
      "blockNumber": "0x11b0bd1",
      "from": "0xF8f8269488f73fab3935555FCDdD6035699deE25",
      "to": "0xC8fbF0F690AE0394cA03c61716bA69E8cc937Ff7",
      "cumulativeGasUsed": "0x1074f",
      "gasUsed": "0xb407",
      "contractAddress": null,
      "logs": [],
      "status": "0x1",
      "logsBloom": "0x00000000000000000000000000000000000000000000000000000000000000000000000000000000000000000000000000000000000000000000000000000000000000000000000000000000000000000000000000000000000000000000000000000000000000000000000000000000000000000000000000000000000000000000000000000000000000000000000000000000000000000000000000000000000000000000000000000000000000000000000000000000000000000000000000000000000000000000000000000000000000000000000000000000000000000000000000000000000000000000000000000000000000000000000000000000",
      "type": "0x2",
      "effectiveGasPrice": "0x5f5e100"
    }
  ],
  "libraries": [],
  "pending": [],
  "returns": {},
  "timestamp": 1709195972,
  "chain": 421614,
  "multi": false,
  "commit": "5487957"
}