{
  "transactions": [
    {
      "hash": "0xc8ab0194cb4918c579632394eb7c338667b326ad3745e3b3082f3a312106cf3c",
      "transactionType": "CALL",
      "contractName": null,
      "contractAddress": "0xb136843F392dd2f174063ee469a875F642444146",
      "function": "transferReward(address,uint256)",
      "arguments": [
        "0x1804c8AB1F12E6bbf3894d4083f33e07309d1f38",
        "100000000000000000000"
      ],
      "transaction": {
        "type": "0x00",
        "from": "0xf8f8269488f73fab3935555fcddd6035699dee25",
        "to": "0xb136843f392dd2f174063ee469a875f642444146",
        "gas": "0xe615",
        "value": "0x0",
        "data": "0x15490ebb0000000000000000000000001804c8ab1f12e6bbf3894d4083f33e07309d1f380000000000000000000000000000000000000000000000056bc75e2d63100000",
        "nonce": "0x84"
      },
      "additionalContracts": [],
      "isFixedGasLimit": false
    }
  ],
  "receipts": [],
  "libraries": [],
  "pending": [
    "0xc8ab0194cb4918c579632394eb7c338667b326ad3745e3b3082f3a312106cf3c"
  ],
  "returns": {},
  "timestamp": 1707142586,
  "chain": 1313161555,
  "multi": false,
  "commit": "29466c0"
}