{
  "transactions": [
    {
      "hash": "0x78ebd8cca3658c3fe984076e5a55947be58dd8f788cd4c165e278ebab52c6051",
      "transactionType": "CALL",
      "contractName": null,
      "contractAddress": "0xb136843F392dd2f174063ee469a875F642444146",
      "function": "transferReward(address,uint256)",
      "arguments": [
        "0x1804c8AB1F12E6bbf3894d4083f33e07309d1f38",
        "100"
      ],
      "transaction": {
        "type": "0x00",
        "from": "0xf8f8269488f73fab3935555fcddd6035699dee25",
        "to": "0xb136843f392dd2f174063ee469a875f642444146",
        "gas": "0x1352d",
        "value": "0x0",
        "data": "0x15490ebb0000000000000000000000001804c8ab1f12e6bbf3894d4083f33e07309d1f380000000000000000000000000000000000000000000000000000000000000064",
        "nonce": "0x83"
      },
      "additionalContracts": [],
      "isFixedGasLimit": false
    }
  ],
  "receipts": [
    {
      "transactionHash": "0x78ebd8cca3658c3fe984076e5a55947be58dd8f788cd4c165e278ebab52c6051",
      "transactionIndex": "0x0",
      "blockHash": "0xc4d05996d05c6b330d005046c354e0b0a071762417ccb06b5ea46ef532bdec15",
      "blockNumber": "0x9585edd",
      "from": "0xF8f8269488f73fab3935555FCDdD6035699deE25",
      "to": "0xb136843F392dd2f174063ee469a875F642444146",
      "cumulativeGasUsed": "0x0",
      "gasUsed": "0xdfd7",
      "contractAddress": null,
      "logs": [
        {
          "address": "0x3022F88b83021746672f338e9Ce003ae6c0b43D7",
          "topics": [
            "0xddf252ad1be2c89b69c2b068fc378daa952ba7f163c4a11628f55a4df523b3ef",
            "0x000000000000000000000000b136843f392dd2f174063ee469a875f642444146",
            "0x0000000000000000000000001804c8ab1f12e6bbf3894d4083f33e07309d1f38"
          ],
          "data": "0x0000000000000000000000000000000000000000000000000000000000000064",
          "blockHash": "0xc4d05996d05c6b330d005046c354e0b0a071762417ccb06b5ea46ef532bdec15",
          "blockNumber": "0x9585edd",
          "transactionHash": "0x78ebd8cca3658c3fe984076e5a55947be58dd8f788cd4c165e278ebab52c6051",
          "transactionIndex": "0x0",
          "logIndex": "0x0",
          "removed": false
        }
      ],
      "status": "0x1",
      "logsBloom": "0x00000000000010000000000000000000000000000000000000000000000000000000000000000000000000000000000000000000000000000000000000000000000000000000000000000008000000000000000400000000000000000000000000000000000000000001000000000000000000000000000000000010000000000000000000000000000004000000200000000000000000000000000000000000000000000000000000000000000000000000000000002000000000000000000000000002000004000000002000000000000000000000000000000000000000020000000000000000000000000000000000000000000000000000000000000000",
      "type": "0x0",
      "effectiveGasPrice": "0x42c1d80"
    }
  ],
  "libraries": [],
  "pending": [],
  "returns": {},
  "timestamp": 1707142024,
  "chain": 1313161555,
  "multi": false,
  "commit": "29466c0"
}