{
  "transactions": [
    {
      "hash": "0xdcc899deedb5b9d77d0ac5c553c90e44122a9675823461f31b1dd5a935023bad",
      "transactionType": "CALL",
      "contractName": null,
      "contractAddress": "0xb136843F392dd2f174063ee469a875F642444146",
      "function": "transferReward(address,uint256)",
      "arguments": [
        "0xF8f8269488f73fab3935555FCDdD6035699deE25",
        "100000000000000000000"
      ],
      "transaction": {
        "type": "0x00",
        "from": "0xf8f8269488f73fab3935555fcddd6035699dee25",
        "to": "0xb136843f392dd2f174063ee469a875f642444146",
        "gas": "0x13590",
        "value": "0x0",
        "data": "0x15490ebb000000000000000000000000f8f8269488f73fab3935555fcddd6035699dee250000000000000000000000000000000000000000000000056bc75e2d63100000",
        "nonce": "0x85"
      },
      "additionalContracts": [],
      "isFixedGasLimit": false
    }
  ],
  "receipts": [],
  "libraries": [],
  "pending": [
    "0xdcc899deedb5b9d77d0ac5c553c90e44122a9675823461f31b1dd5a935023bad"
  ],
  "returns": {},
  "timestamp": 1707143699,
  "chain": 1313161555,
  "multi": false,
  "commit": "29466c0"
}