{
  "transactions": [
    {
      "hash": "0xc8ab0194cb4918c579632394eb7c338667b326ad3745e3b3082f3a312106cf3c",
      "transactionType": "CALL",
      "contractName": null,
      "contractAddress": "0xb136843F392dd2f174063ee469a875F642444146",
      "function": "transferReward(address,uint256)",
      "arguments": [
        "0x1804c8AB1F12E6bbf3894d4083f33e07309d1f38",
        "100000000000000000000"
      ],
      "transaction": {
        "type": "0x00",
        "from": "0xf8f8269488f73fab3935555fcddd6035699dee25",
        "to": "0xb136843f392dd2f174063ee469a875f642444146",
        "gas": "0xe615",
        "value": "0x0",
        "data": "0x15490ebb0000000000000000000000001804c8ab1f12e6bbf3894d4083f33e07309d1f380000000000000000000000000000000000000000000000056bc75e2d63100000",
        "nonce": "0x84"
      },
      "additionalContracts": [],
      "isFixedGasLimit": false
    }
  ],
  "receipts": [
    {
      "transactionHash": "0xc8ab0194cb4918c579632394eb7c338667b326ad3745e3b3082f3a312106cf3c",
      "transactionIndex": "0x0",
      "blockHash": "0xee23fae2e20849c892bffa6132721714a460c7adbe5636f08bc5f6508399341c",
      "blockNumber": "0x95860c2",
      "from": "0xF8f8269488f73fab3935555FCDdD6035699deE25",
      "to": "0xb136843F392dd2f174063ee469a875F642444146",
      "cumulativeGasUsed": "0x0",
      "gasUsed": "0x9d53",
      "contractAddress": null,
      "logs": [
        {
          "address": "0x3022F88b83021746672f338e9Ce003ae6c0b43D7",
          "topics": [
            "0xddf252ad1be2c89b69c2b068fc378daa952ba7f163c4a11628f55a4df523b3ef",
            "0x000000000000000000000000b136843f392dd2f174063ee469a875f642444146",
            "0x0000000000000000000000001804c8ab1f12e6bbf3894d4083f33e07309d1f38"
          ],
          "data": "0x0000000000000000000000000000000000000000000000056bc75e2d63100000",
          "blockHash": "0xee23fae2e20849c892bffa6132721714a460c7adbe5636f08bc5f6508399341c",
          "blockNumber": "0x95860c2",
          "transactionHash": "0xc8ab0194cb4918c579632394eb7c338667b326ad3745e3b3082f3a312106cf3c",
          "transactionIndex": "0x0",
          "logIndex": "0x0",
          "removed": false
        }
      ],
      "status": "0x1",
      "logsBloom": "0x00000000000010000000000000000000000000000000000000000000000000000000000000000000000000000000000000000000000000000000000000000000000000000000000000000008000000000000000400000000000000000000000000000000000000000001000000000000000000000000000000000010000000000000000000000000000004000000200000000000000000000000000000000000000000000000000000000000000000000000000000002000000000000000000000000002000004000000002000000000000000000000000000000000000000020000000000000000000000000000000000000000000000000000000000000000",
      "type": "0x0",
      "effectiveGasPrice": "0x42c1d80"
    }
  ],
  "libraries": [],
  "pending": [],
  "returns": {},
  "timestamp": 1707142590,
  "chain": 1313161555,
  "multi": false,
  "commit": "29466c0"
}