{
  "transactions": [
    {
      "hash": "0x907117dcf4868810de3de99ed67861c751a98263317a7a7cdb0cc45fcfbb7758",
      "transactionType": "CALL",
      "contractName": null,
      "contractAddress": "0xb136843F392dd2f174063ee469a875F642444146",
      "function": "setRewardTokenAddress(address)",
      "arguments": [
        "0x3022F88b83021746672f338e9Ce003ae6c0b43D7"
      ],
      "transaction": {
        "type": "0x00",
        "from": "0xf8f8269488f73fab3935555fcddd6035699dee25",
        "to": "0xb136843f392dd2f174063ee469a875f642444146",
        "gas": "0x959a",
        "value": "0x0",
        "data": "0x9a6acf200000000000000000000000003022f88b83021746672f338e9ce003ae6c0b43d7",
        "nonce": "0x82"
      },
      "additionalContracts": [],
      "isFixedGasLimit": false
    }
  ],
  "receipts": [
    {
      "transactionHash": "0x907117dcf4868810de3de99ed67861c751a98263317a7a7cdb0cc45fcfbb7758",
      "transactionIndex": "0x0",
      "blockHash": "0xedaa2664706eb0b0c03eff529657bf08e2e5dbf6aa878664cf97bc4fca65fb56",
      "blockNumber": "0x958532d",
      "from": "0xF8f8269488f73fab3935555FCDdD6035699deE25",
      "to": "0xb136843F392dd2f174063ee469a875F642444146",
      "cumulativeGasUsed": "0x0",
      "gasUsed": "0x664b",
      "contractAddress": null,
      "logs": [],
      "status": "0x1",
      "logsBloom": "0x00000000000000000000000000000000000000000000000000000000000000000000000000000000000000000000000000000000000000000000000000000000000000000000000000000000000000000000000000000000000000000000000000000000000000000000000000000000000000000000000000000000000000000000000000000000000000000000000000000000000000000000000000000000000000000000000000000000000000000000000000000000000000000000000000000000000000000000000000000000000000000000000000000000000000000000000000000000000000000000000000000000000000000000000000000000",
      "type": "0x0",
      "effectiveGasPrice": "0x42c1d80"
    }
  ],
  "libraries": [],
  "pending": [],
  "returns": {},
  "timestamp": 1707138402,
  "chain": 1313161555,
  "multi": false,
  "commit": "29466c0"
}