{
  "transactions": [
    {
      "hash": "0x907117dcf4868810de3de99ed67861c751a98263317a7a7cdb0cc45fcfbb7758",
      "transactionType": "CALL",
      "contractName": null,
      "contractAddress": "0xb136843F392dd2f174063ee469a875F642444146",
      "function": "setRewardTokenAddress(address)",
      "arguments": [
        "0x3022F88b83021746672f338e9Ce003ae6c0b43D7"
      ],
      "transaction": {
        "type": "0x00",
        "from": "0xf8f8269488f73fab3935555fcddd6035699dee25",
        "to": "0xb136843f392dd2f174063ee469a875f642444146",
        "gas": "0x959a",
        "value": "0x0",
        "data": "0x9a6acf200000000000000000000000003022f88b83021746672f338e9ce003ae6c0b43d7",
        "nonce": "0x82"
      },
      "additionalContracts": [],
      "isFixedGasLimit": false
    }
  ],
  "receipts": [],
  "libraries": [],
  "pending": [
    "0x907117dcf4868810de3de99ed67861c751a98263317a7a7cdb0cc45fcfbb7758"
  ],
  "returns": {},
  "timestamp": 1707138340,
  "chain": 1313161555,
  "multi": false,
  "commit": "29466c0"
}