{
  "transactions": [
    {
      "hash": "0xdcc899deedb5b9d77d0ac5c553c90e44122a9675823461f31b1dd5a935023bad",
      "transactionType": "CALL",
      "contractName": null,
      "contractAddress": "0xb136843F392dd2f174063ee469a875F642444146",
      "function": "transferReward(address,uint256)",
      "arguments": [
        "0xF8f8269488f73fab3935555FCDdD6035699deE25",
        "100000000000000000000"
      ],
      "transaction": {
        "type": "0x00",
        "from": "0xf8f8269488f73fab3935555fcddd6035699dee25",
        "to": "0xb136843f392dd2f174063ee469a875f642444146",
        "gas": "0x13590",
        "value": "0x0",
        "data": "0x15490ebb000000000000000000000000f8f8269488f73fab3935555fcddd6035699dee250000000000000000000000000000000000000000000000056bc75e2d63100000",
        "nonce": "0x85"
      },
      "additionalContracts": [],
      "isFixedGasLimit": false
    }
  ],
  "receipts": [
    {
      "transactionHash": "0xdcc899deedb5b9d77d0ac5c553c90e44122a9675823461f31b1dd5a935023bad",
      "transactionIndex": "0x0",
      "blockHash": "0x28724f287478ac7fba6ba7bbc445f61932a25689a8a08016d8ac6aaee1d7bdc0",
      "blockNumber": "0x95864ca",
      "from": "0xF8f8269488f73fab3935555FCDdD6035699deE25",
      "to": "0xb136843F392dd2f174063ee469a875F642444146",
      "cumulativeGasUsed": "0x0",
      "gasUsed": "0xe01f",
      "contractAddress": null,
      "logs": [
        {
          "address": "0x3022F88b83021746672f338e9Ce003ae6c0b43D7",
          "topics": [
            "0xddf252ad1be2c89b69c2b068fc378daa952ba7f163c4a11628f55a4df523b3ef",
            "0x000000000000000000000000b136843f392dd2f174063ee469a875f642444146",
            "0x000000000000000000000000f8f8269488f73fab3935555fcddd6035699dee25"
          ],
          "data": "0x0000000000000000000000000000000000000000000000056bc75e2d63100000",
          "blockHash": "0x28724f287478ac7fba6ba7bbc445f61932a25689a8a08016d8ac6aaee1d7bdc0",
          "blockNumber": "0x95864ca",
          "transactionHash": "0xdcc899deedb5b9d77d0ac5c553c90e44122a9675823461f31b1dd5a935023bad",
          "transactionIndex": "0x0",
          "logIndex": "0x0",
          "removed": false
        }
      ],
      "status": "0x1",
      "logsBloom": "0x00000000000010000000000000000000000000000000000000000000000000000000000000000000000000000000000000000000000000000000000000000000000000000000080000000008000000000000040400000000000000000000000010000000000000000000000000000000000000000000000000000010000000000000000000000000000000000000200000000000000000000000000000000000000000000000000000000000000000000000000000002000000000000000000000000002000000000000002000000000000000000000000000000000000000020000000000000000000000000000000000000000000000000000000000000000",
      "type": "0x0",
      "effectiveGasPrice": "0x42c1d80"
    }
  ],
  "libraries": [],
  "pending": [],
  "returns": {},
  "timestamp": 1707143710,
  "chain": 1313161555,
  "multi": false,
  "commit": "29466c0"
}