{
  "transactions": [
    {
      "hash": "0x43827399b5e651a38a3ddb3be75c9e89aa00777a42c3d7c58e7e7a5a18622719",
      "transactionType": "CALL",
      "contractName": null,
      "contractAddress": "0xb136843F392dd2f174063ee469a875F642444146",
      "function": "setRewardTokenAddress(address)",
      "arguments": [
        "0x3022F88b83021746672f338e9Ce003ae6c0b43D7"
      ],
      "transaction": {
        "type": "0x00",
        "from": "0xf8f8269488f73fab3935555fcddd6035699dee25",
        "to": "0xb136843f392dd2f174063ee469a875f642444146",
        "gas": "0xf8a9",
        "value": "0x0",
        "data": "0x9a6acf200000000000000000000000003022f88b83021746672f338e9ce003ae6c0b43d7",
        "nonce": "0x81"
      },
      "additionalContracts": [],
      "isFixedGasLimit": false
    },
    {
      "hash": null,
      "transactionType": "CALL",
      "contractName": null,
      "contractAddress": "0xb136843F392dd2f174063ee469a875F642444146",
      "function": "transferReward(address,uint256)",
      "arguments": [
        "0x1804c8AB1F12E6bbf3894d4083f33e07309d1f38",
        "100"
      ],
      "transaction": {
        "type": "0x00",
        "from": "0xf8f8269488f73fab3935555fcddd6035699dee25",
        "to": "0xb136843f392dd2f174063ee469a875f642444146",
        "gas": "0x1352d",
        "value": "0x0",
        "data": "0x15490ebb0000000000000000000000001804c8ab1f12e6bbf3894d4083f33e07309d1f380000000000000000000000000000000000000000000000000000000000000064",
        "nonce": "0x82"
      },
      "additionalContracts": [],
      "isFixedGasLimit": false
    }
  ],
  "receipts": [],
  "libraries": [],
  "pending": [
    "0x43827399b5e651a38a3ddb3be75c9e89aa00777a42c3d7c58e7e7a5a18622719"
  ],
  "returns": {},
  "timestamp": 1707066139,
  "chain": 1313161555,
  "multi": false,
  "commit": "29466c0"
}