{
  "transactions": [
    {
      "hash": "0x78ebd8cca3658c3fe984076e5a55947be58dd8f788cd4c165e278ebab52c6051",
      "transactionType": "CALL",
      "contractName": null,
      "contractAddress": "0xb136843F392dd2f174063ee469a875F642444146",
      "function": "transferReward(address,uint256)",
      "arguments": [
        "0x1804c8AB1F12E6bbf3894d4083f33e07309d1f38",
        "100"
      ],
      "transaction": {
        "type": "0x00",
        "from": "0xf8f8269488f73fab3935555fcddd6035699dee25",
        "to": "0xb136843f392dd2f174063ee469a875f642444146",
        "gas": "0x1352d",
        "value": "0x0",
        "data": "0x15490ebb0000000000000000000000001804c8ab1f12e6bbf3894d4083f33e07309d1f380000000000000000000000000000000000000000000000000000000000000064",
        "nonce": "0x83"
      },
      "additionalContracts": [],
      "isFixedGasLimit": false
    }
  ],
  "receipts": [],
  "libraries": [],
  "pending": [
    "0x78ebd8cca3658c3fe984076e5a55947be58dd8f788cd4c165e278ebab52c6051"
  ],
  "returns": {},
  "timestamp": 1707142007,
  "chain": 1313161555,
  "multi": false,
  "commit": "29466c0"
}